{
  "contractName": "TotoSlots",
  "abi": [
    {
      "constant": true,
      "inputs": [
        {
          "name": "",
          "type": "uint256"
        }
      ],
      "name": "slotAccounts",
      "outputs": [
        {
          "name": "",
          "type": "address"
        }
      ],
      "payable": false,
      "stateMutability": "view",
      "type": "function"
    },
    {
      "anonymous": false,
      "inputs": [
        {
          "indexed": true,
          "name": "_from",
          "type": "address"
        }
      ],
      "name": "saveTotoSlotsData",
      "type": "event"
    },
    {
      "constant": true,
      "inputs": [],
      "name": "getOwner",
      "outputs": [
        {
          "name": "",
          "type": "address"
        }
      ],
      "payable": false,
      "stateMutability": "view",
      "type": "function"
    },
    {
      "constant": false,
      "inputs": [
        {
          "name": "_address",
          "type": "address"
        },
        {
          "name": "_issuerUID",
          "type": "string"
        },
        {
          "name": "_issuerName",
          "type": "string"
        },
        {
          "name": "_issuerEmail",
          "type": "string"
        },
        {
          "name": "_slotsData",
          "type": "uint256[6][]"
        },
        {
          "name": "_issuerTime",
          "type": "string"
        }
      ],
      "name": "setTotoSlotsData",
      "outputs": [],
      "payable": false,
      "stateMutability": "nonpayable",
      "type": "function"
    },
    {
      "constant": true,
      "inputs": [
        {
          "name": "_inputAddress",
          "type": "address"
        }
      ],
      "name": "getTotoSlotsData",
      "outputs": [
        {
          "name": "",
          "type": "address"
        },
        {
          "name": "",
          "type": "string"
        },
        {
          "name": "",
          "type": "string"
        },
        {
          "name": "",
          "type": "string"
        },
        {
          "name": "",
          "type": "uint256[6][]"
        },
        {
          "name": "",
          "type": "string"
        },
        {
          "name": "",
          "type": "uint256"
        }
      ],
      "payable": false,
      "stateMutability": "view",
      "type": "function"
    },
    {
      "constant": true,
      "inputs": [],
      "name": "countAllSlotAccounts",
      "outputs": [
        {
          "name": "",
          "type": "uint256"
        }
      ],
      "payable": false,
      "stateMutability": "view",
      "type": "function"
    },
    {
      "constant": true,
      "inputs": [
        {
          "name": "_address",
          "type": "address"
        }
      ],
      "name": "countSlotAccount",
      "outputs": [
        {
          "name": "",
          "type": "uint256"
        }
      ],
      "payable": false,
      "stateMutability": "view",
      "type": "function"
    },
    {
      "constant": true,
      "inputs": [],
      "name": "getAllSlotAccounts",
      "outputs": [
        {
          "name": "",
          "type": "address[]"
        }
      ],
      "payable": false,
      "stateMutability": "view",
      "type": "function"
    },
    {
      "constant": false,
      "inputs": [
        {
          "name": "num",
          "type": "uint256"
        }
      ],
      "name": "addData",
      "outputs": [],
      "payable": false,
      "stateMutability": "nonpayable",
      "type": "function"
    },
    {
      "constant": true,
      "inputs": [
        {
          "name": "num",
          "type": "uint256"
        }
      ],
      "name": "search",
      "outputs": [
        {
          "name": "",
          "type": "bool"
        }
      ],
      "payable": false,
      "stateMutability": "view",
      "type": "function"
    },
    {
      "constant": false,
      "inputs": [
        {
          "name": "slotListNumbers",
          "type": "uint256[6][]"
        }
      ],
      "name": "array_pushData",
      "outputs": [],
      "payable": false,
      "stateMutability": "nonpayable",
      "type": "function"
    },
    {
      "constant": true,
      "inputs": [],
      "name": "array_popAllData",
      "outputs": [
        {
          "name": "",
          "type": "uint256[6][]"
        }
      ],
      "payable": false,
      "stateMutability": "view",
      "type": "function"
    },
    {
      "constant": true,
      "inputs": [],
      "name": "array_getLength",
      "outputs": [
        {
          "name": "",
          "type": "uint256"
        }
      ],
      "payable": false,
      "stateMutability": "view",
      "type": "function"
    },
    {
      "constant": true,
      "inputs": [
        {
          "name": "index",
          "type": "uint256"
        }
      ],
      "name": "array_getArray",
      "outputs": [
        {
          "name": "",
          "type": "uint256[6]"
        }
      ],
      "payable": false,
      "stateMutability": "view",
      "type": "function"
    },
    {
      "constant": true,
      "inputs": [],
      "name": "time_Call",
      "outputs": [
        {
          "name": "",
          "type": "uint256"
        }
      ],
      "payable": false,
      "stateMutability": "view",
      "type": "function"
    },
    {
      "constant": true,
      "inputs": [],
      "name": "block_Call",
      "outputs": [
        {
          "name": "",
          "type": "uint256"
        }
      ],
      "payable": false,
      "stateMutability": "view",
      "type": "function"
    }
  ],
  "bytecode": "0x608060405234801561001057600080fd5b50611406806100206000396000f3fe6080604052600436106100d4577c010000000000000000000000000000000000000000000000000000000060003504631c3bbddc81146100d9578063260ac3b9146103ec578063356f4cd01461047257806347824e13146104d45780635bbdab1e146105b95780635fa6d686146105e0578063893d20e8146105f55780639e0f9f4e14610626578063b75e623914610659578063c44c913e146106be578063d1a9d639146106d3578063e5d824a714610932578063f813ec1d1461095c578063f86b8fdc14610986578063fc156fe01461099b575b600080fd5b3480156100e557600080fd5b506103ea600480360360c08110156100fc57600080fd5b600160a060020a03823516919081019060408101602082013564010000000081111561012757600080fd5b82018360208201111561013957600080fd5b8035906020019184600183028401116401000000008311171561015b57600080fd5b91908080601f01602080910402602001604051908101604052809392919081815260200183838082843760009201919091525092959493602081019350359150506401000000008111156101ae57600080fd5b8201836020820111156101c057600080fd5b803590602001918460018302840111640100000000831117156101e257600080fd5b91908080601f016020809104026020016040519081016040528093929190818152602001838380828437600092019190915250929594936020810193503591505064010000000081111561023557600080fd5b82018360208201111561024757600080fd5b8035906020019184600183028401116401000000008311171561026957600080fd5b91908080601f01602080910402602001604051908101604052809392919081815260200183838082843760009201919091525092959493602081019350359150506401000000008111156102bc57600080fd5b8201836020820111156102ce57600080fd5b803590602001918460c08302840111640100000000831117156102f057600080fd5b9190808060200260200160405190810160405280939291908181526020016000905b82821015610353576040805160c081810190925290808402870190600690839083908082843760009201919091525050508152600190910190602001610312565b5093969594602081019450359250505064010000000081111561037557600080fd5b82018360208201111561038757600080fd5b803590602001918460018302840111640100000000831117156103a957600080fd5b91908080601f0160208091040260200160405190810160405280939291908181526020018383808284376000920191909152509295506109d9945050505050565b005b3480156103f857600080fd5b50610401610b70565b60405180806020018281038252838181518152602001915080516000925b818410156104615760208085028401015160c080838360005b83811015610450578181015183820152602001610438565b50505050905001926001019261041f565b925050509250505060405180910390f35b34801561047e57600080fd5b5061049c6004803603602081101561049557600080fd5b5035610bef565b604051808260c080838360005b838110156104c15781810151838201526020016104a9565b5050505090500191505060405180910390f35b3480156104e057600080fd5b506103ea600480360360208110156104f757600080fd5b81019060208101813564010000000081111561051257600080fd5b82018360208201111561052457600080fd5b803590602001918460c083028401116401000000008311171561054657600080fd5b9190808060200260200160405190810160405280939291908181526020016000905b828210156105a9576040805160c081810190925290808402870190600690839083908082843760009201919091525050508152600190910190602001610568565b50939650610c4995505050505050565b3480156105c557600080fd5b506105ce610cf6565b60408051918252519081900360200190f35b3480156105ec57600080fd5b506105ce610cfc565b34801561060157600080fd5b5061060a610d02565b60408051600160a060020a039092168252519081900360200190f35b34801561063257600080fd5b506105ce6004803603602081101561064957600080fd5b5035600160a060020a0316610d11565b34801561066557600080fd5b5061066e610d6a565b60408051602080825283518183015283519192839290830191858101910280838360005b838110156106aa578181015183820152602001610692565b505050509050019250505060405180910390f35b3480156106ca57600080fd5b506105ce610dcc565b3480156106df57600080fd5b50610706600480360360208110156106f657600080fd5b5035600160a060020a0316610dd0565b6040518088600160a060020a0316600160a060020a03168152602001806020018060200180602001806020018060200187815260200186810386528c818151815260200191508051906020019080838360005b83811015610771578181015183820152602001610759565b50505050905090810190601f16801561079e5780820380516001836020036101000a031916815260200191505b5086810385528b5181528b516020918201918d019080838360005b838110156107d15781810151838201526020016107b9565b50505050905090810190601f1680156107fe5780820380516001836020036101000a031916815260200191505b5086810384528a5181528a516020918201918c019080838360005b83811015610831578181015183820152602001610819565b50505050905090810190601f16801561085e5780820380516001836020036101000a031916815260200191505b5086810383528951815289516000918b91906020015b818410156108b65760208085028401015160c080838360005b838110156108a557818101518382015260200161088d565b505050509050019260010192610874565b89810385528b5181528b5160209182019450908c019250905080838360005b838110156108ed5781810151838201526020016108d5565b50505050905090810190601f16801561091a5780820380516001836020036101000a031916815260200191505b509c5050505050505050505050505060405180910390f35b34801561093e57600080fd5b506103ea6004803603602081101561095557600080fd5b5035611122565b34801561096857600080fd5b5061060a6004803603602081101561097f57600080fd5b5035611157565b34801561099257600080fd5b506105ce61117f565b3480156109a757600080fd5b506109c5600480360360208110156109be57600080fd5b5035611183565b604080519115158252519081900360200190f35b6040805160e081018252600160a060020a0388811680835260208084018a81528486018a9052606085018990526080850188905260a085018790524260c0860152600092835260038252949091208351815473ffffffffffffffffffffffffffffffffffffffff191693169290921782559251805192939192610a6292600185019201906111da565b5060408201518051610a7e9160028401916020909101906111da565b5060608201518051610a9a9160038401916020909101906111da565b5060808201518051610ab6916004840191602090910190611258565b5060a08201518051610ad29160058401916020909101906111da565b5060c0919091015160069091015560405133907f6e30262eed402f988da5b186a880cc9fddede9456066c65681f51dc9c12f40c890600090a25050600480546001810182556000919091527f8a35acfbc15ff81a39ae7d344fd709f28e8600b4aa8c65c6b64bfe7fe36bd19b01805473ffffffffffffffffffffffffffffffffffffffff1916600160a060020a039590951694909417909355505050565b60606001805480602002602001604051908101604052809291908181526020016000905b82821015610be5576000848152602090206040805160c08101918290529160068581029091019182845b815481526020019060010190808311610bbe57505050505081526020019060010190610b94565b5050505090505b90565b610bf76112ae565b6001805483908110610c0557fe5b600091825260209091206040805160c0810191829052926006908102909201919082845b815481526020019060010190808311610c2957505050505090505b919050565b8051604080518281526020808402820101909152818015610c8457816020015b610c716112ae565b815260200190600190039081610c695790505b508051610c99916001916020909101906112cd565b5060005b81811015610cf1578281815181101515610cb357fe5b90602001906020020151600182815481101515610ccc57fe5b9060005260206000209060060201906006610ce8929190611317565b50600101610c9d565b505050565b60015490565b60045490565b600054600160a060020a031690565b600080805b600454811015610d635783600160a060020a0316600482815481101515610d3957fe5b600091825260209091200154600160a060020a03161415610d5b576001909101905b600101610d16565b5092915050565b60606004805480602002602001604051908101604052809291908181526020018280548015610dc257602002820191906000526020600020905b8154600160a060020a03168152600190910190602001808311610da4575b5050505050905090565b4390565b600060608060608060606000610de4611344565b600160a060020a03898116600090815260036020908152604091829020825160e08101845281549094168452600180820180548551600261010094831615949094026000190190911692909204601f8101859004850283018501909552848252919385840193919291830182828015610e9e5780601f10610e7357610100808354040283529160200191610e9e565b820191906000526020600020905b815481529060010190602001808311610e8157829003601f168201915b5050509183525050600282810180546040805160206001841615610100026000190190931694909404601f81018390048302850183019091528084529381019390830182828015610f305780601f10610f0557610100808354040283529160200191610f30565b820191906000526020600020905b815481529060010190602001808311610f1357829003601f168201915b505050918352505060038201805460408051602060026001851615610100026000190190941693909304601f8101849004840282018401909252818152938201939291830182828015610fc45780601f10610f9957610100808354040283529160200191610fc4565b820191906000526020600020905b815481529060010190602001808311610fa757829003601f168201915b5050505050815260200160048201805480602002602001604051908101604052809291908181526020016000905b82821015611043576000848152602090206040805160c08101918290529160068581029091019182845b81548152602001906001019080831161101c57505050505081526020019060010190610ff2565b5050509082525060058201805460408051602060026001851615610100026000190190941693909304601f81018490048402820184019092528181529382019392918301828280156110d65780601f106110ab576101008083540402835291602001916110d6565b820191906000526020600020905b8154815290600101906020018083116110b957829003601f168201915b50505091835250506006919091015460209182015281519082015160408301516060840151608085015160a086015160c090960151949f939e50919c509a509850919650945092505050565b600280546001810182556000919091527f405787fa12a823e0f2b7631cc41b3ba8828b3321ca811111fa75cd3aa3bb5ace0155565b600480548290811061116557fe5b600091825260209091200154600160a060020a0316905081565b4290565b600080805b6002548110156111c757836002828154811015156111a257fe5b906000526020600020015414156111bf575060019150610c449050565b600101611188565b6002548110610d63575060009392505050565b828054600181600116156101000203166002900490600052602060002090601f016020900481019282601f1061121b57805160ff1916838001178555611248565b82800160010185558215611248579182015b8281111561124857825182559160200191906001019061122d565b5061125492915061138b565b5090565b8280548282559060005260206000209060060281019282156112a2579160200282015b828111156112a25782516112929083906006611317565b509160200191906006019061127b565b506112549291506113a5565b60c0604051908101604052806006906020820280388339509192915050565b8280548282559060005260206000209060060281019282156112a2579160200282015b828111156112a25782516113079083906006611317565b50916020019190600601906112f0565b8260068101928215611248579160200282018281111561124857825182559160200191906001019061122d565b60e0604051908101604052806000600160a060020a031681526020016060815260200160608152602001606081526020016060815260200160608152602001600081525090565b610bec91905b808211156112545760008155600101611391565b610bec91905b808211156112545760006113bf82826113c8565b506006016113ab565b506113d790600681019061138b565b5056fea165627a7a723058206bd1f8827e70f497908fad77f64a68eaed2160098089010ae1572e65f39d0ffe0029",
  "source": "// https://github.com/kanthgithub/ticketbooking/tree/main/contracts\n// https://jeancvllr.medium.com/solidity-tutorial-all-about-structs-b3e7ca398b1e\n// SPDX-License-Identifier: MIT\npragma solidity >0.5.0;\nimport \"./interfaces/TotoSlotStructLib.sol\";\n  \n// Creating a contract \ncontract TotoSlots {    \n\n    // Declaring state variables of a type of fixed-size array \n    address private owner;  \n    uint[6][] private arr_data;        \n    uint256[] private arr_test;    \n    \n    // Creating mapping a storage variables for TotoSlots(issuerAddress -> TotoSlotsData)\n    mapping(address => TotoSlotStructLib.TotoSlotsData) totoSlots;       \n    // TotoSlotStructLib.TotoSlotsData[] TotoSlotsDataArray;    \n    // mapping(address => TotoSlotStructLib.TotoSlotsData[]) TotoSlotsDataArray;\n\n    // Save all the Slot‘s addresses who registered on a contract in an array.\n    address[] public slotAccounts;    \n\n    event saveTotoSlotsData(address indexed _from);\n    \n    modifier onlyOwner {\n        require(msg.sender == owner, \"only Owner can invoke the function\");\n        _;\n    }\n\n    function getOwner() public view returns(address){\n        return owner;\n    }\n\n    modifier isIssuerAuthorised(address issuerAddress){        \n        require(totoSlots[msg.sender].issuerAddress == issuerAddress , \"not Authorized to Invoke the function\");\n        _;\n    }\n    \n    // Function adding values to the mapping\n    function setTotoSlotsData(address _address, string memory _issuerUID, string memory _issuerName, string memory _issuerEmail, uint[6][] memory _slotsData, string memory _issuerTime) public {    \n     \n        totoSlots[_address] = TotoSlotStructLib.TotoSlotsData(\n            {\n                issuerAddress: _address,\n                issuerUID: _issuerUID,\n                issuerName: _issuerName,\n                issuerEmail: _issuerEmail,\n                slotsData: _slotsData,\n                createdTime: _issuerTime,\n                createdBlockTime : block.timestamp\n            }\n        );\n\n        emit saveTotoSlotsData(msg.sender);\n        \n        // Create a request instance        \n        slotAccounts.push(_address);                                           \n    }    \n\n    // Function to return array of structure TotoSlotsData\n    function getTotoSlotsData(address _inputAddress) public view returns (address, string memory, string memory, string memory, uint[6][] memory, string memory, uint256) { \n        \n        // Copy the data into memory\n        TotoSlotStructLib.TotoSlotsData memory slotsData = totoSlots[_inputAddress];\n               \n        // Break the struct's members out into a tuple in the same order that they appear in the struct\n        return (slotsData.issuerAddress, slotsData.issuerUID, slotsData.issuerName, slotsData.issuerEmail, slotsData.slotsData, slotsData.createdTime, slotsData.createdBlockTime); \n    }\n\n    // function getAllTotoSlotsData(address _inputAddress) public view returns (TotoSlotStructLib.TotoSlotsData[] memory) { \n\n    //     uint count=0;      \n    //     for(uint i=0; i<slotAccounts.length; i++) {\n    //         if(slotAccounts[i] == _inputAddress) {\n    //             count++;\n    //         }\n    //     }      \n        \n    //     TotoSlotStructLib.TotoSlotsData[] memory totoSlotsData = new TotoSlotStructLib.TotoSlotsData[](count); \n\n    //     // Copy the data into memory\n    //     TotoSlotStructLib.TotoSlotsData memory slotsData = totoSlots[_inputAddress];\n\n    //     for(uint i=0; i<slotAccounts.length; i++) {\n    //         if(slotAccounts[i] == _inputAddress) {\n    //             totoSlotsData[i] = slotsData;                        \n    //         }\n    //     }       \n    //     // Return Array of structure\n    //     return totoSlotsData;        \n    // }        \n\n    // function getSlotsData(uint[] memory indexes) public view returns (address[] memory, string[] memory, string[] memory, string[] memory, uint[6][][] memory, string[] memory, uint256[] memory) {\n    //     address[] memory issuerAddress = new address[](indexes.length);\n    //     string[] memory issuerUID = new string[](indexes.length);\n    //     string[] memory issuerName = new string[](indexes.length);\n    //     string[] memory issuerEmail = new string[](indexes.length);\n    //     uint[6][][] memory slotsData = new uint[6][][](indexes.length);\n    //     string[] memory createdTime = new string[](indexes.length);\n    //     uint256[] memory createdBlockTime = new uint256[](indexes.length);         \n\n    //     for (uint i=0; i<indexes.length; i++) {\n    //         TotoSlotStructLib.TotoSlotsData storage data = TotoSlotsDataArray[indexes[i]];\n    //         issuerAddress[i] = data.issuerAddress;\n    //         issuerUID[i] = data.issuerUID;\n    //         issuerName[i] = data.issuerName;\n    //         issuerEmail[i] = data.issuerEmail;\n    //         slotsData[i] = data.slotsData;\n    //         createdTime[i] = data.createdTime;\n    //         createdBlockTime[i] = data.createdBlockTime;            \n    //     }\n\n    //     return (issuerAddress, issuerUID, issuerName, issuerEmail, slotsData, createdTime, createdBlockTime);         \n    // }\n\n    // Counting all dynamic array from a Mapping\n    function countAllSlotAccounts() view public returns (uint) {\n        return slotAccounts.length;\n    }\n\n    // Counting specific dynamic array from a Mapping\n    function countSlotAccount(address _address) view public returns (uint) {        \n        uint count=0;      \n        for(uint i=0; i<slotAccounts.length; i++) {\n            if(slotAccounts[i] == _address) {\n                count++;\n            }\n        }           \n        return count;\n    }\n\n    // Function to get all stored addresses of dynamic array \n    function getAllSlotAccounts() view public returns (address[] memory) {\n        return slotAccounts;\n    }    \n    \n    // Function to add data in dynamic array test\n    function addData(uint256 num) public {        \n        arr_test.push(num);\n    }\n\n    // Function to search an element in dynamic array\n    function search(uint256 num) view public returns (bool) {\n        bool searchStatus;\n        uint i;        \n        for(i=0; i<arr_test.length; i++) {\n            if(arr_test[i] == num) {\n                searchStatus = true;\n                return searchStatus;\n            }\n        }        \n        if(i >= arr_test.length)\n        searchStatus = false;\n        return searchStatus;\n    } \n\n    // Function to store all data in dynamic array \n    function array_pushData(uint[6][] memory slotListNumbers) public { \n        // Dynamic array outright with its elements are arrays of fixed size\n        uint count = slotListNumbers.length;\n        arr_data = new uint[6][](count);        \n        for(uint idx=0; idx<count; idx++) { \n            arr_data[idx] = slotListNumbers[idx];           \n        }                                            \n    }          \n\n    // Function to get all data of dynamic array \n    function array_popAllData() view public returns (uint[6][] memory) {    \n        return arr_data;\n    }\n\n    // Defining a function to find the length of the array\n    function array_getLength() view public returns (uint256) {  \n        uint x = arr_data.length;\n        return x; \n    }  \n\n    // Return an array stored in the dynamic dimension will throw if index > flags.length-1 (index starts at 0)\n    function array_getArray(uint256 index) view public returns (uint[6] memory) {\n        return(arr_data[index]);\n    }   \n     \n    // Current block timestamp is returned by now ( http://www.unixtimestamp.com/ ex, $ date -d @block.timestamp )\n    function time_Call() view public returns (uint256) {        \n        return block.timestamp;\n    }\n\n    // Block Number is returned using block.number\n    function block_Call() view public returns (uint256) {\n        return block.number; \n    }\n    \n}\n",
  "sourcePath": "/home/syoo/Documents/BlockChain/Eth_Toto_Board/contracts/TotoSlots.sol",
  "compiler": {
    "name": "solc",
    "version": "0.5.1+commit.c8a2cb62.Emscripten.clang"
  },
  "schemaVersion": "3.4.3",
  "updatedAt": "2021-12-27T12:53:41.797Z",
  "devdoc": {
    "methods": {}
  },
  "userdoc": {
    "methods": {}
  }
}