{
  "contractName": "TotoSlots",
  "abi": [
    {
      "constant": false,
      "inputs": [
        {
          "name": "arr0",
          "type": "uint256"
        },
        {
          "name": "arr1",
          "type": "uint256"
        },
        {
          "name": "arr2",
          "type": "uint256"
        },
        {
          "name": "arr3",
          "type": "uint256"
        },
        {
          "name": "arr4",
          "type": "uint256"
        },
        {
          "name": "arr5",
          "type": "uint256"
        }
      ],
      "name": "array_pushData",
      "outputs": [],
      "payable": false,
      "stateMutability": "nonpayable",
      "type": "function"
    },
    {
      "constant": true,
      "inputs": [],
      "name": "array_popAllData",
      "outputs": [
        {
          "name": "",
          "type": "uint256[6][]"
        }
      ],
      "payable": false,
      "stateMutability": "view",
      "type": "function"
    },
    {
      "constant": true,
      "inputs": [],
      "name": "array_getLength",
      "outputs": [
        {
          "name": "",
          "type": "uint256"
        }
      ],
      "payable": false,
      "stateMutability": "view",
      "type": "function"
    },
    {
      "constant": true,
      "inputs": [
        {
          "name": "index",
          "type": "uint256"
        }
      ],
      "name": "array_getArray",
      "outputs": [
        {
          "name": "",
          "type": "uint256[6]"
        }
      ],
      "payable": false,
      "stateMutability": "view",
      "type": "function"
    },
    {
      "constant": true,
      "inputs": [],
      "name": "time_Call",
      "outputs": [
        {
          "name": "",
          "type": "uint256"
        }
      ],
      "payable": false,
      "stateMutability": "view",
      "type": "function"
    },
    {
      "constant": true,
      "inputs": [],
      "name": "block_Call",
      "outputs": [
        {
          "name": "",
          "type": "uint256"
        }
      ],
      "payable": false,
      "stateMutability": "view",
      "type": "function"
    }
  ],
  "bytecode": "0x608060405234801561001057600080fd5b50610562806100206000396000f3fe608060405260043610610071577c01000000000000000000000000000000000000000000000000000000006000350463260ac3b98114610076578063356f4cd0146100fc5780635ad49ab31461015e5780635bbdab1e146101a8578063c44c913e146101cf578063f86b8fdc146101e4575b600080fd5b34801561008257600080fd5b5061008b6101f9565b60405180806020018281038252838181518152602001915080516000925b818410156100eb5760208085028401015160c080838360005b838110156100da5781810151838201526020016100c2565b5050505090500192600101926100a9565b925050509250505060405180910390f35b34801561010857600080fd5b506101266004803603602081101561011f57600080fd5b5035610278565b604051808260c080838360005b8381101561014b578181015183820152602001610133565b5050505090500191505060405180910390f35b34801561016a57600080fd5b506101a6600480360360c081101561018157600080fd5b5080359060208101359060408101359060608101359060808101359060a001356102d1565b005b3480156101b457600080fd5b506101bd6103fb565b60408051918252519081900360200190f35b3480156101db57600080fd5b506101bd610401565b3480156101f057600080fd5b506101bd610405565b60606001805480602002602001604051908101604052809291908181526020016000905b8282101561026e576000848152602090206040805160c08101918290529160068581029091019182845b8154815260200190600101908083116102475750505050508152602001906001019061021d565b5050505090505b90565b610280610409565b600180548390811061028e57fe5b600091825260209091206040805160c0810191829052926006908102909201919082845b8154815260200190600101908083116102b25750505050509050919050565b6040805160c08101825287815260208101879052908101859052606081018490526080810183905260a08101829052600080546001810180835591805290916103429160069081027f290decd9548b62a8d60345a988386fc84ba6bc95484008f6362f93160ef3e563019190610428565b505060005460408051828152602080840282010190915281801561038057816020015b61036d610409565b8152602001906001900390816103655790505b50805161039591600191602090910190610466565b5060005b818110156103f15760008054829081106103af57fe5b90600052602060002090600602016001828154811015156103cc57fe5b90600052602060002090600602019060066103e89291906104bc565b50600101610399565b5050505050505050565b60015490565b4390565b4290565b60c0604051908101604052806006906020820280388339509192915050565b8260068101928215610456579160200282015b8281111561045657825182559160200191906001019061043b565b506104629291506104e7565b5090565b8280548282559060005260206000209060060281019282156104b0579160200282015b828111156104b05782516104a09083906006610428565b5091602001919060060190610489565b50610462929150610501565b8260068101928215610456579182015b828111156104565782548255916001019190600101906104cc565b61027591905b8082111561046257600081556001016104ed565b61027591905b8082111561046257600061051b8282610524565b50600601610507565b506105339060068101906104e7565b5056fea165627a7a7230582058d392f5d916e20174545e0efd7d9523c253af2c349071581a24be1173c49e670029",
  "source": "// SPDX-License-Identifier: MIT\n// Solidity program to create a fixed-size array \npragma solidity >0.5.0;\n  \n// Creating a contract \ncontract TotoSlots {  \n  \n    // Declaring state variables of type array\n    uint[6][] private slotListNumbers;\n    uint[6][] private arr_data;    \n      \n    // Function to add data in dynamic array \n    // function array_pushData(uint count, uint arr0, uint arr1, uint arr2, uint arr3, uint arr4, uint arr5) public { \n    //     // Single Array to store all sub-arrays\n    //     // arr_data = new uint[6][];\n    //     // arr_data.push([arr0, arr1, arr2, arr3, arr4, arr5]);        \n        \n    //     // Dynamic array outright with its elements are arrays of fixed size\n    //     arr_data = new uint[6][](count);        \n    //     for(uint idx=0; idx<count; idx++) {                                \n    //         arr_data[idx] = [arr0, arr1, arr2, arr3, arr4, arr5];             \n    //     }                \n    // } \n    // function array_pushData(uint[] memory slotListNumbers) public { \n    function array_pushData(uint arr0, uint arr1, uint arr2, uint arr3, uint arr4, uint arr5) public { \n        // Single Array to store all sub-arrays\n        // slotListNumbers = new uint[6][];\n        slotListNumbers.push([arr0, arr1, arr2, arr3, arr4, arr5]);                \n        \n        // Dynamic array outright with its elements are arrays of fixed size\n        uint count = slotListNumbers.length;\n        arr_data = new uint[6][](count);        \n        for(uint idx=0; idx<count; idx++) { \n            arr_data[idx] = slotListNumbers[idx];           \n        }                \n    }          \n\n    // Function to get all data of dynamic array \n    function array_popAllData() view public returns(uint[6][] memory) {    \n        return arr_data;\n    }\n\n    // Defining a function to find the length of the array\n    function array_getLength() view public returns(uint) {  \n        uint x = arr_data.length;\n        return x; \n    }  \n\n    // Return an array stored in the dynamic dimension will throw if index > flags.length-1 (index starts at 0)\n    function array_getArray(uint index) view public returns(uint[6] memory) {\n        return(arr_data[index]);\n    }   \n     \n    // Current block timestamp is returned by now (http://www.unixtimestamp.com/)\n    function time_Call() view public returns(uint256) {        \n        return block.timestamp;\n    }\n\n    // Block Number is returned using block.number\n    function block_Call() view public returns(uint256) {\n        return block.number; \n    }\n    \n}\n",
  "sourcePath": "/home/syoo/Documents/BlockChain/Eth_Toto_Board/contracts/TotoSlots.sol",
  "compiler": {
    "name": "solc",
    "version": "0.5.1+commit.c8a2cb62.Emscripten.clang"
  },
  "schemaVersion": "3.4.3",
  "updatedAt": "2021-10-07T07:43:23.564Z",
  "networkType": "ethereum",
  "devdoc": {
    "methods": {}
  },
  "userdoc": {
    "methods": {}
  }
}