{
  "contractName": "TotoSlots",
  "abi": [
    {
      "constant": false,
      "inputs": [
        {
          "name": "arr0",
          "type": "uint256"
        },
        {
          "name": "arr1",
          "type": "uint256"
        },
        {
          "name": "arr2",
          "type": "uint256"
        },
        {
          "name": "arr3",
          "type": "uint256"
        },
        {
          "name": "arr4",
          "type": "uint256"
        },
        {
          "name": "arr5",
          "type": "uint256"
        }
      ],
      "name": "array_pushData",
      "outputs": [
        {
          "name": "values",
          "type": "uint256[6][]"
        }
      ],
      "payable": false,
      "stateMutability": "nonpayable",
      "type": "function"
    },
    {
      "constant": true,
      "inputs": [],
      "name": "array_popAllData",
      "outputs": [
        {
          "name": "",
          "type": "uint256[6][]"
        }
      ],
      "payable": false,
      "stateMutability": "view",
      "type": "function"
    },
    {
      "constant": true,
      "inputs": [],
      "name": "array_getLength",
      "outputs": [
        {
          "name": "",
          "type": "uint256"
        }
      ],
      "payable": false,
      "stateMutability": "view",
      "type": "function"
    },
    {
      "constant": true,
      "inputs": [
        {
          "name": "index",
          "type": "uint256"
        }
      ],
      "name": "array_getArray",
      "outputs": [
        {
          "name": "",
          "type": "uint256[6]"
        }
      ],
      "payable": false,
      "stateMutability": "view",
      "type": "function"
    },
    {
      "constant": true,
      "inputs": [],
      "name": "time_Call",
      "outputs": [
        {
          "name": "",
          "type": "uint256"
        }
      ],
      "payable": false,
      "stateMutability": "view",
      "type": "function"
    },
    {
      "constant": true,
      "inputs": [],
      "name": "block_Call",
      "outputs": [
        {
          "name": "",
          "type": "uint256"
        }
      ],
      "payable": false,
      "stateMutability": "view",
      "type": "function"
    }
  ],
  "bytecode": "0x608060405234801561001057600080fd5b50610669806100206000396000f3fe608060405260043610610071577c01000000000000000000000000000000000000000000000000000000006000350463260ac3b98114610076578063356f4cd0146100fc5780635ad49ab31461015e5780635bbdab1e14610206578063c44c913e1461022d578063f86b8fdc14610242575b600080fd5b34801561008257600080fd5b5061008b610257565b60405180806020018281038252838181518152602001915080516000925b818410156100eb5760208085028401015160c080838360005b838110156100da5781810151838201526020016100c2565b5050505090500192600101926100a9565b925050509250505060405180910390f35b34801561010857600080fd5b506101266004803603602081101561011f57600080fd5b50356102d6565b604051808260c080838360005b8381101561014b578181015183820152602001610133565b5050505090500191505060405180910390f35b34801561016a57600080fd5b506101a6600480360360c081101561018157600080fd5b5080359060208101359060408101359060608101359060808101359060a0013561032f565b60405180806020018281038252838181518152602001915080516000925b818410156100eb5760208085028401015160c080838360005b838110156101f55781810151838201526020016101dd565b5050505090500192600101926101c4565b34801561021257600080fd5b5061021b6104e1565b60408051918252519081900360200190f35b34801561023957600080fd5b5061021b6104e7565b34801561024e57600080fd5b5061021b6104eb565b60606001805480602002602001604051908101604052809291908181526020016000905b828210156102cc576000848152602090206040805160c08101918290529160068581029091019182845b8154815260200190600101908083116102a55750505050508152602001906001019061027b565b5050505090505b90565b6102de6104ef565b60018054839081106102ec57fe5b600091825260209091206040805160c0810191829052926006908102909201919082845b8154815260200190600101908083116103105750505050509050919050565b6040805160c0810182528781526020810187905290810185905260608181018590526080820184905260a082018390526000805460018101808355918052919290916103a29160069182027f290decd9548b62a8d60345a988386fc84ba6bc95484008f6362f93160ef3e563019161050e565b50506000546040805182815260208084028201019091528180156103e057816020015b6103cd6104ef565b8152602001906001900390816103c55790505b5080516103f59160019160209091019061054c565b5060005b8181101561045157600080548290811061040f57fe5b906000526020600020906006020160018281548110151561042c57fe5b90600052602060002090600602019060066104489291906105a2565b506001016103f9565b5061045d6000806105cd565b6001805480602002602001604051908101604052809291908181526020016000905b828210156104d0576000848152602090206040805160c08101918290529160068581029091019182845b8154815260200190600101908083116104a95750505050508152602001906001019061047f565b505050509150509695505050505050565b60015490565b4390565b4290565b60c0604051908101604052806006906020820280388339509192915050565b826006810192821561053c579160200282015b8281111561053c578251825591602001919060010190610521565b506105489291506105f1565b5090565b828054828255906000526020600020906006028101928215610596579160200282015b82811115610596578251610586908390600661050e565b509160200191906006019061056f565b5061054892915061060b565b826006810192821561053c579182015b8281111561053c5782548255916001019190600101906105b2565b50805460008255600602906000526020600020908101906105ee919061060b565b50565b6102d391905b8082111561054857600081556001016105f7565b6102d391905b80821115610548576000610625828261062e565b50600601610611565b506105ee9060068101906105f156fea165627a7a723058207408900822d1a63aee0f4e6232033c3659526d2b48bd500616524e750f5eb6a70029",
  "source": "// SPDX-License-Identifier: MIT\n// Solidity program to create a fixed-size array \npragma solidity >0.5.0;\n  \n// Creating a contract \ncontract TotoSlots {    \n    // Declaring state variables of type array\n    uint[6][] private slotListNumbers;\n    uint[6][] private arr_data;    \n\n    // constructor(uint[6][] memory _slotListNumbers, uint[6][] memory _arr_data) public {\n    //     // Initialize Arrays\n    //     slotListNumbers = _slotListNumbers;\n    //     delete slotListNumbers;\n    //     arr_data = _arr_data;\n    //     delete arr_data;\n    // }\n\n    // Function to add data in dynamic array \n    // function array_pushData(uint count, uint arr0, uint arr1, uint arr2, uint arr3, uint arr4, uint arr5) public { \n    //     // Single Array to store all sub-arrays\n    //     // arr_data = new uint[6][];\n    //     // arr_data.push([arr0, arr1, arr2, arr3, arr4, arr5]);        \n        \n    //     // Dynamic array outright with its elements are arrays of fixed size\n    //     arr_data = new uint[6][](count);        \n    //     for(uint idx=0; idx<count; idx++) {                                \n    //         arr_data[idx] = [arr0, arr1, arr2, arr3, arr4, arr5];             \n    //     }                \n    // } \n    // function array_pushData(uint[] memory slotListNumbers) public { \n    function array_pushData(uint arr0, uint arr1, uint arr2, uint arr3, uint arr4, uint arr5) public returns(uint[6][] memory values) {         \n        // Single Array to store all sub-arrays\n        // slotListNumbers = new uint[6][];\n        slotListNumbers.push([arr0, arr1, arr2, arr3, arr4, arr5]);                \n        \n        // Dynamic array outright with its elements are arrays of fixed size\n        uint count = slotListNumbers.length;\n        arr_data = new uint[6][](count);        \n        for(uint idx=0; idx<count; idx++) { \n            arr_data[idx] = slotListNumbers[idx];           \n        }                      \n        delete slotListNumbers;  \n        return arr_data;\n    }          \n\n    // Function to get all data of dynamic array \n    function array_popAllData() view public returns(uint[6][] memory) {    \n        return arr_data;\n    }\n\n    // Defining a function to find the length of the array\n    function array_getLength() view public returns(uint) {  \n        uint x = arr_data.length;\n        return x; \n    }  \n\n    // Return an array stored in the dynamic dimension will throw if index > flags.length-1 (index starts at 0)\n    function array_getArray(uint index) view public returns(uint[6] memory) {\n        return(arr_data[index]);\n    }   \n     \n    // Current block timestamp is returned by now (http://www.unixtimestamp.com/)\n    function time_Call() view public returns(uint256) {        \n        return block.timestamp;\n    }\n\n    // Block Number is returned using block.number\n    function block_Call() view public returns(uint256) {\n        return block.number; \n    }\n    \n}\n",
  "sourcePath": "/home/syoo/Documents/BlockChain/Eth_Toto_Board/contracts/TotoSlots.sol",
  "compiler": {
    "name": "solc",
    "version": "0.5.1+commit.c8a2cb62.Emscripten.clang"
  },
  "schemaVersion": "3.4.3",
  "updatedAt": "2021-10-07T12:41:03.213Z",
  "networkType": "ethereum",
  "devdoc": {
    "methods": {}
  },
  "userdoc": {
    "methods": {}
  }
}