{
  "contractName": "TotoSlots",
  "abi": [
    {
      "constant": false,
      "inputs": [
        {
          "name": "num",
          "type": "uint256"
        }
      ],
      "name": "addData",
      "outputs": [],
      "payable": false,
      "stateMutability": "nonpayable",
      "type": "function"
    },
    {
      "constant": true,
      "inputs": [
        {
          "name": "num",
          "type": "uint256"
        }
      ],
      "name": "search",
      "outputs": [
        {
          "name": "",
          "type": "bool"
        }
      ],
      "payable": false,
      "stateMutability": "view",
      "type": "function"
    },
    {
      "constant": false,
      "inputs": [
        {
          "name": "slotListNumbers",
          "type": "uint256[6][]"
        }
      ],
      "name": "array_pushData",
      "outputs": [],
      "payable": false,
      "stateMutability": "nonpayable",
      "type": "function"
    },
    {
      "constant": true,
      "inputs": [],
      "name": "array_popAllData",
      "outputs": [
        {
          "name": "",
          "type": "uint256[6][]"
        }
      ],
      "payable": false,
      "stateMutability": "view",
      "type": "function"
    },
    {
      "constant": true,
      "inputs": [],
      "name": "array_getLength",
      "outputs": [
        {
          "name": "",
          "type": "uint256"
        }
      ],
      "payable": false,
      "stateMutability": "view",
      "type": "function"
    },
    {
      "constant": true,
      "inputs": [
        {
          "name": "index",
          "type": "uint256"
        }
      ],
      "name": "array_getArray",
      "outputs": [
        {
          "name": "",
          "type": "uint256[6]"
        }
      ],
      "payable": false,
      "stateMutability": "view",
      "type": "function"
    },
    {
      "constant": true,
      "inputs": [],
      "name": "time_Call",
      "outputs": [
        {
          "name": "",
          "type": "uint256"
        }
      ],
      "payable": false,
      "stateMutability": "view",
      "type": "function"
    },
    {
      "constant": true,
      "inputs": [],
      "name": "block_Call",
      "outputs": [
        {
          "name": "",
          "type": "uint256"
        }
      ],
      "payable": false,
      "stateMutability": "view",
      "type": "function"
    }
  ],
  "bytecode": "0x608060405234801561001057600080fd5b50610664806100206000396000f3fe608060405260043610610087577c01000000000000000000000000000000000000000000000000000000006000350463260ac3b9811461008c578063356f4cd01461011257806347824e13146101745780635bbdab1e1461025b578063c44c913e14610282578063e5d824a714610297578063f86b8fdc146102c1578063fc156fe0146102d6575b600080fd5b34801561009857600080fd5b506100a1610314565b60405180806020018281038252838181518152602001915080516000925b818410156101015760208085028401015160c080838360005b838110156100f05781810151838201526020016100d8565b5050505090500192600101926100bf565b925050509250505060405180910390f35b34801561011e57600080fd5b5061013c6004803603602081101561013557600080fd5b5035610393565b604051808260c080838360005b83811015610161578181015183820152602001610149565b5050505090500191505060405180910390f35b34801561018057600080fd5b506102596004803603602081101561019757600080fd5b8101906020810181356401000000008111156101b257600080fd5b8201836020820111156101c457600080fd5b803590602001918460c08302840111640100000000831117156101e657600080fd5b9190808060200260200160405190810160405280939291908181526020016000905b82821015610249576040805160c081810190925290808402870190600690839083908082843760009201919091525050508152600190910190602001610208565b509396506103ed95505050505050565b005b34801561026757600080fd5b5061027061049a565b60408051918252519081900360200190f35b34801561028e57600080fd5b506102706104a0565b3480156102a357600080fd5b50610259600480360360208110156102ba57600080fd5b50356104a4565b3480156102cd57600080fd5b506102706104d8565b3480156102e257600080fd5b50610300600480360360208110156102f957600080fd5b50356104dc565b604080519115158252519081900360200190f35b60606000805480602002602001604051908101604052809291908181526020016000905b82821015610389576000848152602090206040805160c08101918290529160068581029091019182845b81548152602001906001019080831161036257505050505081526020019060010190610338565b5050505090505b90565b61039b610536565b60008054839081106103a957fe5b600091825260209091206040805160c0810191829052926006908102909201919082845b8154815260200190600101908083116103cd57505050505090505b919050565b805160408051828152602080840282010190915281801561042857816020015b610415610536565b81526020019060019003908161040d5790505b50805161043d91600091602090910190610555565b5060005b8181101561049557828181518110151561045757fe5b9060200190602002015160008281548110151561047057fe5b906000526020600020906006020190600661048c9291906105af565b50600101610441565b505050565b60005490565b4390565b6001805480820182556000919091527fb10e2d527612073b26eecdfd717e6a320cf44b4afac2b0732d9fcbe2b7fa0cf60155565b4290565b6000805b60015481101561051d57826001828154811015156104fa57fe5b906000526020600020015414156105155760019150506103e8565b6001016104e0565b60015481106105305760009150506103e8565b50919050565b60c0604051908101604052806006906020820280388339509192915050565b82805482825590600052602060002090600602810192821561059f579160200282015b8281111561059f57825161058f90839060066105af565b5091602001919060060190610578565b506105ab9291506105e9565b5090565b82600681019282156105dd579160200282015b828111156105dd5782518255916020019190600101906105c2565b506105ab92915061060c565b61039091905b808211156105ab5760006106038282610626565b506006016105ef565b61039091905b808211156105ab5760008155600101610612565b5061063590600681019061060c565b5056fea165627a7a72305820a2641cffe34b9bc9ea0a09771acf59240ccbfb76120273cb4b810c118bf273080029",
  "source": "// SPDX-License-Identifier: MIT\n// Solidity program to create a fixed-size array \npragma solidity >0.5.0;\n  \n// Creating a contract \ncontract TotoSlots {    \n    // Declaring state variables of type array        \n    uint[6][] private arr_data;        \n    uint256[] private arr_test;    \n    \n    // Function to add data in dynamic array test\n    function addData(uint256 num) public {        \n        arr_test.push(num);\n    }\n\n    // Function to search an element in dynamic array test\n    function search(uint256 num) view public returns(bool) {\n        uint i;        \n        for(i=0; i<arr_test.length; i++) {\n            if(arr_test[i] == num) {\n                return true;\n            }\n        }        \n        if(i >= arr_test.length)\n        return false;\n    } \n\n    // Function to store all data in dynamic array \n    function array_pushData(uint[6][] memory slotListNumbers) public { \n        // Dynamic array outright with its elements are arrays of fixed size\n        uint count = slotListNumbers.length;\n        arr_data = new uint[6][](count);        \n        for(uint idx=0; idx<count; idx++) { \n            arr_data[idx] = slotListNumbers[idx];           \n        }                                            \n    }          \n\n    // Function to get all data of dynamic array \n    function array_popAllData() view public returns(uint[6][] memory) {    \n        return arr_data;\n    }\n\n    // Defining a function to find the length of the array\n    function array_getLength() view public returns(uint256) {  \n        uint x = arr_data.length;\n        return x; \n    }  \n\n    // Return an array stored in the dynamic dimension will throw if index > flags.length-1 (index starts at 0)\n    function array_getArray(uint256 index) view public returns(uint[6] memory) {\n        return(arr_data[index]);\n    }   \n     \n    // Current block timestamp is returned by now (http://www.unixtimestamp.com/)\n    function time_Call() view public returns(uint256) {        \n        return block.timestamp;\n    }\n\n    // Block Number is returned using block.number\n    function block_Call() view public returns(uint256) {\n        return block.number; \n    }\n    \n}\n",
  "sourcePath": "/home/syoo/Documents/BlockChain/Eth_Toto_Board/contracts/TotoSlots.sol",
  "compiler": {
    "name": "solc",
    "version": "0.5.1+commit.c8a2cb62.Emscripten.clang"
  },
  "schemaVersion": "3.4.3",
  "updatedAt": "2021-10-20T05:42:55.263Z",
  "networkType": "ethereum",
  "devdoc": {
    "methods": {}
  },
  "userdoc": {
    "methods": {}
  }
}