{
  "contractName": "TotoSlotStructLib",
  "abi": [
    {
      "constant": true,
      "inputs": [
        {
          "name": "stringArgument",
          "type": "string"
        }
      ],
      "name": "isANonEmptyString",
      "outputs": [
        {
          "name": "",
          "type": "bool"
        }
      ],
      "payable": false,
      "stateMutability": "pure",
      "type": "function"
    },
    {
      "constant": true,
      "inputs": [
        {
          "name": "stringArgument",
          "type": "string"
        }
      ],
      "name": "isAnEmptyString",
      "outputs": [
        {
          "name": "",
          "type": "bool"
        }
      ],
      "payable": false,
      "stateMutability": "pure",
      "type": "function"
    },
    {
      "constant": true,
      "inputs": [
        {
          "name": "byteArgument",
          "type": "bytes"
        }
      ],
      "name": "isANonEmptyByteValue",
      "outputs": [
        {
          "name": "",
          "type": "bool"
        }
      ],
      "payable": false,
      "stateMutability": "pure",
      "type": "function"
    },
    {
      "constant": true,
      "inputs": [
        {
          "name": "addressArgument",
          "type": "address"
        }
      ],
      "name": "isAValidAddress",
      "outputs": [
        {
          "name": "",
          "type": "bool"
        }
      ],
      "payable": false,
      "stateMutability": "pure",
      "type": "function"
    },
    {
      "constant": true,
      "inputs": [
        {
          "name": "integerValue",
          "type": "uint256"
        }
      ],
      "name": "isAValidInteger",
      "outputs": [
        {
          "name": "",
          "type": "bool"
        }
      ],
      "payable": false,
      "stateMutability": "pure",
      "type": "function"
    },
    {
      "constant": true,
      "inputs": [
        {
          "name": "a",
          "type": "string"
        },
        {
          "name": "b",
          "type": "string"
        }
      ],
      "name": "hashCompareWithLengthCheck",
      "outputs": [
        {
          "name": "",
          "type": "bool"
        }
      ],
      "payable": false,
      "stateMutability": "pure",
      "type": "function"
    },
    {
      "constant": true,
      "inputs": [
        {
          "name": "a",
          "type": "string"
        }
      ],
      "name": "isATrueValue",
      "outputs": [
        {
          "name": "",
          "type": "bool"
        }
      ],
      "payable": false,
      "stateMutability": "pure",
      "type": "function"
    }
  ],
  "bytecode": "0x6104b1610030600b82828239805160001a6073146000811461002057610022565bfe5b5030600052607381538281f3fe7300000000000000000000000000000000000000003014608060405260043610610093577c01000000000000000000000000000000000000000000000000000000006000350463038e363e8114610098578063143e4c6e146100c157806322ae087d146100d457806345717f28146100e7578063585e5e51146100fa5780638301e9ca146100fa578063ffc492811461010d575b600080fd5b6100ab6100a6366004610331565b610120565b6040516100b89190610393565b60405180910390f35b6100ab6100cf36600461026d565b610126565b6100ab6100e2366004610293565b610141565b6100ab6100f53660046102c8565b610146565b6100ab610108366004610293565b6101b2565b6100ab61011b366004610293565b6101b9565b60001090565b73ffffffffffffffffffffffffffffffffffffffff16151590565b511590565b805182516000911461015a575060006101ac565b8160405160200161016b91906103a1565b604051602081830303815290604052805190602001208360405160200161019291906103a1565b604051602081830303815290604052805190602001201490505b92915050565b5160001090565b60006101ac826040805190810160405280600481526020017f7472756500000000000000000000000000000000000000000000000000000000815250610146565b60006102068235610423565b9392505050565b6000601f8201831361021e57600080fd5b813561023161022c826103d9565b6103b2565b9150808252602083016020830185838301111561024d57600080fd5b610258838284610431565b50505092915050565b6000610206823561042e565b60006020828403121561027f57600080fd5b600061028b84846101fa565b949350505050565b6000602082840312156102a557600080fd5b813567ffffffffffffffff8111156102bc57600080fd5b61028b8482850161020d565b600080604083850312156102db57600080fd5b823567ffffffffffffffff8111156102f257600080fd5b6102fe8582860161020d565b925050602083013567ffffffffffffffff81111561031b57600080fd5b6103278582860161020d565b9150509250929050565b60006020828403121561034357600080fd5b600061028b8484610261565b61035881610405565b82525050565b600061036982610401565b80845261037d81602086016020860161043d565b6103868161046d565b9093016020019392505050565b602081016101ac828461034f565b60208082528101610206818461035e565b60405181810167ffffffffffffffff811182821017156103d157600080fd5b604052919050565b600067ffffffffffffffff8211156103f057600080fd5b506020601f91909101601f19160190565b5190565b151590565b73ffffffffffffffffffffffffffffffffffffffff1690565b60006101ac8261040a565b90565b82818337506000910152565b60005b83811015610458578181015183820152602001610440565b83811115610467576000848401525b50505050565b601f01601f19169056fea265627a7a7230582088e04afd998c810c6bd5c4eec4421b4b52a6837dc70ad18bf05e778be962ac316c6578706572696d656e74616cf50037",
  "source": "// SPDX-License-Identifier: MIT\npragma solidity >0.5.0;\npragma experimental ABIEncoderV2;\n\nlibrary TotoSlotStructLib {\n\n    struct Issuer {        \n        address issuerAddress;        \n        uint256 createdAt;        \n    }\n    \n    // Defining our TotoSlotData struct\n    struct TotoSlotsData {        \n        // Declaring different structure elements\n        address issuerAddress;\n        string issuerEmail;\n        uint[6][] slotsData;        \n    }\n\n    function isANonEmptyString(string memory stringArgument) public pure returns(bool){\n        return bytes(stringArgument).length > 0;\n    }\n\n    function isAnEmptyString(string memory stringArgument) public pure returns(bool){\n        return bytes(stringArgument).length == 0;\n    }\n\n    function isANonEmptyByteValue(bytes memory byteArgument) public pure returns(bool){\n        return byteArgument.length > 0;\n    }\n\n    function isAValidAddress(address addressArgument) public pure returns(bool){\n        return addressArgument != address(0x0);\n    }\n\n    function isAValidInteger(uint integerValue) public pure returns(bool){\n        return integerValue > 0;\n    }     \n\n    function hashCompareWithLengthCheck(string memory a, string memory b) public pure returns (bool) {\n        if(bytes(a).length != bytes(b).length) {\n            return false;\n        } else {\n            return keccak256(abi.encode(a)) == keccak256(abi.encode(b));\n        }\n    }\n\n    function isATrueValue(string memory a) public pure returns (bool) {\n        return hashCompareWithLengthCheck(a, \"true\");\n    }\n\n}\n",
  "sourcePath": "/home/syoo/Documents/BlockChain/Eth_Toto_Board/contracts/interfaces/TotoSlotStructLib.sol",
  "compiler": {
    "name": "solc",
    "version": "0.5.1+commit.c8a2cb62.Emscripten.clang"
  },
  "schemaVersion": "3.4.3",
  "updatedAt": "2021-12-16T12:47:13.998Z",
  "devdoc": {
    "methods": {}
  },
  "userdoc": {
    "methods": {}
  }
}