{
  "contractName": "TotoSlots",
  "abi": [
    {
      "constant": true,
      "inputs": [
        {
          "name": "",
          "type": "address"
        }
      ],
      "name": "issuerMap",
      "outputs": [
        {
          "name": "issuerAddress",
          "type": "address"
        },
        {
          "name": "createdAt",
          "type": "uint256"
        }
      ],
      "payable": false,
      "stateMutability": "view",
      "type": "function"
    },
    {
      "constant": true,
      "inputs": [],
      "name": "owner",
      "outputs": [
        {
          "name": "",
          "type": "address"
        }
      ],
      "payable": false,
      "stateMutability": "view",
      "type": "function"
    },
    {
      "constant": true,
      "inputs": [
        {
          "name": "",
          "type": "uint256"
        }
      ],
      "name": "slotAccounts",
      "outputs": [
        {
          "name": "",
          "type": "address"
        }
      ],
      "payable": false,
      "stateMutability": "view",
      "type": "function"
    },
    {
      "constant": true,
      "inputs": [],
      "name": "getOwner",
      "outputs": [
        {
          "name": "",
          "type": "address"
        }
      ],
      "payable": false,
      "stateMutability": "view",
      "type": "function"
    },
    {
      "constant": false,
      "inputs": [
        {
          "name": "_address",
          "type": "address"
        },
        {
          "name": "_issuerEmail",
          "type": "string"
        },
        {
          "name": "_slotsData",
          "type": "uint256[6][]"
        }
      ],
      "name": "setTotoSlotsData",
      "outputs": [],
      "payable": false,
      "stateMutability": "nonpayable",
      "type": "function"
    },
    {
      "constant": true,
      "inputs": [],
      "name": "getSlotAccounts",
      "outputs": [
        {
          "name": "",
          "type": "address[]"
        }
      ],
      "payable": false,
      "stateMutability": "view",
      "type": "function"
    },
    {
      "constant": true,
      "inputs": [
        {
          "name": "_address",
          "type": "address"
        }
      ],
      "name": "getTotoSlotsData",
      "outputs": [
        {
          "name": "",
          "type": "address"
        },
        {
          "name": "",
          "type": "string"
        },
        {
          "name": "",
          "type": "uint256[6][]"
        }
      ],
      "payable": false,
      "stateMutability": "view",
      "type": "function"
    },
    {
      "constant": true,
      "inputs": [],
      "name": "countSlotAccounts",
      "outputs": [
        {
          "name": "",
          "type": "uint256"
        }
      ],
      "payable": false,
      "stateMutability": "view",
      "type": "function"
    },
    {
      "constant": true,
      "inputs": [],
      "name": "getslotAccountsAddress",
      "outputs": [
        {
          "name": "",
          "type": "address"
        }
      ],
      "payable": false,
      "stateMutability": "view",
      "type": "function"
    },
    {
      "constant": false,
      "inputs": [
        {
          "name": "num",
          "type": "uint256"
        }
      ],
      "name": "addData",
      "outputs": [],
      "payable": false,
      "stateMutability": "nonpayable",
      "type": "function"
    },
    {
      "constant": true,
      "inputs": [
        {
          "name": "num",
          "type": "uint256"
        }
      ],
      "name": "search",
      "outputs": [
        {
          "name": "",
          "type": "bool"
        }
      ],
      "payable": false,
      "stateMutability": "view",
      "type": "function"
    },
    {
      "constant": false,
      "inputs": [
        {
          "name": "slotListNumbers",
          "type": "uint256[6][]"
        }
      ],
      "name": "array_pushData",
      "outputs": [],
      "payable": false,
      "stateMutability": "nonpayable",
      "type": "function"
    },
    {
      "constant": true,
      "inputs": [],
      "name": "array_popAllData",
      "outputs": [
        {
          "name": "",
          "type": "uint256[6][]"
        }
      ],
      "payable": false,
      "stateMutability": "view",
      "type": "function"
    },
    {
      "constant": true,
      "inputs": [],
      "name": "array_getLength",
      "outputs": [
        {
          "name": "",
          "type": "uint256"
        }
      ],
      "payable": false,
      "stateMutability": "view",
      "type": "function"
    },
    {
      "constant": true,
      "inputs": [
        {
          "name": "index",
          "type": "uint256"
        }
      ],
      "name": "array_getArray",
      "outputs": [
        {
          "name": "",
          "type": "uint256[6]"
        }
      ],
      "payable": false,
      "stateMutability": "view",
      "type": "function"
    },
    {
      "constant": true,
      "inputs": [],
      "name": "time_Call",
      "outputs": [
        {
          "name": "",
          "type": "uint256"
        }
      ],
      "payable": false,
      "stateMutability": "view",
      "type": "function"
    },
    {
      "constant": true,
      "inputs": [],
      "name": "block_Call",
      "outputs": [
        {
          "name": "",
          "type": "uint256"
        }
      ],
      "payable": false,
      "stateMutability": "view",
      "type": "function"
    }
  ],
  "bytecode": "0x608060405234801561001057600080fd5b50610f06806100206000396000f3fe6080604052600436106100ea577c01000000000000000000000000000000000000000000000000000000006000350463150a9d7081146100ef578063260ac3b91461011657806331e6b3de1461019c578063356f4cd01461031a57806347824e131461037c5780634cd31a2c146104615780635bbdab1e146104b75780637fc5ddc1146104cc578063893d20e8146105315780638da5cb5b14610562578063c44c913e14610577578063d1a9d6391461058c578063e5d824a7146106b1578063f813ec1d146106db578063f86b8fdc14610705578063fc156fe01461071a578063fe38267414610758575b600080fd5b3480156100fb57600080fd5b5061010461076d565b60408051918252519081900360200190f35b34801561012257600080fd5b5061012b610774565b60405180806020018281038252838181518152602001915080516000925b8184101561018b5760208085028401015160c080838360005b8381101561017a578181015183820152602001610162565b505050509050019260010192610149565b925050509250505060405180910390f35b3480156101a857600080fd5b50610318600480360360608110156101bf57600080fd5b600160a060020a0382351691908101906040810160208201356401000000008111156101ea57600080fd5b8201836020820111156101fc57600080fd5b8035906020019184600183028401116401000000008311171561021e57600080fd5b91908080601f016020809104026020016040519081016040528093929190818152602001838380828437600092019190915250929594936020810193503591505064010000000081111561027157600080fd5b82018360208201111561028357600080fd5b803590602001918460c08302840111640100000000831117156102a557600080fd5b9190808060200260200160405190810160405280939291908181526020016000905b82821015610308576040805160c0818101909252908084028701906006908390839080828437600092019190915250505081526001909101906020016102c7565b509396506107f295505050505050565b005b34801561032657600080fd5b506103446004803603602081101561033d57600080fd5b50356109ac565b604051808260c080838360005b83811015610369578181015183820152602001610351565b5050505090500191505060405180910390f35b34801561038857600080fd5b506103186004803603602081101561039f57600080fd5b8101906020810181356401000000008111156103ba57600080fd5b8201836020820111156103cc57600080fd5b803590602001918460c08302840111640100000000831117156103ee57600080fd5b9190808060200260200160405190810160405280939291908181526020016000905b82821015610451576040805160c081810190925290808402870190600690839083908082843760009201919091525050508152600190910190602001610410565b50939650610a0695505050505050565b34801561046d57600080fd5b506104946004803603602081101561048457600080fd5b5035600160a060020a0316610ab3565b60408051600160a060020a03909316835260208301919091528051918290030190f35b3480156104c357600080fd5b50610104610ad8565b3480156104d857600080fd5b506104e1610ade565b60408051602080825283518183015283519192839290830191858101910280838360005b8381101561051d578181015183820152602001610505565b505050509050019250505060405180910390f35b34801561053d57600080fd5b50610546610b40565b60408051600160a060020a039092168252519081900360200190f35b34801561056e57600080fd5b50610546610b4f565b34801561058357600080fd5b50610104610b5e565b34801561059857600080fd5b506105bf600480360360208110156105af57600080fd5b5035600160a060020a0316610b62565b6040518084600160a060020a0316600160a060020a031681526020018060200180602001838103835285818151815260200191508051906020019080838360005b83811015610618578181015183820152602001610600565b50505050905090810190601f1680156106455780820380516001836020036101000a031916815260200191505b5083810382528451815284516000918691906020015b8184101561069d5760208085028401015160c080838360005b8381101561068c578181015183820152602001610674565b50505050905001926001019261065b565b925050509550505050505060405180910390f35b3480156106bd57600080fd5b50610318600480360360208110156106d457600080fd5b5035610cba565b3480156106e757600080fd5b50610546600480360360208110156106fe57600080fd5b5035610cef565b34801561071157600080fd5b50610104610d17565b34801561072657600080fd5b506107446004803603602081101561073d57600080fd5b5035610d1b565b604080519115158252519081900360200190f35b34801561076457600080fd5b50610546610d75565b6005545b90565b60606001805480602002602001604051908101604052809291908181526020016000905b828210156107e9576000848152602090206040805160c08101918290529160068581029091019182845b8154815260200190600101908083116107c257505050505081526020019060010190610798565b50505050905090565b6107fa610db1565b600160a060020a03848116600090815260046020908152604091829020825160608101845281549094168452600180820180548551600261010094831615949094026000190190911692909204601f81018590048502830185019095528482529193858401939192918301828280156108b45780601f10610889576101008083540402835291602001916108b4565b820191906000526020600020905b81548152906001019060200180831161089757829003601f168201915b5050505050815260200160028201805480602002602001604051908101604052809291908181526020016000905b82821015610933576000848152602090206040805160c08101918290529160068581029091019182845b81548152602001906001019080831161090c575050505050815260200190600101906108e2565b50505091525050600160a060020a03909416808552602085019390935250604090920191909152600580546001810182556000919091527f036b6384b5eca791c62761152d0c79bb0604c104a5fb6f4eb0703f3154bb3db001805473ffffffffffffffffffffffffffffffffffffffff19169091179055565b6109b4610ddc565b60018054839081106109c257fe5b600091825260209091206040805160c0810191829052926006908102909201919082845b8154815260200190600101908083116109e657505050505090505b919050565b8051604080518281526020808402820101909152818015610a4157816020015b610a2e610ddc565b815260200190600190039081610a265790505b508051610a5691600191602090910190610dfb565b5060005b81811015610aae578281815181101515610a7057fe5b90602001906020020151600182815481101515610a8957fe5b9060005260206000209060060201906006610aa5929190610e51565b50600101610a5a565b505050565b60036020526000908152604090208054600190910154600160a060020a039091169082565b60015490565b60606005805480602002602001604051908101604052809291908181526020018280548015610b3657602002820191906000526020600020905b8154600160a060020a03168152600190910190602001808311610b18575b5050505050905090565b600054600160a060020a031690565b600054600160a060020a031681565b4390565b600160a060020a0381811660009081526004602090815260408083208054600191820180548451600261010095831615959095026000190190911693909304601f8101869004860284018601909452838352949560609586959290911693859392830182828015610c145780601f10610be957610100808354040283529160200191610c14565b820191906000526020600020905b815481529060010190602001808311610bf757829003601f168201915b505050600160a060020a038916600090815260046020908152604080832060020180548251818502810185019093528083529697506060969195509350919084015b82821015610ca7576000848152602090206040805160c08101918290529160068581029091019182845b815481526020019060010190808311610c8057505050505081526020019060010190610c56565b50959a9499509197509295505050505050565b600280546001810182556000919091527f405787fa12a823e0f2b7631cc41b3ba8828b3321ca811111fa75cd3aa3bb5ace0155565b6005805482908110610cfd57fe5b600091825260209091200154600160a060020a0316905081565b4290565b6000805b600254811015610d5c5782600282815481101515610d3957fe5b90600052602060002001541415610d54576001915050610a01565b600101610d1f565b6002548110610d6f576000915050610a01565b50919050565b6000806005548111610dad576005805482908110610d8f57fe5b600091825260209091200154600160a060020a031691506107719050565b5090565b6060604051908101604052806000600160a060020a0316815260200160608152602001606081525090565b60c0604051908101604052806006906020820280388339509192915050565b828054828255906000526020600020906006028101928215610e45579160200282015b82811115610e45578251610e359083906006610e51565b5091602001919060060190610e1e565b50610dad929150610e8b565b8260068101928215610e7f579160200282015b82811115610e7f578251825591602001919060010190610e64565b50610dad929150610eae565b61077191905b80821115610dad576000610ea58282610ec8565b50600601610e91565b61077191905b80821115610dad5760008155600101610eb4565b50610ed7906006810190610eae565b5056fea165627a7a72305820c3b12ee4490b6147b6dd1c08cb0e6a25f9568f05c2d726f8265426f20fda377a0029",
  "source": "// https://github.com/kanthgithub/ticketbooking/tree/main/contracts\n// https://jeancvllr.medium.com/solidity-tutorial-all-about-structs-b3e7ca398b1e\n// SPDX-License-Identifier: MIT\npragma solidity >0.5.0;\n// pragma experimental ABIEncoderV2;\n// import \"./interfaces/TotoSlotStructLib.sol\";\n  \n// Creating a contract \ncontract TotoSlots {    \n\n    struct Issuer {        \n        address issuerAddress;        \n        uint256 createdAt;        \n    }\n\n    // Defining our TotoSlotData struct\n    struct TotoSlotsData {        \n        // Declaring different structure elements\n        address issuerAddress;\n        string issuerEmail;\n        uint[6][] slotsData;        \n    }\n\n    // Declaring state variables of a type of fixed-size array \n    address public owner;  \n    uint[6][] private arr_data;        \n    uint256[] private arr_test;    \n    \n    // // Storage variables for Issuers(issuerAddress -> Issuer)\n    mapping(address => Issuer) public issuerMap;\n\n    // Creating mapping    \n    mapping(address => TotoSlotsData) totoSlots;   \n    // mapping(address => Instructor) instructors; \n\n    // Save all the Slot‘s addresses who registered on a contract in an array.\n    address[] public slotAccounts;    \n    // TotoSlotStructLib.TotoSlotsData[] public slotAccounts;        \n\n    modifier onlyOwner {\n        require(msg.sender == owner, \"only Owner can invoke the function\");\n        _;\n    }\n\n    function getOwner() public view returns(address){\n        return owner;\n    }\n\n    modifier isIssuerAuthorised(address issuerAddress){\n        require(issuerMap[msg.sender].issuerAddress == issuerAddress , \"not Authorized to Invoke the function\");\n        _;\n    }\n    \n    // Function adding values to the mapping\n    function setTotoSlotsData(address _address, string memory _issuerEmail, uint[6][] memory _slotsData) public {        \n        // TotoSlotStructLib.TotoSlotsData memory newSlotData = TotoSlotStructLib.TotoSlotsData({\n        //     issuerAddress: _address,\n        //     issuerEmail: _issuerEmail,\n        //     slotsData: _slotsData           \n        // });\n \n        // // Create a request instance\n        // slotAccounts.push(newSlotData);    \n\n        TotoSlotsData memory newSlotData = totoSlots[_address];        \n        newSlotData.issuerAddress = _address;\n        newSlotData.issuerEmail = _issuerEmail;\n        newSlotData.slotsData = _slotsData;\n        \n        // Create a request instance        \n        slotAccounts.push(_address);                 \n    }\n\n    // function getTotoSlotIssuerDetails(address _issuerAddress) public view returns(TotoSlotStructLib.Issuer memory issuer){\n    //     require(doesIssuerExist(_issuerAddress), \"TotoSlotIssuer doesn't exist with this issuerAddress\");\n    //     return issuerMap[_issuerAddress];\n    // }\n\n    // function doesIssuerExist(address _issuerAddress) public view returns(bool){\n    //     require(TotoSlotStructLib.isAValidAddress(_issuerAddress), \"issuerAddress is Invalid\");\n    //     return issuerMap[_issuerAddress].createdAt > 0;\n    // }\n    \n\n    function getSlotAccounts() view public returns (address[] memory) {\n        return slotAccounts;\n    }\n\n    // Function to get all data of dynamic array \n    function getTotoSlotsData(address _address) view public returns (address, string memory, uint[6][] memory) { \n        address _issuerAddress = totoSlots[_address].issuerAddress;\n        string memory _issuerEmail = totoSlots[_address].issuerEmail;\n        uint[6][] memory _slotsData = totoSlots[_address].slotsData;\n             \n        return (_issuerAddress, _issuerEmail, _slotsData);\n    }    \n\n    // Counting from a Mapping\n    function countSlotAccounts() view public returns (uint) {\n        return slotAccounts.length;\n    }\n\n    function getslotAccountsAddress() view public returns (address) {         \n        for(uint i=0; i<=slotAccounts.length; i++){            \n            return slotAccounts[i];\n        }\n    }\n\n    // Function to add data in dynamic array test\n    function addData(uint256 num) public {        \n        arr_test.push(num);\n    }\n\n    // Function to search an element in dynamic array\n    function search(uint256 num) view public returns(bool) {\n        uint i;        \n        for(i=0; i<arr_test.length; i++) {\n            if(arr_test[i] == num) {\n                return true;\n            }\n        }        \n        if(i >= arr_test.length)\n        return false;\n    } \n\n    // Function to store all data in dynamic array \n    function array_pushData(uint[6][] memory slotListNumbers) public { \n        // Dynamic array outright with its elements are arrays of fixed size\n        uint count = slotListNumbers.length;\n        arr_data = new uint[6][](count);        \n        for(uint idx=0; idx<count; idx++) { \n            arr_data[idx] = slotListNumbers[idx];           \n        }                                            \n    }          \n\n    // Function to get all data of dynamic array \n    function array_popAllData() view public returns(uint[6][] memory) {    \n        return arr_data;\n    }\n\n    // Defining a function to find the length of the array\n    function array_getLength() view public returns(uint256) {  \n        uint x = arr_data.length;\n        return x; \n    }  \n\n    // Return an array stored in the dynamic dimension will throw if index > flags.length-1 (index starts at 0)\n    function array_getArray(uint256 index) view public returns(uint[6] memory) {\n        return(arr_data[index]);\n    }   \n     \n    // Current block timestamp is returned by now (http://www.unixtimestamp.com/)\n    function time_Call() view public returns(uint256) {        \n        return block.timestamp;\n    }\n\n    // Block Number is returned using block.number\n    function block_Call() view public returns(uint256) {\n        return block.number; \n    }\n    \n}\n",
  "sourcePath": "/home/syoo/Documents/BlockChain/Eth_Toto_Board/contracts/TotoSlots.sol",
  "compiler": {
    "name": "solc",
    "version": "0.5.1+commit.c8a2cb62.Emscripten.clang"
  },
  "schemaVersion": "3.4.3",
  "updatedAt": "2021-12-16T19:27:07.923Z",
  "networkType": "ethereum",
  "devdoc": {
    "methods": {}
  },
  "userdoc": {
    "methods": {}
  }
}