{
  "contractName": "TotoSlots",
  "abi": [
    {
      "constant": false,
      "inputs": [
        {
          "name": "inputArray",
          "type": "int256"
        }
      ],
      "name": "array_setData",
      "outputs": [],
      "payable": false,
      "stateMutability": "nonpayable",
      "type": "function"
    },
    {
      "constant": false,
      "inputs": [
        {
          "name": "num",
          "type": "int256"
        }
      ],
      "name": "addData",
      "outputs": [],
      "payable": false,
      "stateMutability": "nonpayable",
      "type": "function"
    },
    {
      "constant": true,
      "inputs": [],
      "name": "array_getData",
      "outputs": [
        {
          "name": "",
          "type": "int256[]"
        }
      ],
      "payable": false,
      "stateMutability": "view",
      "type": "function"
    },
    {
      "constant": false,
      "inputs": [],
      "name": "array_getElement",
      "outputs": [
        {
          "name": "",
          "type": "uint256"
        }
      ],
      "payable": true,
      "stateMutability": "payable",
      "type": "function"
    },
    {
      "constant": true,
      "inputs": [],
      "name": "array_getLength",
      "outputs": [
        {
          "name": "",
          "type": "uint256"
        }
      ],
      "payable": false,
      "stateMutability": "view",
      "type": "function"
    },
    {
      "constant": false,
      "inputs": [],
      "name": "array_addPush",
      "outputs": [
        {
          "name": "",
          "type": "uint256[]"
        }
      ],
      "payable": false,
      "stateMutability": "nonpayable",
      "type": "function"
    },
    {
      "constant": false,
      "inputs": [],
      "name": "array_pop",
      "outputs": [
        {
          "name": "",
          "type": "uint256[]"
        }
      ],
      "payable": false,
      "stateMutability": "nonpayable",
      "type": "function"
    }
  ],
  "bytecode": "0x610140604052600a6080908152601460a052601e60c052602860e052603261010052603c61012052610035906001906006610048565b5034801561004257600080fd5b506100b5565b828054828255906000526020600020908101928215610088579160200282015b82811115610088578251829060ff16905591602001919060010190610068565b50610094929150610098565b5090565b6100b291905b80821115610094576000815560010161009e565b90565b610359806100c46000396000f3fe60806040526004361061007c577c01000000000000000000000000000000000000000000000000000000006000350463100ec5b48114610081578063323352d6146100e6578063398552a814610112578063462f1255146100e65780634730b60a146101275780635bbdab1e1461013c578063c340e91f14610163575b600080fd5b34801561008d57600080fd5b5061009661016b565b60408051602080825283518183015283519192839290830191858101910280838360005b838110156100d25781810151838201526020016100ba565b505050509050019250505060405180910390f35b3480156100f257600080fd5b506101106004803603602081101561010957600080fd5b50356101c3565b005b34801561011e57600080fd5b506100966101f5565b34801561013357600080fd5b50610096610289565b34801561014857600080fd5b50610151610302565b60408051918252519081900360200190f35b610151610308565b606060008054806020026020016040519081016040528092919081815260200182805480156101b957602002820191906000526020600020905b8154815260200190600101908083116101a5575b5050505050905090565b600080546001810182559080527f290decd9548b62a8d60345a988386fc84ba6bc95484008f6362f93160ef3e5630155565b600180548082018255600082905260467fb10e2d527612073b26eecdfd717e6a320cf44b4afac2b0732d9fcbe2b7fa0cf691820155815480830183556050910155805460408051602083810282018101909252828152606093909290918301828280156101b957602002820191906000526020600020908154815260200190600101908083116101a5575050505050905090565b60606001805480151561029857fe5b6001900381819060005260206000200160009055905560018054806020026020016040519081016040528092919081815260200182805480156101b957602002820191906000526020600020908154815260200190600101908083116101a5575050505050905090565b60005490565b6000806001600281548110151561031b57fe5b6000918252602090912001549150509056fea165627a7a72305820bad29396a0a51f4e071078f51adbfcd9ff557233b06d13159d62b0605a4218340029",
  "source": "// SPDX-License-Identifier: MIT\n// Solidity program to create a fixed-size array \npragma solidity >0.5.0;\n  \n// Creating a contract \ncontract TotoSlots {  \n  \n    // Declaring state variables of type array        \n    // uint[6] private arr_data;    \n    int[] private arr_data;    \n    // Defining the array\n    uint[] data = [10, 20, 30, 40, 50, 60];     \n      \n    // // Defining function to add values to an array \n    // function array_setData() public returns (uint[6] memory){              \n    //     arr_data = [uint(10), 20, 30, 40, 50, 60];            \n    //     return arr_data;  \n    // }  \n\n    // Defining function to add values to an array \n    function array_setData(int inputArray) public {              \n        arr_data.push(inputArray);        \n    }      \n\n    // Function to add data in dynamic array \n    function addData(int num) public {\n        arr_data.push(num);\n    }\n\n    // Function to get data of dynamic array \n    // function array_getData() view public returns(uint[6] memory) {\n    function array_getData() view public returns(int[] memory) {\n        return arr_data;\n    }\n  \n    // Defining function to access values from the array from a specific index  \n    function array_getElement() public payable returns (uint){          \n        uint x = data[2];\n        return x;  \n    }  \n    \n    // Defining a function to find the length of the array\n    function array_getLength() view public returns(uint) {  \n        uint x = arr_data.length;\n        return x; \n    }     \n        \n    // Defining the function to push values to the array\n    function array_addPush() public returns(uint[] memory) {            \n        data.push(70);  \n        data.push(80);    \n        return data;  \n    }  \n    \n    // Defining a function to pop values from the array\n    function array_pop() public returns(uint[] memory) {  \n        data.pop(); \n        return data;  \n    }  \n    \n}\n",
  "sourcePath": "/home/syoo/Documents/BlockChain/Eth_Toto_Board/contracts/TotoSlots.sol",
  "compiler": {
    "name": "solc",
    "version": "0.5.1+commit.c8a2cb62.Emscripten.clang"
  },
  "schemaVersion": "3.4.3",
  "updatedAt": "2021-10-02T18:06:17.067Z",
  "networkType": "ethereum",
  "devdoc": {
    "methods": {}
  },
  "userdoc": {
    "methods": {}
  }
}