{
  "contractName": "TotoSlots",
  "abi": [
    {
      "constant": false,
      "inputs": [
        {
          "name": "slotListNumbers",
          "type": "uint256[6][]"
        }
      ],
      "name": "array_pushData",
      "outputs": [],
      "payable": false,
      "stateMutability": "nonpayable",
      "type": "function"
    },
    {
      "constant": true,
      "inputs": [],
      "name": "array_popAllData",
      "outputs": [
        {
          "name": "",
          "type": "uint256[6][]"
        }
      ],
      "payable": false,
      "stateMutability": "view",
      "type": "function"
    },
    {
      "constant": true,
      "inputs": [],
      "name": "array_getLength",
      "outputs": [
        {
          "name": "",
          "type": "uint256"
        }
      ],
      "payable": false,
      "stateMutability": "view",
      "type": "function"
    },
    {
      "constant": true,
      "inputs": [
        {
          "name": "index",
          "type": "uint256"
        }
      ],
      "name": "array_getArray",
      "outputs": [
        {
          "name": "",
          "type": "uint256[6]"
        }
      ],
      "payable": false,
      "stateMutability": "view",
      "type": "function"
    },
    {
      "constant": true,
      "inputs": [],
      "name": "time_Call",
      "outputs": [
        {
          "name": "",
          "type": "uint256"
        }
      ],
      "payable": false,
      "stateMutability": "view",
      "type": "function"
    },
    {
      "constant": true,
      "inputs": [],
      "name": "block_Call",
      "outputs": [
        {
          "name": "",
          "type": "uint256"
        }
      ],
      "payable": false,
      "stateMutability": "view",
      "type": "function"
    }
  ],
  "bytecode": "0x608060405234801561001057600080fd5b50610557806100206000396000f3fe608060405260043610610071577c01000000000000000000000000000000000000000000000000000000006000350463260ac3b98114610076578063356f4cd0146100fc57806347824e131461015e5780635bbdab1e14610245578063c44c913e1461026c578063f86b8fdc14610281575b600080fd5b34801561008257600080fd5b5061008b610296565b60405180806020018281038252838181518152602001915080516000925b818410156100eb5760208085028401015160c080838360005b838110156100da5781810151838201526020016100c2565b5050505090500192600101926100a9565b925050509250505060405180910390f35b34801561010857600080fd5b506101266004803603602081101561011f57600080fd5b5035610315565b604051808260c080838360005b8381101561014b578181015183820152602001610133565b5050505090500191505060405180910390f35b34801561016a57600080fd5b506102436004803603602081101561018157600080fd5b81019060208101813564010000000081111561019c57600080fd5b8201836020820111156101ae57600080fd5b803590602001918460c08302840111640100000000831117156101d057600080fd5b9190808060200260200160405190810160405280939291908181526020016000905b82821015610233576040805160c0818101909252908084028701906006908390839080828437600092019190915250505081526001909101906020016101f2565b5093965061036e95505050505050565b005b34801561025157600080fd5b5061025a61041b565b60408051918252519081900360200190f35b34801561027857600080fd5b5061025a610421565b34801561028d57600080fd5b5061025a610425565b60606000805480602002602001604051908101604052809291908181526020016000905b8282101561030b576000848152602090206040805160c08101918290529160068581029091019182845b8154815260200190600101908083116102e4575050505050815260200190600101906102ba565b5050505090505b90565b61031d610429565b600080548390811061032b57fe5b600091825260209091206040805160c0810191829052926006908102909201919082845b81548152602001906001019080831161034f5750505050509050919050565b80516040805182815260208084028201019091528180156103a957816020015b610396610429565b81526020019060019003908161038e5790505b5080516103be91600091602090910190610448565b5060005b818110156104165782818151811015156103d857fe5b906020019060200201516000828154811015156103f157fe5b906000526020600020906006020190600661040d9291906104a2565b506001016103c2565b505050565b60005490565b4390565b4290565b60c0604051908101604052806006906020820280388339509192915050565b828054828255906000526020600020906006028101928215610492579160200282015b8281111561049257825161048290839060066104a2565b509160200191906006019061046b565b5061049e9291506104dc565b5090565b82600681019282156104d0579160200282015b828111156104d05782518255916020019190600101906104b5565b5061049e9291506104ff565b61031291905b8082111561049e5760006104f68282610519565b506006016104e2565b61031291905b8082111561049e5760008155600101610505565b506105289060068101906104ff565b5056fea165627a7a723058204438fa07dbfc176432ad7a0420864fa693e3e4afe860011858ebec97cc9b57620029",
  "source": "// SPDX-License-Identifier: MIT\n// Solidity program to create a fixed-size array \npragma solidity >0.5.0;\n  \n// Creating a contract \ncontract TotoSlots {    \n    // Declaring state variables of type array\n    // uint[6][] private slotListNumbers;\n    uint[6][] private arr_data;        \n\n    // Function to add data in dynamic array \n    // function array_pushData(uint count, uint arr0, uint arr1, uint arr2, uint arr3, uint arr4, uint arr5) public { \n    //     // Single Array to store all sub-arrays\n    //     // arr_data = new uint[6][];\n    //     // arr_data.push([arr0, arr1, arr2, arr3, arr4, arr5]);        \n        \n    //     // Dynamic array outright with its elements are arrays of fixed size                \n    //     arr_data = new uint[6][](count);        \n    //     for(uint idx=0; idx<count; idx++) {                                \n    //         arr_data[idx] = [arr0, arr1, arr2, arr3, arr4, arr5];             \n    //     }                        \n    // } \n\n    function array_pushData(uint[6][] memory slotListNumbers) public { \n    // function array_pushData(uint arr0, uint arr1, uint arr2, uint arr3, uint arr4, uint arr5) public returns(uint[6][] memory values) {\n        // Single Array to store all sub-arrays\n        // slotListNumbers = new uint[6][];\n        // slotListNumbers.push([arr0, arr1, arr2, arr3, arr4, arr5]);                \n        \n        // Dynamic array outright with its elements are arrays of fixed size\n        uint count = slotListNumbers.length;\n        arr_data = new uint[6][](count);        \n        for(uint idx=0; idx<count; idx++) { \n            arr_data[idx] = slotListNumbers[idx];           \n        }                                    \n        // delete arr_data;          \n    }          \n\n    // Function to get all data of dynamic array \n    function array_popAllData() view public returns(uint[6][] memory) {    \n        return arr_data;\n    }\n\n    // Defining a function to find the length of the array\n    function array_getLength() view public returns(uint) {  \n        uint x = arr_data.length;\n        return x; \n    }  \n\n    // Return an array stored in the dynamic dimension will throw if index > flags.length-1 (index starts at 0)\n    function array_getArray(uint index) view public returns(uint[6] memory) {\n        return(arr_data[index]);\n    }   \n     \n    // Current block timestamp is returned by now (http://www.unixtimestamp.com/)\n    function time_Call() view public returns(uint256) {        \n        return block.timestamp;\n    }\n\n    // Block Number is returned using block.number\n    function block_Call() view public returns(uint256) {\n        return block.number; \n    }\n    \n}\n",
  "sourcePath": "/home/syoo/Documents/BlockChain/Eth_Toto_Board/contracts/TotoSlots.sol",
  "compiler": {
    "name": "solc",
    "version": "0.5.1+commit.c8a2cb62.Emscripten.clang"
  },
  "schemaVersion": "3.4.3",
  "updatedAt": "2021-10-10T18:26:13.553Z",
  "networkType": "ethereum",
  "devdoc": {
    "methods": {}
  },
  "userdoc": {
    "methods": {}
  }
}