{
  "contractName": "TotoSlots",
  "abi": [
    {
      "constant": false,
      "inputs": [
        {
          "name": "arr1",
          "type": "uint256"
        },
        {
          "name": "arr2",
          "type": "uint256"
        },
        {
          "name": "arr3",
          "type": "uint256"
        },
        {
          "name": "arr4",
          "type": "uint256"
        },
        {
          "name": "arr5",
          "type": "uint256"
        },
        {
          "name": "arr6",
          "type": "uint256"
        }
      ],
      "name": "array_pushData",
      "outputs": [],
      "payable": false,
      "stateMutability": "nonpayable",
      "type": "function"
    },
    {
      "constant": true,
      "inputs": [],
      "name": "array_popData",
      "outputs": [
        {
          "name": "",
          "type": "uint256[6][]"
        }
      ],
      "payable": false,
      "stateMutability": "view",
      "type": "function"
    },
    {
      "constant": true,
      "inputs": [],
      "name": "array_getLength",
      "outputs": [
        {
          "name": "",
          "type": "uint256"
        }
      ],
      "payable": false,
      "stateMutability": "view",
      "type": "function"
    },
    {
      "constant": true,
      "inputs": [
        {
          "name": "index",
          "type": "uint256"
        }
      ],
      "name": "getArrays",
      "outputs": [
        {
          "name": "",
          "type": "uint256[6]"
        }
      ],
      "payable": false,
      "stateMutability": "view",
      "type": "function"
    },
    {
      "constant": false,
      "inputs": [],
      "name": "array_getElement",
      "outputs": [
        {
          "name": "",
          "type": "uint256"
        }
      ],
      "payable": true,
      "stateMutability": "payable",
      "type": "function"
    },
    {
      "constant": false,
      "inputs": [],
      "name": "array_addPush",
      "outputs": [
        {
          "name": "",
          "type": "uint256[]"
        }
      ],
      "payable": false,
      "stateMutability": "nonpayable",
      "type": "function"
    },
    {
      "constant": false,
      "inputs": [],
      "name": "array_pop",
      "outputs": [
        {
          "name": "",
          "type": "uint256[]"
        }
      ],
      "payable": false,
      "stateMutability": "nonpayable",
      "type": "function"
    }
  ],
  "bytecode": "0x610140604052600a6080908152601460a052601e60c052602860e052603261010052603c61012052610035906001906006610048565b5034801561004257600080fd5b506100b5565b828054828255906000526020600020908101928215610088579160200282015b82811115610088578251829060ff16905591602001919060010190610068565b50610094929150610098565b5090565b6100b291905b80821115610094576000815560010161009e565b90565b61058c806100c46000396000f3fe60806040526004361061007c577c01000000000000000000000000000000000000000000000000000000006000350463398552a881146100815780634730b60a146100e65780635ad49ab3146100fb5780635bbdab1e14610145578063985b039b1461016c578063c340e91f146101f2578063dff6c3c4146101fa575b600080fd5b34801561008d57600080fd5b5061009661025c565b60408051602080825283518183015283519192839290830191858101910280838360005b838110156100d25781810151838201526020016100ba565b505050509050019250505060405180910390f35b3480156100f257600080fd5b506100966102f3565b34801561010757600080fd5b50610143600480360360c081101561011e57600080fd5b5080359060208101359060408101359060608101359060808101359060a0013561036c565b005b34801561015157600080fd5b5061015a6103e7565b60408051918252519081900360200190f35b34801561017857600080fd5b506101816103ed565b60405180806020018281038252838181518152602001915080516000925b818410156101e15760208085028401015160c080838360005b838110156101d05781810151838201526020016101b8565b50505050905001926001019261019f565b925050509250505060405180910390f35b61015a61046b565b34801561020657600080fd5b506102246004803603602081101561021d57600080fd5b5035610490565b604051808260c080838360005b83811015610249578181015183820152602001610231565b5050505090500191505060405180910390f35b600180548082018255600082905260467fb10e2d527612073b26eecdfd717e6a320cf44b4afac2b0732d9fcbe2b7fa0cf691820155815480830183556050910155805460408051602083810282018101909252828152606093909290918301828280156102e857602002820191906000526020600020905b8154815260200190600101908083116102d4575b505050505090505b90565b60606001805480151561030257fe5b6001900381819060005260206000200160009055905560018054806020026020016040519081016040528092919081815260200182805480156102e857602002820191906000526020600020908154815260200190600101908083116102d4575050505050905090565b6040805160c08101825287815260208101879052908101859052606081018490526080810183905260a08101829052600080546001810180835591805290916103dd9160069081027f290decd9548b62a8d60345a988386fc84ba6bc95484008f6362f93160ef3e5630191906104e9565b5050505050505050565b60005490565b60606000805480602002602001604051908101604052809291908181526020016000905b82821015610462576000848152602090206040805160c08101918290529160068581029091019182845b81548152602001906001019080831161043b57505050505081526020019060010190610411565b50505050905090565b6000806001600281548110151561047e57fe5b60009182526020909120015491505090565b610498610527565b60008054839081106104a657fe5b600091825260209091206040805160c0810191829052926006908102909201919082845b8154815260200190600101908083116104ca5750505050509050919050565b8260068101928215610517579160200282015b828111156105175782518255916020019190600101906104fc565b50610523929150610546565b5090565b60c0604051908101604052806006906020820280388339509192915050565b6102f091905b80821115610523576000815560010161054c56fea165627a7a723058203a50c7a7e5ad8bf5632ff4d4273219820d8f8b38f5def20cf432830d19f0bc4e0029",
  "source": "// SPDX-License-Identifier: MIT\n// Solidity program to create a fixed-size array \npragma solidity >0.5.0;\n  \n// Creating a contract \ncontract TotoSlots {  \n  \n    // Declaring state variables of type array        \n    // uint[6] private arr_data; \n    uint[6][] private arr_data;\n    // Defining the array\n    uint[] data = [10, 20, 30, 40, 50, 60];     \n      \n    // // Defining function to add values to an array \n    // function array_setData() public returns (uint[6] memory){              \n    //     arr_data = [uint(10), 20, 30, 40, 50, 60];            \n    //     return arr_data;  \n    // }  \n\n    // Function to add data in dynamic array \n    function array_pushData(uint arr1, uint arr2, uint arr3, uint arr4, uint arr5, uint arr6) public {                        \n        arr_data.push([arr1, arr2, arr3, arr4, arr5, arr6]); \n        // arr_data.push([1,2,3,4,5,6]); \n        // arr_data.push([11,12,13,14,15,16]); \n        // arr_data.push([21,22,23,24,25,26]); \n    }      \n\n    // Function to get data of dynamic array \n    function array_popData() view public returns(uint[6][] memory) {    \n        return arr_data;\n    }\n\n    // Defining a function to find the length of the array\n    function array_getLength() view public returns(uint) {  \n        uint x = arr_data.length;\n        return x; \n    }  \n\n     // return a length 2 array stored in the dynamic dimension\n    // will throw if index > flags.length-1 (index starts at 0)\n    function getArrays(uint index) view public returns(uint[6] memory) {\n        return(arr_data[index]);\n    }\n  \n    // Defining function to access values from the array from a specific index  \n    function array_getElement() public payable returns (uint){          \n        uint x = data[2];\n        return x;  \n    }  \n        \n    // Defining the function to push values to the array\n    function array_addPush() public returns(uint[] memory) {            \n        data.push(70);  \n        data.push(80);    \n        return data;  \n    }  \n    \n    // Defining a function to pop values from the array\n    function array_pop() public returns(uint[] memory) {  \n        data.pop(); \n        return data;  \n    }  \n    \n}\n",
  "sourcePath": "/home/syoo/Documents/BlockChain/Eth_Toto_Board/contracts/TotoSlots.sol",
  "compiler": {
    "name": "solc",
    "version": "0.5.1+commit.c8a2cb62.Emscripten.clang"
  },
  "schemaVersion": "3.4.3",
  "updatedAt": "2021-10-03T06:18:04.325Z",
  "networkType": "ethereum",
  "devdoc": {
    "methods": {}
  },
  "userdoc": {
    "methods": {}
  }
}