{
  "contractName": "TotoSlots",
  "abi": [
    {
      "constant": false,
      "inputs": [
        {
          "name": "arr1",
          "type": "uint256"
        },
        {
          "name": "arr2",
          "type": "uint256"
        },
        {
          "name": "arr3",
          "type": "uint256"
        },
        {
          "name": "arr4",
          "type": "uint256"
        },
        {
          "name": "arr5",
          "type": "uint256"
        },
        {
          "name": "arr6",
          "type": "uint256"
        }
      ],
      "name": "array_pushData",
      "outputs": [],
      "payable": false,
      "stateMutability": "nonpayable",
      "type": "function"
    },
    {
      "constant": true,
      "inputs": [],
      "name": "array_popAllData",
      "outputs": [
        {
          "name": "",
          "type": "uint256[6][]"
        }
      ],
      "payable": false,
      "stateMutability": "view",
      "type": "function"
    },
    {
      "constant": true,
      "inputs": [],
      "name": "array_getLength",
      "outputs": [
        {
          "name": "",
          "type": "uint256"
        }
      ],
      "payable": false,
      "stateMutability": "view",
      "type": "function"
    },
    {
      "constant": true,
      "inputs": [
        {
          "name": "index",
          "type": "uint256"
        }
      ],
      "name": "array_getArray",
      "outputs": [
        {
          "name": "",
          "type": "uint256[6]"
        }
      ],
      "payable": false,
      "stateMutability": "view",
      "type": "function"
    }
  ],
  "bytecode": "0x608060405234801561001057600080fd5b506103b5806100206000396000f3fe60806040526004361061005b577c01000000000000000000000000000000000000000000000000000000006000350463260ac3b98114610060578063356f4cd0146100e65780635ad49ab3146101485780635bbdab1e14610192575b600080fd5b34801561006c57600080fd5b506100756101b9565b60405180806020018281038252838181518152602001915080516000925b818410156100d55760208085028401015160c080838360005b838110156100c45781810151838201526020016100ac565b505050509050019260010192610093565b925050509250505060405180910390f35b3480156100f257600080fd5b506101106004803603602081101561010957600080fd5b5035610238565b604051808260c080838360005b8381101561013557818101518382015260200161011d565b5050505090500191505060405180910390f35b34801561015457600080fd5b50610190600480360360c081101561016b57600080fd5b5080359060208101359060408101359060608101359060808101359060a00135610291565b005b34801561019e57600080fd5b506101a761030c565b60408051918252519081900360200190f35b60606000805480602002602001604051908101604052809291908181526020016000905b8282101561022e576000848152602090206040805160c08101918290529160068581029091019182845b815481526020019060010190808311610207575050505050815260200190600101906101dd565b5050505090505b90565b610240610312565b600080548390811061024e57fe5b600091825260209091206040805160c0810191829052926006908102909201919082845b8154815260200190600101908083116102725750505050509050919050565b6040805160c08101825287815260208101879052908101859052606081018490526080810183905260a08101829052600080546001810180835591805290916103029160069081027f290decd9548b62a8d60345a988386fc84ba6bc95484008f6362f93160ef3e563019190610331565b5050505050505050565b60005490565b60c0604051908101604052806006906020820280388339509192915050565b826006810192821561035f579160200282015b8281111561035f578251825591602001919060010190610344565b5061036b92915061036f565b5090565b61023591905b8082111561036b576000815560010161037556fea165627a7a72305820ff0cf6ff19ee1a18dc907669c83de18bc3ab4c83f1736039462155a12a7734940029",
  "source": "// SPDX-License-Identifier: MIT\n// Solidity program to create a fixed-size array \npragma solidity >0.5.0;\n  \n// Creating a contract \ncontract TotoSlots {  \n  \n    // Declaring state variables of type array            \n    uint[6][] private arr_data;    \n      \n    // Function to add data in dynamic array \n    function array_pushData(uint arr1, uint arr2, uint arr3, uint arr4, uint arr5, uint arr6) public {                        \n        arr_data.push([arr1, arr2, arr3, arr4, arr5, arr6]); \n    }      \n\n    // Function to get all data of dynamic array \n    function array_popAllData() view public returns(uint[6][] memory) {    \n        return arr_data;\n    }\n\n    // Defining a function to find the length of the array\n    function array_getLength() view public returns(uint) {  \n        uint x = arr_data.length;\n        return x; \n    }  \n\n    // Return an array stored in the dynamic dimension will throw if index > flags.length-1 (index starts at 0)\n    function array_getArray(uint index) view public returns(uint[6] memory) {\n        return(arr_data[index]);\n    }    \n    \n}\n",
  "sourcePath": "/home/syoo/Documents/BlockChain/Eth_Toto_Board/contracts/TotoSlots.sol",
  "compiler": {
    "name": "solc",
    "version": "0.5.1+commit.c8a2cb62.Emscripten.clang"
  },
  "schemaVersion": "3.4.3",
  "updatedAt": "2021-10-04T18:36:53.266Z",
  "networkType": "ethereum",
  "devdoc": {
    "methods": {}
  },
  "userdoc": {
    "methods": {}
  }
}