{
  "contractName": "TotoSlots",
  "abi": [
    {
      "constant": true,
      "inputs": [
        {
          "name": "",
          "type": "uint256"
        }
      ],
      "name": "slotAccounts",
      "outputs": [
        {
          "name": "",
          "type": "address"
        }
      ],
      "payable": false,
      "stateMutability": "view",
      "type": "function"
    },
    {
      "constant": true,
      "inputs": [],
      "name": "getOwner",
      "outputs": [
        {
          "name": "",
          "type": "address"
        }
      ],
      "payable": false,
      "stateMutability": "view",
      "type": "function"
    },
    {
      "constant": false,
      "inputs": [
        {
          "name": "_address",
          "type": "address"
        },
        {
          "name": "_issuerUID",
          "type": "string"
        },
        {
          "name": "_issuerName",
          "type": "string"
        },
        {
          "name": "_issuerEmail",
          "type": "string"
        },
        {
          "name": "_slotsData",
          "type": "uint256[6][]"
        }
      ],
      "name": "setTotoSlotsData",
      "outputs": [],
      "payable": false,
      "stateMutability": "nonpayable",
      "type": "function"
    },
    {
      "constant": true,
      "inputs": [
        {
          "name": "_inputAddress",
          "type": "address"
        }
      ],
      "name": "getTotoSlotsData",
      "outputs": [
        {
          "name": "",
          "type": "address"
        },
        {
          "name": "",
          "type": "string"
        },
        {
          "name": "",
          "type": "string"
        },
        {
          "name": "",
          "type": "string"
        },
        {
          "name": "",
          "type": "uint256[6][]"
        },
        {
          "name": "",
          "type": "uint256"
        }
      ],
      "payable": false,
      "stateMutability": "view",
      "type": "function"
    },
    {
      "constant": true,
      "inputs": [],
      "name": "countSlotAccounts",
      "outputs": [
        {
          "name": "",
          "type": "uint256"
        }
      ],
      "payable": false,
      "stateMutability": "view",
      "type": "function"
    },
    {
      "constant": true,
      "inputs": [],
      "name": "getSlotAccounts",
      "outputs": [
        {
          "name": "",
          "type": "address[]"
        }
      ],
      "payable": false,
      "stateMutability": "view",
      "type": "function"
    },
    {
      "constant": false,
      "inputs": [
        {
          "name": "num",
          "type": "uint256"
        }
      ],
      "name": "addData",
      "outputs": [],
      "payable": false,
      "stateMutability": "nonpayable",
      "type": "function"
    },
    {
      "constant": true,
      "inputs": [
        {
          "name": "num",
          "type": "uint256"
        }
      ],
      "name": "search",
      "outputs": [
        {
          "name": "",
          "type": "bool"
        }
      ],
      "payable": false,
      "stateMutability": "view",
      "type": "function"
    },
    {
      "constant": false,
      "inputs": [
        {
          "name": "slotListNumbers",
          "type": "uint256[6][]"
        }
      ],
      "name": "array_pushData",
      "outputs": [],
      "payable": false,
      "stateMutability": "nonpayable",
      "type": "function"
    },
    {
      "constant": true,
      "inputs": [],
      "name": "array_popAllData",
      "outputs": [
        {
          "name": "",
          "type": "uint256[6][]"
        }
      ],
      "payable": false,
      "stateMutability": "view",
      "type": "function"
    },
    {
      "constant": true,
      "inputs": [],
      "name": "array_getLength",
      "outputs": [
        {
          "name": "",
          "type": "uint256"
        }
      ],
      "payable": false,
      "stateMutability": "view",
      "type": "function"
    },
    {
      "constant": true,
      "inputs": [
        {
          "name": "index",
          "type": "uint256"
        }
      ],
      "name": "array_getArray",
      "outputs": [
        {
          "name": "",
          "type": "uint256[6]"
        }
      ],
      "payable": false,
      "stateMutability": "view",
      "type": "function"
    },
    {
      "constant": true,
      "inputs": [],
      "name": "time_Call",
      "outputs": [
        {
          "name": "",
          "type": "uint256"
        }
      ],
      "payable": false,
      "stateMutability": "view",
      "type": "function"
    },
    {
      "constant": true,
      "inputs": [],
      "name": "block_Call",
      "outputs": [
        {
          "name": "",
          "type": "uint256"
        }
      ],
      "payable": false,
      "stateMutability": "view",
      "type": "function"
    }
  ],
  "bytecode": "0x608060405234801561001057600080fd5b50611186806100206000396000f3fe6080604052600436106100c9577c01000000000000000000000000000000000000000000000000000000006000350463150a9d7081146100ce578063260ac3b9146100f5578063356f4cd01461017b57806347824e13146101dd5780635bbdab1e146102c45780637fc5ddc1146102d9578063893d20e81461033e578063c44c913e1461036f578063d1a9d63914610384578063d8c84a241461057c578063e5d824a714610806578063f813ec1d14610830578063f86b8fdc1461085a578063fc156fe01461086f575b600080fd5b3480156100da57600080fd5b506100e36108ad565b60408051918252519081900360200190f35b34801561010157600080fd5b5061010a6108b4565b60405180806020018281038252838181518152602001915080516000925b8184101561016a5760208085028401015160c080838360005b83811015610159578181015183820152602001610141565b505050509050019260010192610128565b925050509250505060405180910390f35b34801561018757600080fd5b506101a56004803603602081101561019e57600080fd5b5035610932565b604051808260c080838360005b838110156101ca5781810151838201526020016101b2565b5050505090500191505060405180910390f35b3480156101e957600080fd5b506102c26004803603602081101561020057600080fd5b81019060208101813564010000000081111561021b57600080fd5b82018360208201111561022d57600080fd5b803590602001918460c083028401116401000000008311171561024f57600080fd5b9190808060200260200160405190810160405280939291908181526020016000905b828210156102b2576040805160c081810190925290808402870190600690839083908082843760009201919091525050508152600190910190602001610271565b5093965061098c95505050505050565b005b3480156102d057600080fd5b506100e3610a39565b3480156102e557600080fd5b506102ee610a3f565b60408051602080825283518183015283519192839290830191858101910280838360005b8381101561032a578181015183820152602001610312565b505050509050019250505060405180910390f35b34801561034a57600080fd5b50610353610aa1565b60408051600160a060020a039092168252519081900360200190f35b34801561037b57600080fd5b506100e3610ab0565b34801561039057600080fd5b506103b7600480360360208110156103a757600080fd5b5035600160a060020a0316610ab4565b6040518087600160a060020a0316600160a060020a031681526020018060200180602001806020018060200186815260200185810385528a818151815260200191508051906020019080838360005b8381101561041e578181015183820152602001610406565b50505050905090810190601f16801561044b5780820380516001836020036101000a031916815260200191505b5085810384528951815289516020918201918b019080838360005b8381101561047e578181015183820152602001610466565b50505050905090810190601f1680156104ab5780820380516001836020036101000a031916815260200191505b5085810383528851815288516020918201918a019080838360005b838110156104de5781810151838201526020016104c6565b50505050905090810190601f16801561050b5780820380516001836020036101000a031916815260200191505b5085810382528751815287516000918991906020015b818410156105635760208085028401015160c080838360005b8381101561055257818101518382015260200161053a565b505050509050019260010192610521565b925050509a505050505050505050505060405180910390f35b34801561058857600080fd5b506102c2600480360360a081101561059f57600080fd5b600160a060020a0382351691908101906040810160208201356401000000008111156105ca57600080fd5b8201836020820111156105dc57600080fd5b803590602001918460018302840111640100000000831117156105fe57600080fd5b91908080601f016020809104026020016040519081016040528093929190818152602001838380828437600092019190915250929594936020810193503591505064010000000081111561065157600080fd5b82018360208201111561066357600080fd5b8035906020019184600183028401116401000000008311171561068557600080fd5b91908080601f01602080910402602001604051908101604052809392919081815260200183838082843760009201919091525092959493602081019350359150506401000000008111156106d857600080fd5b8201836020820111156106ea57600080fd5b8035906020019184600183028401116401000000008311171561070c57600080fd5b91908080601f016020809104026020016040519081016040528093929190818152602001838380828437600092019190915250929594936020810193503591505064010000000081111561075f57600080fd5b82018360208201111561077157600080fd5b803590602001918460c083028401116401000000008311171561079357600080fd5b9190808060200260200160405190810160405280939291908181526020016000905b828210156107f6576040805160c0818101909252908084028701906006908390839080828437600092019190915250505081526001909101906020016107b5565b50939650610da095505050505050565b34801561081257600080fd5b506102c26004803603602081101561082957600080fd5b5035610ee6565b34801561083c57600080fd5b506103536004803603602081101561085357600080fd5b5035610f1b565b34801561086657600080fd5b506100e3610f43565b34801561087b57600080fd5b506108996004803603602081101561089257600080fd5b5035610f47565b604080519115158252519081900360200190f35b6005545b90565b60606001805480602002602001604051908101604052809291908181526020016000905b82821015610929576000848152602090206040805160c08101918290529160068581029091019182845b815481526020019060010190808311610902575050505050815260200190600101906108d8565b50505050905090565b61093a610fa1565b600180548390811061094857fe5b600091825260209091206040805160c0810191829052926006908102909201919082845b81548152602001906001019080831161096c57505050505090505b919050565b80516040805182815260208084028201019091528180156109c757816020015b6109b4610fa1565b8152602001906001900390816109ac5790505b5080516109dc91600191602090910190610fc0565b5060005b81811015610a345782818151811015156109f657fe5b90602001906020020151600182815481101515610a0f57fe5b9060005260206000209060060201906006610a2b92919061101a565b506001016109e0565b505050565b60015490565b60606005805480602002602001604051908101604052809291908181526020018280548015610a9757602002820191906000526020600020905b8154600160a060020a03168152600190910190602001808311610a79575b5050505050905090565b600054600160a060020a031690565b4390565b600160a060020a0381811660009081526004602090815260408083208054600191820180548451600261010095831615959095026000190190911693909304601f810186900486028401860190945283835294956060958695869586958a959094169386939092909190830182828015610b6f5780601f10610b4457610100808354040283529160200191610b6f565b820191906000526020600020905b815481529060010190602001808311610b5257829003601f168201915b505050600160a060020a038c16600090815260046020908152604091829020600290810180548451601f60001961010060018516150201909216939093049081018490048402830184019094528382529596506060959094509250830182828015610c1b5780601f10610bf057610100808354040283529160200191610c1b565b820191906000526020600020905b815481529060010190602001808311610bfe57829003601f168201915b50505050600160a060020a038c166000908152600460209081526040918290206003018054835160026001831615610100026000190190921691909104601f810184900484028201840190945283815294955060609493509190830182828015610cc65780601f10610c9b57610100808354040283529160200191610cc6565b820191906000526020600020905b815481529060010190602001808311610ca957829003601f168201915b505050505090506060600460008d600160a060020a0316600160a060020a03168152602001908152602001600020600401805480602002602001604051908101604052809291908181526020016000905b82821015610d68576000848152602090206040805160c08101918290529160068581029091019182845b815481526020019060010190808311610d4157505050505081526020019060010190610d17565b50505050600160a060020a039c909c16600090815260046020526040902060050154949c939b929a5090985090965091945092505050565b6040805160c081018252600160a060020a03878116808352602080840189815284860189905260608501889052608085018790524260a0860152600092835260048252949091208351815473ffffffffffffffffffffffffffffffffffffffff191693169290921782559251805192939192610e229260018501920190611054565b5060408201518051610e3e916002840191602090910190611054565b5060608201518051610e5a916003840191602090910190611054565b5060808201518051610e769160048401916020909101906110c1565b5060a0919091015160059182015580546001810182556000919091527f036b6384b5eca791c62761152d0c79bb0604c104a5fb6f4eb0703f3154bb3db001805473ffffffffffffffffffffffffffffffffffffffff1916600160a060020a03969096169590951790945550505050565b600280546001810182556000919091527f405787fa12a823e0f2b7631cc41b3ba8828b3321ca811111fa75cd3aa3bb5ace0155565b6005805482908110610f2957fe5b600091825260209091200154600160a060020a0316905081565b4290565b6000805b600254811015610f885782600282815481101515610f6557fe5b90600052602060002001541415610f80576001915050610987565b600101610f4b565b6002548110610f9b576000915050610987565b50919050565b60c0604051908101604052806006906020820280388339509192915050565b82805482825590600052602060002090600602810192821561100a579160200282015b8281111561100a578251610ffa908390600661101a565b5091602001919060060190610fe3565b5061101692915061110b565b5090565b8260068101928215611048579160200282015b8281111561104857825182559160200191906001019061102d565b5061101692915061112e565b828054600181600116156101000203166002900490600052602060002090601f016020900481019282601f1061109557805160ff1916838001178555611048565b82800160010185558215611048579182018281111561104857825182559160200191906001019061102d565b82805482825590600052602060002090600602810192821561100a579160200282015b8281111561100a5782516110fb908390600661101a565b50916020019190600601906110e4565b6108b191905b808211156110165760006111258282611148565b50600601611111565b6108b191905b808211156110165760008155600101611134565b5061115790600681019061112e565b5056fea165627a7a72305820fa8925e62292bc2e00cdb8f47d2a199fcf5a195197d41c750a776d8a76ce5a7e0029",
  "source": "// https://github.com/kanthgithub/ticketbooking/tree/main/contracts\n// https://jeancvllr.medium.com/solidity-tutorial-all-about-structs-b3e7ca398b1e\n// SPDX-License-Identifier: MIT\npragma solidity >0.5.0;\nimport \"./interfaces/TotoSlotStructLib.sol\";\n  \n// Creating a contract \ncontract TotoSlots {    \n\n    // Declaring state variables of a type of fixed-size array \n    address private owner;  \n    uint[6][] private arr_data;        \n    uint256[] private arr_test;    \n    \n    // Storage variables for Issuers(issuerAddress -> Issuer)\n    mapping(address => TotoSlotStructLib.Issuer) issuerMap;\n\n    // Creating mapping    \n    mapping(address => TotoSlotStructLib.TotoSlotsData) totoSlots;       \n\n    // Save all the Slot‘s addresses who registered on a contract in an array.\n    address[] public slotAccounts;    \n    \n    modifier onlyOwner {\n        require(msg.sender == owner, \"only Owner can invoke the function\");\n        _;\n    }\n\n    function getOwner() public view returns(address){\n        return owner;\n    }\n\n    modifier isIssuerAuthorised(address issuerAddress){\n        require(issuerMap[msg.sender].issuerAddress == issuerAddress , \"not Authorized to Invoke the function\");\n        _;\n    }\n\n    // function doesIssuerExist(address _issuerAddress) public view returns(bool){\n    //     require(TotoSlotStructLib.isAValidAddress(_issuerAddress), \"issuerAddress is Invalid\");\n    //     return issuerMap[_issuerAddress].createdAt > 0;\n    // }\n    \n    \n    // Function adding values to the mapping\n    function setTotoSlotsData(address _address, string memory _issuerUID, string memory _issuerName, string memory _issuerEmail, uint[6][] memory _slotsData) public {          \n        // require(!doesIssuerExist(_address), \"A TotoSlotsIssuer is already created with this issuerId\" );\n        // require(TotoSlotStructLib.isANonEmptyString(_issuerName), \"invalid issuerName\");\n\n        totoSlots[_address] = TotoSlotStructLib.TotoSlotsData(\n            {\n                issuerAddress: _address,\n                issuerUID: _issuerUID,\n                issuerName: _issuerName,\n                issuerEmail: _issuerEmail,\n                slotsData: _slotsData,\n                createdAt : block.timestamp\n            }\n        );\n        \n        // Create a request instance        \n        slotAccounts.push(_address);       \n    }\n\n    // Function to get all data of dynamic array \n    function getTotoSlotsData(address _inputAddress) view public returns (address, string memory, string memory, string memory, uint[6][] memory, uint256) { \n        // require(doesIssuerExist(_inputAddress), \"TotoSlotsIssuer doesnot exist with this issuerAddress\");\n\n        address _address = totoSlots[_inputAddress].issuerAddress;\n        string memory _uid = totoSlots[_inputAddress].issuerUID;\n        string memory _name = totoSlots[_inputAddress].issuerName;\n        string memory _email = totoSlots[_inputAddress].issuerEmail;\n        uint[6][] memory _slotsData = totoSlots[_inputAddress].slotsData;\n        uint256 _createdAt = totoSlots[_inputAddress].createdAt;\n\n        return (_address, _uid, _name, _email, _slotsData, _createdAt);\n    }    \n\n    // Counting dynamic array from a Mapping\n    function countSlotAccounts() view public returns (uint) {\n        return slotAccounts.length;\n    }\n\n    // Function to get all stored addresses of dynamic array \n    function getSlotAccounts() view public returns (address[] memory) {\n        return slotAccounts;\n    }    \n\n    // Function to add data in dynamic array test\n    function addData(uint256 num) public {        \n        arr_test.push(num);\n    }\n\n    // Function to search an element in dynamic array\n    function search(uint256 num) view public returns(bool) {\n        uint i;        \n        for(i=0; i<arr_test.length; i++) {\n            if(arr_test[i] == num) {\n                return true;\n            }\n        }        \n        if(i >= arr_test.length)\n        return false;\n    } \n\n    // Function to store all data in dynamic array \n    function array_pushData(uint[6][] memory slotListNumbers) public { \n        // Dynamic array outright with its elements are arrays of fixed size\n        uint count = slotListNumbers.length;\n        arr_data = new uint[6][](count);        \n        for(uint idx=0; idx<count; idx++) { \n            arr_data[idx] = slotListNumbers[idx];           \n        }                                            \n    }          \n\n    // Function to get all data of dynamic array \n    function array_popAllData() view public returns (uint[6][] memory) {    \n        return arr_data;\n    }\n\n    // Defining a function to find the length of the array\n    function array_getLength() view public returns (uint256) {  \n        uint x = arr_data.length;\n        return x; \n    }  \n\n    // Return an array stored in the dynamic dimension will throw if index > flags.length-1 (index starts at 0)\n    function array_getArray(uint256 index) view public returns (uint[6] memory) {\n        return(arr_data[index]);\n    }   \n     \n    // Current block timestamp is returned by now ( http://www.unixtimestamp.com/ ex, $ date -d @block.timestamp )\n    function time_Call() view public returns (uint256) {        \n        return block.timestamp;\n    }\n\n    // Block Number is returned using block.number\n    function block_Call() view public returns (uint256) {\n        return block.number; \n    }\n    \n}\n",
  "sourcePath": "/home/syoo/Documents/BlockChain/Eth_Toto_Board/contracts/TotoSlots.sol",
  "compiler": {
    "name": "solc",
    "version": "0.5.1+commit.c8a2cb62.Emscripten.clang"
  },
  "schemaVersion": "3.4.3",
  "updatedAt": "2021-12-17T12:53:39.598Z",
  "networkType": "ethereum",
  "devdoc": {
    "methods": {}
  },
  "userdoc": {
    "methods": {}
  }
}