{
  "contractName": "TotoSlots",
  "abi": [
    {
      "constant": true,
      "inputs": [
        {
          "name": "",
          "type": "uint256"
        }
      ],
      "name": "slotAccts",
      "outputs": [
        {
          "name": "issuerAddress",
          "type": "address"
        },
        {
          "name": "issuerEmail",
          "type": "string"
        }
      ],
      "payable": false,
      "stateMutability": "view",
      "type": "function"
    },
    {
      "constant": true,
      "inputs": [],
      "name": "owner",
      "outputs": [
        {
          "name": "",
          "type": "address"
        }
      ],
      "payable": false,
      "stateMutability": "view",
      "type": "function"
    },
    {
      "constant": false,
      "inputs": [
        {
          "name": "_address",
          "type": "address"
        },
        {
          "name": "_issuerEmail",
          "type": "string"
        },
        {
          "name": "_slotsData",
          "type": "uint256[6][]"
        }
      ],
      "name": "setTotoSlotsData",
      "outputs": [],
      "payable": false,
      "stateMutability": "nonpayable",
      "type": "function"
    },
    {
      "constant": true,
      "inputs": [
        {
          "name": "_issuer_address",
          "type": "address"
        }
      ],
      "name": "getTotoSlotsData",
      "outputs": [
        {
          "name": "",
          "type": "address"
        },
        {
          "name": "",
          "type": "string"
        },
        {
          "name": "",
          "type": "uint256[6][]"
        }
      ],
      "payable": false,
      "stateMutability": "view",
      "type": "function"
    },
    {
      "constant": false,
      "inputs": [
        {
          "name": "num",
          "type": "uint256"
        }
      ],
      "name": "addData",
      "outputs": [],
      "payable": false,
      "stateMutability": "nonpayable",
      "type": "function"
    },
    {
      "constant": true,
      "inputs": [
        {
          "name": "num",
          "type": "uint256"
        }
      ],
      "name": "search",
      "outputs": [
        {
          "name": "",
          "type": "bool"
        }
      ],
      "payable": false,
      "stateMutability": "view",
      "type": "function"
    },
    {
      "constant": false,
      "inputs": [
        {
          "name": "slotListNumbers",
          "type": "uint256[6][]"
        }
      ],
      "name": "array_pushData",
      "outputs": [],
      "payable": false,
      "stateMutability": "nonpayable",
      "type": "function"
    },
    {
      "constant": true,
      "inputs": [],
      "name": "array_popAllData",
      "outputs": [
        {
          "name": "",
          "type": "uint256[6][]"
        }
      ],
      "payable": false,
      "stateMutability": "view",
      "type": "function"
    },
    {
      "constant": true,
      "inputs": [],
      "name": "array_getLength",
      "outputs": [
        {
          "name": "",
          "type": "uint256"
        }
      ],
      "payable": false,
      "stateMutability": "view",
      "type": "function"
    },
    {
      "constant": true,
      "inputs": [
        {
          "name": "index",
          "type": "uint256"
        }
      ],
      "name": "array_getArray",
      "outputs": [
        {
          "name": "",
          "type": "uint256[6]"
        }
      ],
      "payable": false,
      "stateMutability": "view",
      "type": "function"
    },
    {
      "constant": true,
      "inputs": [],
      "name": "time_Call",
      "outputs": [
        {
          "name": "",
          "type": "uint256"
        }
      ],
      "payable": false,
      "stateMutability": "view",
      "type": "function"
    },
    {
      "constant": true,
      "inputs": [],
      "name": "block_Call",
      "outputs": [
        {
          "name": "",
          "type": "uint256"
        }
      ],
      "payable": false,
      "stateMutability": "view",
      "type": "function"
    }
  ],
  "bytecode": "0x608060405234801561001057600080fd5b50610eea806100206000396000f3fe6080604052600436106100b3577c01000000000000000000000000000000000000000000000000000000006000350463260ac3b981146100b857806331e6b3de146100e3578063356f4cd01461010557806347824e13146101325780635bbdab1e1461015257806360652196146101745780638da5cb5b146101a2578063c44c913e146101c4578063d1a9d639146101d9578063e5d824a714610208578063f86b8fdc14610228578063fc156fe01461023d575b600080fd5b3480156100c457600080fd5b506100cd61026a565b6040516100da9190610d75565b60405180910390f35b3480156100ef57600080fd5b506101036100fe366004610afc565b6102e9565b005b34801561011157600080fd5b50610125610120366004610bae565b6103d2565b6040516100da9190610d86565b34801561013e57600080fd5b5061010361014d366004610b79565b61042c565b34801561015e57600080fd5b506101676104d9565b6040516100da9190610da2565b34801561018057600080fd5b5061019461018f366004610bae565b6104df565b6040516100da929190610d18565b3480156101ae57600080fd5b506101b76105a4565b6040516100da9190610d04565b3480156101d057600080fd5b506101676105b3565b3480156101e557600080fd5b506101f96101f4366004610ad6565b6105b7565b6040516100da93929190610d38565b34801561021457600080fd5b50610103610223366004610bae565b61070f565b34801561023457600080fd5b50610167610744565b34801561024957600080fd5b5061025d610258366004610bae565b610748565b6040516100da9190610d94565b60606001805480602002602001604051908101604052809291908181526020016000905b828210156102df576000848152602090206040805160c08101918290529160068581029091019182845b8154815260200190600101908083116102b85750505050508152602001906001019061028e565b5050505090505b90565b6102f16107a2565b5060408051606081018252600160a060020a0385811682526020808301868152938301859052600480546001810180835560009290925284517f8a35acfbc15ff81a39ae7d344fd709f28e8600b4aa8c65c6b64bfe7fe36bd19b6003909202918201805473ffffffffffffffffffffffffffffffffffffffff19169190951617845594518051949591948694936103ac937f8a35acfbc15ff81a39ae7d344fd709f28e8600b4aa8c65c6b64bfe7fe36bd19c019201906107cd565b50604082015180516103c891600284019160209091019061084b565b5050505050505050565b6103da6108a1565b60018054839081106103e857fe5b600091825260209091206040805160c0810191829052926006908102909201919082845b81548152602001906001019080831161040c57505050505090505b919050565b805160408051828152602080840282010190915281801561046757816020015b6104546108a1565b81526020019060019003908161044c5790505b50805161047c916001916020909101906108c0565b5060005b818110156104d457828181518110151561049657fe5b906020019060200201516001828154811015156104af57fe5b90600052602060002090600602019060066104cb92919061090a565b50600101610480565b505050565b60015490565b60048054829081106104ed57fe5b600091825260209182902060039091020180546001808301805460408051601f6002600019968516156101000296909601909316949094049182018790048702840187019052808352600160a060020a03909316955092939092919083018282801561059a5780601f1061056f5761010080835404028352916020019161059a565b820191906000526020600020905b81548152906001019060200180831161057d57829003601f168201915b5050505050905082565b600054600160a060020a031681565b4390565b600160a060020a0381811660009081526003602090815260408083208054600191820180548451600261010095831615959095026000190190911693909304601f81018690048602840186019094528383529495606095869592909116938593928301828280156106695780601f1061063e57610100808354040283529160200191610669565b820191906000526020600020905b81548152906001019060200180831161064c57829003601f168201915b505050600160a060020a038916600090815260036020908152604080832060020180548251818502810185019093528083529697506060969195509350919084015b828210156106fc576000848152602090206040805160c08101918290529160068581029091019182845b8154815260200190600101908083116106d5575050505050815260200190600101906106ab565b50959a9499509197509295505050505050565b600280546001810182556000919091527f405787fa12a823e0f2b7631cc41b3ba8828b3321ca811111fa75cd3aa3bb5ace0155565b4290565b6000805b600254811015610789578260028281548110151561076657fe5b90600052602060002001541415610781576001915050610427565b60010161074c565b600254811061079c576000915050610427565b50919050565b6060604051908101604052806000600160a060020a0316815260200160608152602001606081525090565b828054600181600116156101000203166002900490600052602060002090601f016020900481019282601f1061080e57805160ff191683800117855561083b565b8280016001018555821561083b579182015b8281111561083b578251825591602001919060010190610820565b50610847929150610937565b5090565b828054828255906000526020600020906006028101928215610895579160200282015b82811115610895578251610885908390600661090a565b509160200191906006019061086e565b50610847929150610951565b60c0604051908101604052806006906020820280388339509192915050565b828054828255906000526020600020906006028101928215610895579160200282015b828111156108955782516108fa908390600661090a565b50916020019190600601906108e3565b826006810192821561083b579160200282018281111561083b578251825591602001919060010190610820565b6102e691905b80821115610847576000815560010161093d565b6102e691905b8082111561084757600061096b8282610974565b50600601610957565b50610983906006810190610937565b50565b60006109928235610e4e565b9392505050565b6000601f820183136109aa57600080fd5b81356109bd6109b882610dd7565b610db0565b915081818352602084019350602081019050838560c08402820111156109e257600080fd5b60005b83811015610a1057816109f88882610a1a565b84525060209092019160c091909101906001016109e5565b5050505092915050565b6000601f82018313610a2b57600080fd5b6006610a396109b882610df8565b91508183856020840282011115610a4f57600080fd5b60005b83811015610a105781610a658882610aca565b8452506020928301929190910190600101610a52565b6000601f82018313610a8c57600080fd5b8135610a9a6109b882610e16565b91508082526020830160208301858383011115610ab657600080fd5b610ac1838284610e6a565b50505092915050565b600061099282356102e6565b600060208284031215610ae857600080fd5b6000610af48484610986565b949350505050565b600080600060608486031215610b1157600080fd5b6000610b1d8686610986565b935050602084013567ffffffffffffffff811115610b3a57600080fd5b610b4686828701610a7b565b925050604084013567ffffffffffffffff811115610b6357600080fd5b610b6f86828701610999565b9150509250925092565b600060208284031215610b8b57600080fd5b813567ffffffffffffffff811115610ba257600080fd5b610af484828501610999565b600060208284031215610bc057600080fd5b6000610af48484610aca565b610bd581610e4e565b82525050565b6000610be682610e44565b808452602084019350610bf883610e3e565b60005b82811015610c2857610c0e868351610c7b565b610c1782610e3e565b60c096909601959150600101610bfb565b5093949350505050565b610c3b81610e48565b610c44826102e6565b60005b82811015610c7457610c5a858351610cfb565b610c6382610e3e565b602095909501949150600101610c47565b5050505050565b610c8481610e48565b610c8d826102e6565b60005b82811015610c7457610ca3858351610cfb565b610cac82610e3e565b602095909501949150600101610c90565b610bd581610e59565b6000610cd182610e44565b808452610ce5816020860160208601610e76565b610cee81610ea6565b9093016020019392505050565b610bd5816102e6565b60208101610d128284610bcc565b92915050565b60408101610d268285610bcc565b8181036020830152610af48184610cc6565b60608101610d468286610bcc565b8181036020830152610d588185610cc6565b90508181036040830152610d6c8184610bdb565b95945050505050565b602080825281016109928184610bdb565b60c08101610d128284610c32565b60208101610d128284610cbd565b60208101610d128284610cfb565b60405181810167ffffffffffffffff81118282101715610dcf57600080fd5b604052919050565b600067ffffffffffffffff821115610dee57600080fd5b5060209081020190565b600067ffffffffffffffff821115610e0f57600080fd5b5060200290565b600067ffffffffffffffff821115610e2d57600080fd5b506020601f91909101601f19160190565b60200190565b5190565b50600690565b6000610d1282610e5e565b151590565b600160a060020a031690565b82818337506000910152565b60005b83811015610e91578181015183820152602001610e79565b83811115610ea0576000848401525b50505050565b601f01601f19169056fea265627a7a7230582076b8fab634f7551db778e564e0091126871e09918b1988843fb6822dccd674ef6c6578706572696d656e74616cf50037",
  "source": "// https://github.com/kanthgithub/ticketbooking/tree/main/contracts\n// https://jeancvllr.medium.com/solidity-tutorial-all-about-structs-b3e7ca398b1e\n// SPDX-License-Identifier: MIT\n// Solidity program to create a fixed-size array \npragma solidity >0.5.0;\npragma experimental ABIEncoderV2;\nimport \"./interfaces/TotoSlotStructLib.sol\";\n  \n// Creating a contract \ncontract TotoSlots {    \n\n    // Declaring state variables of type array      \n    address public owner;  \n    uint[6][] private arr_data;        \n    uint256[] private arr_test;    \n    \n    // // Storage variables for Issuers(issuerAddress -> Issuer)\n    // mapping(address => TotoSlotStructLib.Issuer) public issuerMap;\n\n    // // Storage variables for TotoSlotsData\n    // // ticketId -> TotoSlotsData\n    // mapping(string => TotoSlotStructLib.TotoSlotsData) public TotoSlotsDataMap;\n\n    // // ticketId -> issuerAddress \n    // mapping(string => address) public TotoSlotsDataIssuerMap;\n\n    // modifier onlyOwner {\n    //     require(msg.sender == owner, \"only Owner can invoke the function\");\n    //     _;\n    // }\n\n    // function getOwner() public view returns(address){\n    //     return owner;\n    // }\n\n    // modifier isIssuerAuthorised(address issuerAddress){\n    //     require(issuerMap[msg.sender].issuerAddress == issuerAddress , \"not Authorized to Invoke the function\");\n    //     _;\n    // }\n       \n    // Creating mapping    \n    mapping (address => TotoSlotStructLib.TotoSlotsData) totoSlots;\n    TotoSlotStructLib.TotoSlotsData[] public slotAccts;\n    \n    // Function adding values to the mapping\n    function setTotoSlotsData(address _address, string memory _issuerEmail, uint[6][] memory _slotsData) public {        \n        TotoSlotStructLib.TotoSlotsData memory newSlotData = TotoSlotStructLib.TotoSlotsData({\n            issuerAddress: _address,\n            issuerEmail: _issuerEmail,\n            slotsData: _slotsData           \n        });\n \n        // Create a request instance\n        slotAccts.push(newSlotData);        \n    }\n\n    // Function to get all data of dynamic array \n    function getTotoSlotsData(address _issuer_address) view public returns(address, string memory, uint[6][] memory) { \n        address _issuerAddress = totoSlots[_issuer_address].issuerAddress;\n        string memory _issuerEmail = totoSlots[_issuer_address].issuerEmail;\n        uint[6][] memory _slotsData = totoSlots[_issuer_address].slotsData;\n        \n        return (_issuerAddress, _issuerEmail, _slotsData);\n    }\n\n      \n    // Function to add data in dynamic array test\n    function addData(uint256 num) public {        \n        arr_test.push(num);\n    }\n\n    // Function to search an element in dynamic array\n    function search(uint256 num) view public returns(bool) {\n        uint i;        \n        for(i=0; i<arr_test.length; i++) {\n            if(arr_test[i] == num) {\n                return true;\n            }\n        }        \n        if(i >= arr_test.length)\n        return false;\n    } \n\n    // Function to store all data in dynamic array \n    function array_pushData(uint[6][] memory slotListNumbers) public { \n        // Dynamic array outright with its elements are arrays of fixed size\n        uint count = slotListNumbers.length;\n        arr_data = new uint[6][](count);        \n        for(uint idx=0; idx<count; idx++) { \n            arr_data[idx] = slotListNumbers[idx];           \n        }                                            \n    }          \n\n    // Function to get all data of dynamic array \n    function array_popAllData() view public returns(uint[6][] memory) {    \n        return arr_data;\n    }\n\n    // Defining a function to find the length of the array\n    function array_getLength() view public returns(uint256) {  \n        uint x = arr_data.length;\n        return x; \n    }  \n\n    // Return an array stored in the dynamic dimension will throw if index > flags.length-1 (index starts at 0)\n    function array_getArray(uint256 index) view public returns(uint[6] memory) {\n        return(arr_data[index]);\n    }   \n     \n    // Current block timestamp is returned by now (http://www.unixtimestamp.com/)\n    function time_Call() view public returns(uint256) {        \n        return block.timestamp;\n    }\n\n    // Block Number is returned using block.number\n    function block_Call() view public returns(uint256) {\n        return block.number; \n    }\n    \n}\n",
  "sourcePath": "/home/syoo/Documents/BlockChain/Eth_Toto_Board/contracts/TotoSlots.sol",
  "compiler": {
    "name": "solc",
    "version": "0.5.1+commit.c8a2cb62.Emscripten.clang"
  },
  "schemaVersion": "3.4.3",
  "updatedAt": "2021-12-15T08:12:59.554Z",
  "networkType": "ethereum",
  "devdoc": {
    "methods": {}
  },
  "userdoc": {
    "methods": {}
  }
}