{
  "contractName": "TotoSlots",
  "abi": [
    {
      "constant": true,
      "inputs": [
        {
          "name": "",
          "type": "address"
        }
      ],
      "name": "issuerMap",
      "outputs": [
        {
          "name": "issuerAddress",
          "type": "address"
        },
        {
          "name": "createdAt",
          "type": "uint256"
        }
      ],
      "payable": false,
      "stateMutability": "view",
      "type": "function"
    },
    {
      "constant": true,
      "inputs": [],
      "name": "owner",
      "outputs": [
        {
          "name": "",
          "type": "address"
        }
      ],
      "payable": false,
      "stateMutability": "view",
      "type": "function"
    },
    {
      "constant": true,
      "inputs": [
        {
          "name": "",
          "type": "uint256"
        }
      ],
      "name": "slotAccounts",
      "outputs": [
        {
          "name": "",
          "type": "address"
        }
      ],
      "payable": false,
      "stateMutability": "view",
      "type": "function"
    },
    {
      "constant": true,
      "inputs": [],
      "name": "getOwner",
      "outputs": [
        {
          "name": "",
          "type": "address"
        }
      ],
      "payable": false,
      "stateMutability": "view",
      "type": "function"
    },
    {
      "constant": false,
      "inputs": [
        {
          "name": "_address",
          "type": "address"
        },
        {
          "name": "_issuerEmail",
          "type": "string"
        },
        {
          "name": "_slotsData",
          "type": "uint256[6][]"
        }
      ],
      "name": "setTotoSlotsData",
      "outputs": [],
      "payable": false,
      "stateMutability": "nonpayable",
      "type": "function"
    },
    {
      "constant": true,
      "inputs": [
        {
          "name": "_issuerAddress",
          "type": "address"
        }
      ],
      "name": "getTotoSlotIssuerDetails",
      "outputs": [
        {
          "components": [
            {
              "name": "issuerAddress",
              "type": "address"
            },
            {
              "name": "createdAt",
              "type": "uint256"
            }
          ],
          "name": "issuer",
          "type": "tuple"
        }
      ],
      "payable": false,
      "stateMutability": "view",
      "type": "function"
    },
    {
      "constant": true,
      "inputs": [
        {
          "name": "_issuerAddress",
          "type": "address"
        }
      ],
      "name": "doesIssuerExist",
      "outputs": [
        {
          "name": "",
          "type": "bool"
        }
      ],
      "payable": false,
      "stateMutability": "view",
      "type": "function"
    },
    {
      "constant": true,
      "inputs": [],
      "name": "getslotAccountsAddress",
      "outputs": [
        {
          "name": "",
          "type": "address"
        }
      ],
      "payable": false,
      "stateMutability": "view",
      "type": "function"
    },
    {
      "constant": true,
      "inputs": [
        {
          "name": "_address",
          "type": "address"
        }
      ],
      "name": "getTotoSlotsData",
      "outputs": [
        {
          "name": "",
          "type": "address"
        },
        {
          "name": "",
          "type": "string"
        },
        {
          "name": "",
          "type": "uint256[6][]"
        }
      ],
      "payable": false,
      "stateMutability": "view",
      "type": "function"
    },
    {
      "constant": false,
      "inputs": [
        {
          "name": "num",
          "type": "uint256"
        }
      ],
      "name": "addData",
      "outputs": [],
      "payable": false,
      "stateMutability": "nonpayable",
      "type": "function"
    },
    {
      "constant": true,
      "inputs": [
        {
          "name": "num",
          "type": "uint256"
        }
      ],
      "name": "search",
      "outputs": [
        {
          "name": "",
          "type": "bool"
        }
      ],
      "payable": false,
      "stateMutability": "view",
      "type": "function"
    },
    {
      "constant": false,
      "inputs": [
        {
          "name": "slotListNumbers",
          "type": "uint256[6][]"
        }
      ],
      "name": "array_pushData",
      "outputs": [],
      "payable": false,
      "stateMutability": "nonpayable",
      "type": "function"
    },
    {
      "constant": true,
      "inputs": [],
      "name": "array_popAllData",
      "outputs": [
        {
          "name": "",
          "type": "uint256[6][]"
        }
      ],
      "payable": false,
      "stateMutability": "view",
      "type": "function"
    },
    {
      "constant": true,
      "inputs": [],
      "name": "array_getLength",
      "outputs": [
        {
          "name": "",
          "type": "uint256"
        }
      ],
      "payable": false,
      "stateMutability": "view",
      "type": "function"
    },
    {
      "constant": true,
      "inputs": [
        {
          "name": "index",
          "type": "uint256"
        }
      ],
      "name": "array_getArray",
      "outputs": [
        {
          "name": "",
          "type": "uint256[6]"
        }
      ],
      "payable": false,
      "stateMutability": "view",
      "type": "function"
    },
    {
      "constant": true,
      "inputs": [],
      "name": "time_Call",
      "outputs": [
        {
          "name": "",
          "type": "uint256"
        }
      ],
      "payable": false,
      "stateMutability": "view",
      "type": "function"
    },
    {
      "constant": true,
      "inputs": [],
      "name": "block_Call",
      "outputs": [
        {
          "name": "",
          "type": "uint256"
        }
      ],
      "payable": false,
      "stateMutability": "view",
      "type": "function"
    }
  ],
  "bytecode": "0x608060405234801561001057600080fd5b50611241806100206000396000f3fe6080604052600436106100ea577c01000000000000000000000000000000000000000000000000000000006000350463260ac3b981146100ef57806331e6b3de1461011a578063356f4cd01461013c57806347824e13146101695780634cd31a2c146101895780635bbdab1e146101b7578063893d20e8146101d95780638da5cb5b146101fb578063b4485da814610210578063c44c913e1461023d578063d1a9d63914610252578063def9fac114610281578063e5d824a7146102ae578063f813ec1d146102ce578063f86b8fdc146102ee578063fc156fe014610303578063fe38267414610323575b600080fd5b3480156100fb57600080fd5b50610104610338565b60405161011191906110a2565b60405180910390f35b34801561012657600080fd5b5061013a610135366004610d60565b6103b7565b005b34801561014857600080fd5b5061015c610157366004610e30565b610571565b60405161011191906110b3565b34801561017557600080fd5b5061013a610184366004610ddd565b6105cb565b34801561019557600080fd5b506101a96101a4366004610d3a565b610678565b604051610111929190611087565b3480156101c357600080fd5b506101cc61069d565b60405161011191906110fd565b3480156101e557600080fd5b506101ee6106a3565b6040516101119190611036565b34801561020757600080fd5b506101ee6106b2565b34801561021c57600080fd5b5061023061022b366004610d3a565b6106c1565b60405161011191906110ef565b34801561024957600080fd5b506101cc610750565b34801561025e57600080fd5b5061027261026d366004610d3a565b610754565b6040516101119392919061104a565b34801561028d57600080fd5b506102a161029c366004610d3a565b6108ac565b60405161011191906110c1565b3480156102ba57600080fd5b5061013a6102c9366004610e30565b6109a7565b3480156102da57600080fd5b506101ee6102e9366004610e30565b6109dc565b3480156102fa57600080fd5b506101cc610a04565b34801561030f57600080fd5b506102a161031e366004610e30565b610a08565b34801561032f57600080fd5b506101ee610a62565b60606001805480602002602001604051908101604052809291908181526020016000905b828210156103ad576000848152602090206040805160c08101918290529160068581029091019182845b8154815260200190600101908083116103865750505050508152602001906001019061035c565b5050505090505b90565b6103bf610a9e565b600160a060020a03848116600090815260046020908152604091829020825160608101845281549094168452600180820180548551600261010094831615949094026000190190911692909204601f81018590048502830185019095528482529193858401939192918301828280156104795780601f1061044e57610100808354040283529160200191610479565b820191906000526020600020905b81548152906001019060200180831161045c57829003601f168201915b5050505050815260200160028201805480602002602001604051908101604052809291908181526020016000905b828210156104f8576000848152602090206040805160c08101918290529160068581029091019182845b8154815260200190600101908083116104d1575050505050815260200190600101906104a7565b50505091525050600160a060020a03909416808552602085019390935250604090920191909152600580546001810182556000919091527f036b6384b5eca791c62761152d0c79bb0604c104a5fb6f4eb0703f3154bb3db001805473ffffffffffffffffffffffffffffffffffffffff19169091179055565b610579610ac9565b600180548390811061058757fe5b600091825260209091206040805160c0810191829052926006908102909201919082845b8154815260200190600101908083116105ab57505050505090505b919050565b805160408051828152602080840282010190915281801561060657816020015b6105f3610ac9565b8152602001906001900390816105eb5790505b50805161061b91600191602090910190610ae8565b5060005b8181101561067357828181518110151561063557fe5b9060200190602002015160018281548110151561064e57fe5b906000526020600020906006020190600661066a929190610b3e565b5060010161061f565b505050565b60036020526000908152604090208054600190910154600160a060020a039091169082565b60015490565b600054600160a060020a031690565b600054600160a060020a031681565b6106c9610b78565b6106d2826108ac565b1515610713576040517f08c379a000000000000000000000000000000000000000000000000000000000815260040161070a906110cf565b60405180910390fd5b50600160a060020a039081166000908152600360209081526040918290208251808401909352805490931682526001909201549181019190915290565b4390565b600160a060020a0381811660009081526004602090815260408083208054600191820180548451600261010095831615959095026000190190911693909304601f81018690048602840186019094528383529495606095869592909116938593928301828280156108065780601f106107db57610100808354040283529160200191610806565b820191906000526020600020905b8154815290600101906020018083116107e957829003601f168201915b505050600160a060020a038916600090815260046020908152604080832060020180548251818502810185019093528083529697506060969195509350919084015b82821015610899576000848152602090206040805160c08101918290529160068581029091019182845b81548152602001906001019080831161087257505050505081526020019060010190610848565b50959a9499509197509295505050505050565b6040517f143e4c6e00000000000000000000000000000000000000000000000000000000815260009073__TotoSlotStructLib_____________________9063143e4c6e906108ff908590600401611036565b60206040518083038186803b15801561091757600080fd5b505af415801561092b573d6000803e3d6000fd5b505050506040513d601f19601f8201168201806040525061094f9190810190610e12565b1515610987576040517f08c379a000000000000000000000000000000000000000000000000000000000815260040161070a906110df565b50600160a060020a03166000908152600360205260408120600101541190565b600280546001810182556000919091527f405787fa12a823e0f2b7631cc41b3ba8828b3321ca811111fa75cd3aa3bb5ace0155565b60058054829081106109ea57fe5b600091825260209091200154600160a060020a0316905081565b4290565b6000805b600254811015610a495782600282815481101515610a2657fe5b90600052602060002001541415610a415760019150506105c6565b600101610a0c565b6002548110610a5c5760009150506105c6565b50919050565b6000806005548111610a9a576005805482908110610a7c57fe5b600091825260209091200154600160a060020a031691506103b49050565b5090565b6060604051908101604052806000600160a060020a0316815260200160608152602001606081525090565b60c0604051908101604052806006906020820280388339509192915050565b828054828255906000526020600020906006028101928215610b32579160200282015b82811115610b32578251610b229083906006610b3e565b5091602001919060060190610b0b565b50610a9a929150610b8f565b8260068101928215610b6c579160200282015b82811115610b6c578251825591602001919060010190610b51565b50610a9a929150610bb2565b604080518082019091526000808252602082015290565b6103b491905b80821115610a9a576000610ba98282610bcc565b50600601610b95565b6103b491905b80821115610a9a5760008155600101610bb8565b50610bdb906006810190610bb2565b50565b6000610bea82356111a9565b9392505050565b6000601f82018313610c0257600080fd5b8135610c15610c1082611132565b61110b565b915081818352602084019350602081019050838560c0840282011115610c3a57600080fd5b60005b83811015610c685781610c508882610c72565b84525060209092019160c09190910190600101610c3d565b5050505092915050565b6000601f82018313610c8357600080fd5b6006610c91610c1082611153565b91508183856020840282011115610ca757600080fd5b60005b83811015610c685781610cbd8882610d2e565b8452506020928301929190910190600101610caa565b6000610bea82516111b4565b6000601f82018313610cf057600080fd5b8135610cfe610c1082611171565b91508082526020830160208301858383011115610d1a57600080fd5b610d258382846111c5565b50505092915050565b6000610bea82356103b4565b600060208284031215610d4c57600080fd5b6000610d588484610bde565b949350505050565b600080600060608486031215610d7557600080fd5b6000610d818686610bde565b935050602084013567ffffffffffffffff811115610d9e57600080fd5b610daa86828701610cdf565b925050604084013567ffffffffffffffff811115610dc757600080fd5b610dd386828701610bf1565b9150509250925092565b600060208284031215610def57600080fd5b813567ffffffffffffffff811115610e0657600080fd5b610d5884828501610bf1565b600060208284031215610e2457600080fd5b6000610d588484610cd3565b600060208284031215610e4257600080fd5b6000610d588484610d2e565b610e57816111a9565b82525050565b6000610e688261119f565b808452602084019350610e7a83611199565b60005b82811015610eaa57610e90868351610efd565b610e9982611199565b60c096909601959150600101610e7d565b5093949350505050565b610ebd816111a3565b610ec6826103b4565b60005b82811015610ef657610edc85835161102d565b610ee582611199565b602095909501949150600101610ec9565b5050505050565b610f06816111a3565b610f0f826103b4565b60005b82811015610ef657610f2585835161102d565b610f2e82611199565b602095909501949150600101610f12565b610e57816111b4565b6000610f538261119f565b808452610f678160208601602086016111d1565b610f70816111fd565b9093016020019392505050565b603481527f546f746f536c6f7449737375657220646f65736e27742065786973742077697460208201527f6820746869732069737375657241646472657373000000000000000000000000604082015260600190565b601881527f6973737565724164647265737320697320496e76616c69640000000000000000602082015260400190565b805160408301906110148482610e4e565b506020820151611027602085018261102d565b50505050565b610e57816103b4565b602081016110448284610e4e565b92915050565b606081016110588286610e4e565b818103602083015261106a8185610f48565b9050818103604083015261107e8184610e5d565b95945050505050565b604081016110958285610e4e565b610bea602083018461102d565b60208082528101610bea8184610e5d565b60c081016110448284610eb4565b602081016110448284610f3f565b6020808252810161104481610f7d565b6020808252810161104481610fd3565b604081016110448284611003565b60208101611044828461102d565b60405181810167ffffffffffffffff8111828210171561112a57600080fd5b604052919050565b600067ffffffffffffffff82111561114957600080fd5b5060209081020190565b600067ffffffffffffffff82111561116a57600080fd5b5060200290565b600067ffffffffffffffff82111561118857600080fd5b506020601f91909101601f19160190565b60200190565b5190565b50600690565b6000611044826111b9565b151590565b600160a060020a031690565b82818337506000910152565b60005b838110156111ec5781810151838201526020016111d4565b838111156110275750506000910152565b601f01601f19169056fea265627a7a7230582053418ff1ad6b4a53f2da60b0c012b92994045dde1b38b004c26f4158c0acbbe56c6578706572696d656e74616cf50037",
  "source": "// https://github.com/kanthgithub/ticketbooking/tree/main/contracts\n// https://jeancvllr.medium.com/solidity-tutorial-all-about-structs-b3e7ca398b1e\n// SPDX-License-Identifier: MIT\npragma solidity >0.5.0;\npragma experimental ABIEncoderV2;\nimport \"./interfaces/TotoSlotStructLib.sol\";\n\n  \n// Creating a contract \ncontract TotoSlots {    \n\n    // Declaring state variables of a type of fixed-size array \n    address public owner;  \n    uint[6][] private arr_data;        \n    uint256[] private arr_test;    \n    \n    // Storage variables for Issuers(issuerAddress -> Issuer)\n    mapping(address => TotoSlotStructLib.Issuer) public issuerMap;\n\n    // // Storage variables for TotoSlotsData\n    // // ticketId -> TotoSlotsData\n    // mapping(string => TotoSlotStructLib.TotoSlotsData) public TotoSlotsDataMap;\n\n    // // ticketId -> issuerAddress \n    // mapping(string => address) public TotoSlotsDataIssuerMap;\n\n    modifier onlyOwner {\n        require(msg.sender == owner, \"only Owner can invoke the function\");\n        _;\n    }\n\n    function getOwner() public view returns(address){\n        return owner;\n    }\n\n    modifier isIssuerAuthorised(address issuerAddress){\n        require(issuerMap[msg.sender].issuerAddress == issuerAddress , \"not Authorized to Invoke the function\");\n        _;\n    }\n       \n    // Creating mapping    \n    mapping (address => TotoSlotStructLib.TotoSlotsData) totoSlots;\n    address[] public slotAccounts;\n    // TotoSlotStructLib.TotoSlotsData[] public slotAccounts;\n    \n    // Function adding values to the mapping\n    function setTotoSlotsData(address _address, string memory _issuerEmail, uint[6][] memory _slotsData) public {        \n        // TotoSlotStructLib.TotoSlotsData memory newSlotData = TotoSlotStructLib.TotoSlotsData({\n        //     issuerAddress: _address,\n        //     issuerEmail: _issuerEmail,\n        //     slotsData: _slotsData           \n        // });\n \n        // // Create a request instance\n        // slotAccounts.push(newSlotData);    \n\n        TotoSlotStructLib.TotoSlotsData memory newSlotData = totoSlots[_address];\n        newSlotData.issuerAddress = _address;\n        newSlotData.issuerEmail = _issuerEmail;\n        newSlotData.slotsData = _slotsData;\n\n        // Create a request instance\n        slotAccounts.push(_address);        \n    }\n\n    function getTotoSlotIssuerDetails(address _issuerAddress) public view returns(TotoSlotStructLib.Issuer memory issuer){\n        require(doesIssuerExist(_issuerAddress), \"TotoSlotIssuer doesn't exist with this issuerAddress\");\n        return issuerMap[_issuerAddress];\n    }\n\n    function doesIssuerExist(address _issuerAddress) public view returns(bool){\n        require(TotoSlotStructLib.isAValidAddress(_issuerAddress), \"issuerAddress is Invalid\");\n        return issuerMap[_issuerAddress].createdAt > 0;\n    }\n\n    function getslotAccountsAddress() view public returns(address) {         \n        for(uint i=0; i<=slotAccounts.length; i++){            \n            return slotAccounts[i];\n        }\n    }\n\n    // Function to get all data of dynamic array \n    function getTotoSlotsData(address _address) view public returns(address, string memory, uint[6][] memory) { \n        address _issuerAddress = totoSlots[_address].issuerAddress;\n        string memory _issuerEmail = totoSlots[_address].issuerEmail;\n        uint[6][] memory _slotsData = totoSlots[_address].slotsData;\n             \n        return (_issuerAddress, _issuerEmail, _slotsData);\n    }\n\n      \n    // Function to add data in dynamic array test\n    function addData(uint256 num) public {        \n        arr_test.push(num);\n    }\n\n    // Function to search an element in dynamic array\n    function search(uint256 num) view public returns(bool) {\n        uint i;        \n        for(i=0; i<arr_test.length; i++) {\n            if(arr_test[i] == num) {\n                return true;\n            }\n        }        \n        if(i >= arr_test.length)\n        return false;\n    } \n\n    // Function to store all data in dynamic array \n    function array_pushData(uint[6][] memory slotListNumbers) public { \n        // Dynamic array outright with its elements are arrays of fixed size\n        uint count = slotListNumbers.length;\n        arr_data = new uint[6][](count);        \n        for(uint idx=0; idx<count; idx++) { \n            arr_data[idx] = slotListNumbers[idx];           \n        }                                            \n    }          \n\n    // Function to get all data of dynamic array \n    function array_popAllData() view public returns(uint[6][] memory) {    \n        return arr_data;\n    }\n\n    // Defining a function to find the length of the array\n    function array_getLength() view public returns(uint256) {  \n        uint x = arr_data.length;\n        return x; \n    }  \n\n    // Return an array stored in the dynamic dimension will throw if index > flags.length-1 (index starts at 0)\n    function array_getArray(uint256 index) view public returns(uint[6] memory) {\n        return(arr_data[index]);\n    }   \n     \n    // Current block timestamp is returned by now (http://www.unixtimestamp.com/)\n    function time_Call() view public returns(uint256) {        \n        return block.timestamp;\n    }\n\n    // Block Number is returned using block.number\n    function block_Call() view public returns(uint256) {\n        return block.number; \n    }\n    \n}\n",
  "sourcePath": "/home/syoo/Documents/BlockChain/Eth_Toto_Board/contracts/TotoSlots.sol",
  "compiler": {
    "name": "solc",
    "version": "0.5.1+commit.c8a2cb62.Emscripten.clang"
  },
  "schemaVersion": "3.4.3",
  "updatedAt": "2021-12-16T12:47:13.993Z",
  "devdoc": {
    "methods": {}
  },
  "userdoc": {
    "methods": {}
  }
}