{
  "contractName": "TotoSlots",
  "abi": [
    {
      "constant": false,
      "inputs": [],
      "name": "array_example",
      "outputs": [
        {
          "name": "",
          "type": "uint256[6]"
        }
      ],
      "payable": false,
      "stateMutability": "nonpayable",
      "type": "function"
    },
    {
      "constant": false,
      "inputs": [],
      "name": "array_element",
      "outputs": [
        {
          "name": "",
          "type": "uint256"
        }
      ],
      "payable": true,
      "stateMutability": "payable",
      "type": "function"
    },
    {
      "constant": true,
      "inputs": [],
      "name": "array_length",
      "outputs": [
        {
          "name": "",
          "type": "uint256"
        }
      ],
      "payable": false,
      "stateMutability": "view",
      "type": "function"
    },
    {
      "constant": false,
      "inputs": [],
      "name": "array_push",
      "outputs": [
        {
          "name": "",
          "type": "uint256[]"
        }
      ],
      "payable": false,
      "stateMutability": "nonpayable",
      "type": "function"
    },
    {
      "constant": false,
      "inputs": [],
      "name": "array_pop",
      "outputs": [
        {
          "name": "",
          "type": "uint256[]"
        }
      ],
      "payable": false,
      "stateMutability": "nonpayable",
      "type": "function"
    }
  ],
  "bytecode": "0x610140604052600a6080908152601460a052601e60c052602860e052603261010052603c610120526100349060069081610047565b5034801561004157600080fd5b506100b4565b828054828255906000526020600020908101928215610087579160200282015b82811115610087578251829060ff16905591602001919060010190610067565b50610093929150610097565b5090565b6100b191905b80821115610093576000815560010161009d565b90565b6103b9806100c36000396000f3fe608060405260043610610066577c010000000000000000000000000000000000000000000000000000000060003504630cc008bd811461006b5780634730b60a14610092578063600d66f2146100f757806367227992146100ff5780637d6e3dd01461014c575b600080fd5b34801561007757600080fd5b50610080610161565b60408051918252519081900360200190f35b34801561009e57600080fd5b506100a7610168565b60408051602080825283518183015283519192839290830191858101910280838360005b838110156100e35781810151838201526020016100cb565b505050509050019250505060405180910390f35b6100806101e3565b34801561010b57600080fd5b50610114610208565b604051808260c080838360005b83811015610139578181015183820152602001610121565b5050505090500191505060405180910390f35b34801561015857600080fd5b506100a7610280565b6006545b90565b60606006805480151561017757fe5b6001900381819060005260206000200160009055905560068054806020026020016040519081016040528092919081815260200182805480156101d957602002820191906000526020600020905b8154815260200190600101908083116101c5575b5050505050905090565b600080600660028154811015156101f657fe5b60009182526020909120015491505090565b610210610316565b6040805160c081018252600a815260146020820152601e918101919091526028606082015260326080820152603c60a0820152610251906000906006610335565b506040805160c081019182905260008054825290916006906001602085018083116101c5575050505050905090565b6006805460018181018355600083905260467ff652222313e28459528d920b65115c16c04f3efc82aaedc97be59f3f377c0d3f92830155825490810183556050910155805460408051602083810282018101909252828152606093909290918301828280156101d957602002820191906000526020600020908154815260200190600101908083116101c5575050505050905090565b60c0604051908101604052806006906020820280388339509192915050565b8260068101928215610363579160200282015b82811115610363578251825591602001919060010190610348565b5061036f929150610373565b5090565b61016591905b8082111561036f576000815560010161037956fea165627a7a72305820e80d81c3ebb43ef3019f9de376f96e6772650a1871272bafec61a390b82453100029",
  "source": "// SPDX-License-Identifier: MIT\n// Solidity program to create a fixed-size array \npragma solidity >0.5.0;\n  \n// Creating a contract \ncontract TotoSlots {  \n  \n    // Declaring state variables of type array\n    uint[6] data1;    \n    // Defining the array\n    uint[] data = [10, 20, 30, 40, 50, 60];\n      \n    // Defining function to add values to an array \n    function array_example() public returns (uint[6] memory){              \n        data1 = [uint(10), 20, 30, 40, 50, 60];            \n        return data1;  \n  }  \n  \n  // Defining function to access values from the array from a specific index  \n  function array_element() public payable returns (uint){  \n        uint x = data[2];\n        return x;  \n  }  \n  \n  // Defining a function to find the length of the array\n  function array_length() public view returns(uint) {  \n        uint x = data.length;\n        return x; \n    } \n    \n  // Defining the function to push values to the array\n  function array_push() public returns(uint[] memory){            \n      data.push(70);  \n      data.push(80);    \n      return data;  \n  }  \n  \n  // Defining a function to pop values from the array\n  function array_pop() public returns(uint[] memory){  \n      data.pop(); \n      return data;  \n  }  \n    \n}\n",
  "sourcePath": "/home/syoo/Documents/BlockChain/Eth_Toto_Board/contracts/TotoSlots.sol",
  "compiler": {
    "name": "solc",
    "version": "0.5.1+commit.c8a2cb62.Emscripten.clang"
  },
  "schemaVersion": "3.4.3",
  "updatedAt": "2021-10-02T12:30:48.484Z",
  "networkType": "ethereum",
  "devdoc": {
    "methods": {}
  },
  "userdoc": {
    "methods": {}
  }
}