{
  "contractName": "TotoSlots",
  "abi": [
    {
      "constant": true,
      "inputs": [
        {
          "name": "",
          "type": "uint256"
        }
      ],
      "name": "slotAccounts",
      "outputs": [
        {
          "name": "",
          "type": "address"
        }
      ],
      "payable": false,
      "stateMutability": "view",
      "type": "function"
    },
    {
      "constant": true,
      "inputs": [],
      "name": "getOwner",
      "outputs": [
        {
          "name": "",
          "type": "address"
        }
      ],
      "payable": false,
      "stateMutability": "view",
      "type": "function"
    },
    {
      "constant": true,
      "inputs": [
        {
          "name": "_issuerAddress",
          "type": "address"
        }
      ],
      "name": "doesIssuerExist",
      "outputs": [
        {
          "name": "",
          "type": "bool"
        }
      ],
      "payable": false,
      "stateMutability": "view",
      "type": "function"
    },
    {
      "constant": false,
      "inputs": [
        {
          "name": "_address",
          "type": "address"
        },
        {
          "name": "_issuerUID",
          "type": "string"
        },
        {
          "name": "_issuerName",
          "type": "string"
        },
        {
          "name": "_issuerEmail",
          "type": "string"
        },
        {
          "name": "_slotsData",
          "type": "uint256[6][]"
        }
      ],
      "name": "setTotoSlotsData",
      "outputs": [],
      "payable": false,
      "stateMutability": "nonpayable",
      "type": "function"
    },
    {
      "constant": true,
      "inputs": [
        {
          "name": "_inputAddress",
          "type": "address"
        }
      ],
      "name": "getTotoSlotsData",
      "outputs": [
        {
          "name": "",
          "type": "address"
        },
        {
          "name": "",
          "type": "string"
        },
        {
          "name": "",
          "type": "string"
        },
        {
          "name": "",
          "type": "string"
        },
        {
          "name": "",
          "type": "uint256[6][]"
        },
        {
          "name": "",
          "type": "uint256"
        }
      ],
      "payable": false,
      "stateMutability": "view",
      "type": "function"
    },
    {
      "constant": true,
      "inputs": [],
      "name": "countSlotAccounts",
      "outputs": [
        {
          "name": "",
          "type": "uint256"
        }
      ],
      "payable": false,
      "stateMutability": "view",
      "type": "function"
    },
    {
      "constant": true,
      "inputs": [],
      "name": "getSlotAccounts",
      "outputs": [
        {
          "name": "",
          "type": "address[]"
        }
      ],
      "payable": false,
      "stateMutability": "view",
      "type": "function"
    },
    {
      "constant": false,
      "inputs": [
        {
          "name": "num",
          "type": "uint256"
        }
      ],
      "name": "addData",
      "outputs": [],
      "payable": false,
      "stateMutability": "nonpayable",
      "type": "function"
    },
    {
      "constant": true,
      "inputs": [
        {
          "name": "num",
          "type": "uint256"
        }
      ],
      "name": "search",
      "outputs": [
        {
          "name": "",
          "type": "bool"
        }
      ],
      "payable": false,
      "stateMutability": "view",
      "type": "function"
    },
    {
      "constant": false,
      "inputs": [
        {
          "name": "slotListNumbers",
          "type": "uint256[6][]"
        }
      ],
      "name": "array_pushData",
      "outputs": [],
      "payable": false,
      "stateMutability": "nonpayable",
      "type": "function"
    },
    {
      "constant": true,
      "inputs": [],
      "name": "array_popAllData",
      "outputs": [
        {
          "name": "",
          "type": "uint256[6][]"
        }
      ],
      "payable": false,
      "stateMutability": "view",
      "type": "function"
    },
    {
      "constant": true,
      "inputs": [],
      "name": "array_getLength",
      "outputs": [
        {
          "name": "",
          "type": "uint256"
        }
      ],
      "payable": false,
      "stateMutability": "view",
      "type": "function"
    },
    {
      "constant": true,
      "inputs": [
        {
          "name": "index",
          "type": "uint256"
        }
      ],
      "name": "array_getArray",
      "outputs": [
        {
          "name": "",
          "type": "uint256[6]"
        }
      ],
      "payable": false,
      "stateMutability": "view",
      "type": "function"
    },
    {
      "constant": true,
      "inputs": [],
      "name": "time_Call",
      "outputs": [
        {
          "name": "",
          "type": "uint256"
        }
      ],
      "payable": false,
      "stateMutability": "view",
      "type": "function"
    },
    {
      "constant": true,
      "inputs": [],
      "name": "block_Call",
      "outputs": [
        {
          "name": "",
          "type": "uint256"
        }
      ],
      "payable": false,
      "stateMutability": "view",
      "type": "function"
    }
  ],
  "bytecode": "0x608060405234801561001057600080fd5b50611536806100206000396000f3fe6080604052600436106100d4577c01000000000000000000000000000000000000000000000000000000006000350463150a9d7081146100d9578063260ac3b914610100578063356f4cd01461018657806347824e13146101e85780635bbdab1e146102cf5780637fc5ddc1146102e4578063893d20e814610349578063c44c913e1461037a578063d1a9d6391461038f578063d8c84a2414610587578063def9fac114610811578063e5d824a714610858578063f813ec1d14610882578063f86b8fdc146108ac578063fc156fe0146108c1575b600080fd5b3480156100e557600080fd5b506100ee6108eb565b60408051918252519081900360200190f35b34801561010c57600080fd5b506101156108f2565b60405180806020018281038252838181518152602001915080516000925b818410156101755760208085028401015160c080838360005b8381101561016457818101518382015260200161014c565b505050509050019260010192610133565b925050509250505060405180910390f35b34801561019257600080fd5b506101b0600480360360208110156101a957600080fd5b5035610970565b604051808260c080838360005b838110156101d55781810151838201526020016101bd565b5050505090500191505060405180910390f35b3480156101f457600080fd5b506102cd6004803603602081101561020b57600080fd5b81019060208101813564010000000081111561022657600080fd5b82018360208201111561023857600080fd5b803590602001918460c083028401116401000000008311171561025a57600080fd5b9190808060200260200160405190810160405280939291908181526020016000905b828210156102bd576040805160c08181019092529080840287019060069083908390808284376000920191909152505050815260019091019060200161027c565b509396506109ca95505050505050565b005b3480156102db57600080fd5b506100ee610a77565b3480156102f057600080fd5b506102f9610a7d565b60408051602080825283518183015283519192839290830191858101910280838360005b8381101561033557818101518382015260200161031d565b505050509050019250505060405180910390f35b34801561035557600080fd5b5061035e610adf565b60408051600160a060020a039092168252519081900360200190f35b34801561038657600080fd5b506100ee610aee565b34801561039b57600080fd5b506103c2600480360360208110156103b257600080fd5b5035600160a060020a0316610af2565b6040518087600160a060020a0316600160a060020a031681526020018060200180602001806020018060200186815260200185810385528a818151815260200191508051906020019080838360005b83811015610429578181015183820152602001610411565b50505050905090810190601f1680156104565780820380516001836020036101000a031916815260200191505b5085810384528951815289516020918201918b019080838360005b83811015610489578181015183820152602001610471565b50505050905090810190601f1680156104b65780820380516001836020036101000a031916815260200191505b5085810383528851815288516020918201918a019080838360005b838110156104e95781810151838201526020016104d1565b50505050905090810190601f1680156105165780820380516001836020036101000a031916815260200191505b5085810382528751815287516000918991906020015b8184101561056e5760208085028401015160c080838360005b8381101561055d578181015183820152602001610545565b50505050905001926001019261052c565b925050509a505050505050505050505060405180910390f35b34801561059357600080fd5b506102cd600480360360a08110156105aa57600080fd5b600160a060020a0382351691908101906040810160208201356401000000008111156105d557600080fd5b8201836020820111156105e757600080fd5b8035906020019184600183028401116401000000008311171561060957600080fd5b91908080601f016020809104026020016040519081016040528093929190818152602001838380828437600092019190915250929594936020810193503591505064010000000081111561065c57600080fd5b82018360208201111561066e57600080fd5b8035906020019184600183028401116401000000008311171561069057600080fd5b91908080601f01602080910402602001604051908101604052809392919081815260200183838082843760009201919091525092959493602081019350359150506401000000008111156106e357600080fd5b8201836020820111156106f557600080fd5b8035906020019184600183028401116401000000008311171561071757600080fd5b91908080601f016020809104026020016040519081016040528093929190818152602001838380828437600092019190915250929594936020810193503591505064010000000081111561076a57600080fd5b82018360208201111561077c57600080fd5b803590602001918460c083028401116401000000008311171561079e57600080fd5b9190808060200260200160405190810160405280939291908181526020016000905b82821015610801576040805160c0818101909252908084028701906006908390839080828437600092019190915250505081526001909101906020016107c0565b50939650610e6195505050505050565b34801561081d57600080fd5b506108446004803603602081101561083457600080fd5b5035600160a060020a0316611175565b604080519115158252519081900360200190f35b34801561086457600080fd5b506102cd6004803603602081101561087b57600080fd5b5035611296565b34801561088e57600080fd5b5061035e600480360360208110156108a557600080fd5b50356112cb565b3480156108b857600080fd5b506100ee6112f3565b3480156108cd57600080fd5b50610844600480360360208110156108e457600080fd5b50356112f7565b6005545b90565b60606001805480602002602001604051908101604052809291908181526020016000905b82821015610967576000848152602090206040805160c08101918290529160068581029091019182845b81548152602001906001019080831161094057505050505081526020019060010190610916565b50505050905090565b610978611351565b600180548390811061098657fe5b600091825260209091206040805160c0810191829052926006908102909201919082845b8154815260200190600101908083116109aa57505050505090505b919050565b8051604080518281526020808402820101909152818015610a0557816020015b6109f2611351565b8152602001906001900390816109ea5790505b508051610a1a91600191602090910190611370565b5060005b81811015610a72578281815181101515610a3457fe5b90602001906020020151600182815481101515610a4d57fe5b9060005260206000209060060201906006610a699291906113ca565b50600101610a1e565b505050565b60015490565b60606005805480602002602001604051908101604052809291908181526020018280548015610ad557602002820191906000526020600020905b8154600160a060020a03168152600190910190602001808311610ab7575b5050505050905090565b600054600160a060020a031690565b4390565b60006060806060806000610b0587611175565b1515610b81576040805160e560020a62461bcd02815260206004820152603560248201527f546f746f536c6f747349737375657220646f65736e6f7420657869737420776960448201527f7468207468697320697373756572416464726573730000000000000000000000606482015290519081900360840190fd5b600160a060020a038781166000908152600460209081526040918290208054600191820180548551600261010095831615959095026000190190911693909304601f81018590048502840185019095528483529416936060939192909190830182828015610c305780601f10610c0557610100808354040283529160200191610c30565b820191906000526020600020905b815481529060010190602001808311610c1357829003601f168201915b505050600160a060020a038c16600090815260046020908152604091829020600290810180548451601f60001961010060018516150201909216939093049081018490048402830184019094528382529596506060959094509250830182828015610cdc5780601f10610cb157610100808354040283529160200191610cdc565b820191906000526020600020905b815481529060010190602001808311610cbf57829003601f168201915b50505050600160a060020a038c166000908152600460209081526040918290206003018054835160026001831615610100026000190190921691909104601f810184900484028201840190945283815294955060609493509190830182828015610d875780601f10610d5c57610100808354040283529160200191610d87565b820191906000526020600020905b815481529060010190602001808311610d6a57829003601f168201915b505050505090506060600460008d600160a060020a0316600160a060020a03168152602001908152602001600020600401805480602002602001604051908101604052809291908181526020016000905b82821015610e29576000848152602090206040805160c08101918290529160068581029091019182845b815481526020019060010190808311610e0257505050505081526020019060010190610dd8565b50505050600160a060020a039c909c16600090815260046020526040902060050154949c939b929a5090985090965091945092505050565b610e6a85611175565b15610ee5576040805160e560020a62461bcd02815260206004820152603760248201527f4120546f746f536c6f747349737375657220697320616c72656164792063726560448201527f6174656420776974682074686973206973737565724964000000000000000000606482015290519081900360840190fd5b6040517f8301e9ca00000000000000000000000000000000000000000000000000000000815260206004820181815285516024840152855173__TotoSlotStructLib_____________________93638301e9ca9388939283926044019185019080838360005b83811015610f63578181015183820152602001610f4b565b50505050905090810190601f168015610f905780820380516001836020036101000a031916815260200191505b509250505060206040518083038186803b158015610fad57600080fd5b505af4158015610fc1573d6000803e3d6000fd5b505050506040513d6020811015610fd757600080fd5b5051151561102f576040805160e560020a62461bcd02815260206004820152601260248201527f696e76616c6964206973737565724e616d650000000000000000000000000000604482015290519081900360640190fd5b6040805160c081018252600160a060020a03878116808352602080840189815284860189905260608501889052608085018790524260a0860152600092835260048252949091208351815473ffffffffffffffffffffffffffffffffffffffff1916931692909217825592518051929391926110b19260018501920190611404565b50604082015180516110cd916002840191602090910190611404565b50606082015180516110e9916003840191602090910190611404565b5060808201518051611105916004840191602090910190611471565b5060a0919091015160059182015580546001810182556000919091527f036b6384b5eca791c62761152d0c79bb0604c104a5fb6f4eb0703f3154bb3db001805473ffffffffffffffffffffffffffffffffffffffff1916600160a060020a03969096169590951790945550505050565b600073__TotoSlotStructLib_____________________63143e4c6e836040518263ffffffff167c01000000000000000000000000000000000000000000000000000000000281526004018082600160a060020a0316600160a060020a0316815260200191505060206040518083038186803b1580156111f457600080fd5b505af4158015611208573d6000803e3d6000fd5b505050506040513d602081101561121e57600080fd5b50511515611276576040805160e560020a62461bcd02815260206004820152601860248201527f6973737565724164647265737320697320496e76616c69640000000000000000604482015290519081900360640190fd5b50600160a060020a03166000908152600360205260408120600101541190565b600280546001810182556000919091527f405787fa12a823e0f2b7631cc41b3ba8828b3321ca811111fa75cd3aa3bb5ace0155565b60058054829081106112d957fe5b600091825260209091200154600160a060020a0316905081565b4290565b6000805b600254811015611338578260028281548110151561131557fe5b906000526020600020015414156113305760019150506109c5565b6001016112fb565b600254811061134b5760009150506109c5565b50919050565b60c0604051908101604052806006906020820280388339509192915050565b8280548282559060005260206000209060060281019282156113ba579160200282015b828111156113ba5782516113aa90839060066113ca565b5091602001919060060190611393565b506113c69291506114bb565b5090565b82600681019282156113f8579160200282015b828111156113f85782518255916020019190600101906113dd565b506113c69291506114de565b828054600181600116156101000203166002900490600052602060002090601f016020900481019282601f1061144557805160ff19168380011785556113f8565b828001600101855582156113f857918201828111156113f85782518255916020019190600101906113dd565b8280548282559060005260206000209060060281019282156113ba579160200282015b828111156113ba5782516114ab90839060066113ca565b5091602001919060060190611494565b6108ef91905b808211156113c65760006114d582826114f8565b506006016114c1565b6108ef91905b808211156113c657600081556001016114e4565b506115079060068101906114de565b5056fea165627a7a723058202b0a8cfaa3e6176accb2916559980838af786282ce550ca07751aaa052821a300029",
  "source": "// https://github.com/kanthgithub/ticketbooking/tree/main/contracts\n// https://jeancvllr.medium.com/solidity-tutorial-all-about-structs-b3e7ca398b1e\n// SPDX-License-Identifier: MIT\npragma solidity >0.5.0;\nimport \"./interfaces/TotoSlotStructLib.sol\";\n  \n// Creating a contract \ncontract TotoSlots {    \n\n    // Declaring state variables of a type of fixed-size array \n    address private owner;  \n    uint[6][] private arr_data;        \n    uint256[] private arr_test;    \n    \n    // Storage variables for Issuers(issuerAddress -> Issuer)\n    mapping(address => TotoSlotStructLib.Issuer) issuerMap;\n\n    // Creating mapping    \n    mapping(address => TotoSlotStructLib.TotoSlotsData) totoSlots;       \n\n    // Save all the Slot‘s addresses who registered on a contract in an array.\n    address[] public slotAccounts;    \n    \n    modifier onlyOwner {\n        require(msg.sender == owner, \"only Owner can invoke the function\");\n        _;\n    }\n\n    function getOwner() public view returns(address){\n        return owner;\n    }\n\n    modifier isIssuerAuthorised(address issuerAddress){\n        require(issuerMap[msg.sender].issuerAddress == issuerAddress , \"not Authorized to Invoke the function\");\n        _;\n    }\n\n    function doesIssuerExist(address _issuerAddress) public view returns(bool){\n        require(TotoSlotStructLib.isAValidAddress(_issuerAddress), \"issuerAddress is Invalid\");\n        return issuerMap[_issuerAddress].createdAt > 0;\n    }\n    \n    \n    // Function adding values to the mapping\n    function setTotoSlotsData(address _address, string memory _issuerUID, string memory _issuerName, string memory _issuerEmail, uint[6][] memory _slotsData) public {          \n        require(!doesIssuerExist(_address), \"A TotoSlotsIssuer is already created with this issuerId\" );\n        require(TotoSlotStructLib.isANonEmptyString(_issuerName), \"invalid issuerName\");\n\n        totoSlots[_address] = TotoSlotStructLib.TotoSlotsData(\n            {\n                issuerAddress: _address,\n                issuerUID: _issuerUID,\n                issuerName: _issuerName,\n                issuerEmail: _issuerEmail,\n                slotsData: _slotsData,\n                createdAt : block.timestamp\n            }\n        );\n        \n        // Create a request instance        \n        slotAccounts.push(_address);       \n    }\n\n    // Function to get all data of dynamic array \n    function getTotoSlotsData(address _inputAddress) view public returns (address, string memory, string memory, string memory, uint[6][] memory, uint256) { \n        require(doesIssuerExist(_inputAddress), \"TotoSlotsIssuer doesnot exist with this issuerAddress\");\n\n        address _address = totoSlots[_inputAddress].issuerAddress;\n        string memory _uid = totoSlots[_inputAddress].issuerUID;\n        string memory _name = totoSlots[_inputAddress].issuerName;\n        string memory _email = totoSlots[_inputAddress].issuerEmail;\n        uint[6][] memory _slotsData = totoSlots[_inputAddress].slotsData;\n        uint256 _createdAt = totoSlots[_inputAddress].createdAt;\n\n        return (_address, _uid, _name, _email, _slotsData, _createdAt);\n    }    \n\n    // Counting dynamic array from a Mapping\n    function countSlotAccounts() view public returns (uint) {\n        return slotAccounts.length;\n    }\n\n    // Function to get all stored addresses of dynamic array \n    function getSlotAccounts() view public returns (address[] memory) {\n        return slotAccounts;\n    }    \n\n    // Function to add data in dynamic array test\n    function addData(uint256 num) public {        \n        arr_test.push(num);\n    }\n\n    // Function to search an element in dynamic array\n    function search(uint256 num) view public returns(bool) {\n        uint i;        \n        for(i=0; i<arr_test.length; i++) {\n            if(arr_test[i] == num) {\n                return true;\n            }\n        }        \n        if(i >= arr_test.length)\n        return false;\n    } \n\n    // Function to store all data in dynamic array \n    function array_pushData(uint[6][] memory slotListNumbers) public { \n        // Dynamic array outright with its elements are arrays of fixed size\n        uint count = slotListNumbers.length;\n        arr_data = new uint[6][](count);        \n        for(uint idx=0; idx<count; idx++) { \n            arr_data[idx] = slotListNumbers[idx];           \n        }                                            \n    }          \n\n    // Function to get all data of dynamic array \n    function array_popAllData() view public returns (uint[6][] memory) {    \n        return arr_data;\n    }\n\n    // Defining a function to find the length of the array\n    function array_getLength() view public returns (uint256) {  \n        uint x = arr_data.length;\n        return x; \n    }  \n\n    // Return an array stored in the dynamic dimension will throw if index > flags.length-1 (index starts at 0)\n    function array_getArray(uint256 index) view public returns (uint[6] memory) {\n        return(arr_data[index]);\n    }   \n     \n    // Current block timestamp is returned by now ( http://www.unixtimestamp.com/ ex, $ date -d @block.timestamp )\n    function time_Call() view public returns (uint256) {        \n        return block.timestamp;\n    }\n\n    // Block Number is returned using block.number\n    function block_Call() view public returns (uint256) {\n        return block.number; \n    }\n    \n}\n",
  "sourcePath": "/home/syoo/Documents/BlockChain/Eth_Toto_Board/contracts/TotoSlots.sol",
  "compiler": {
    "name": "solc",
    "version": "0.5.1+commit.c8a2cb62.Emscripten.clang"
  },
  "schemaVersion": "3.4.3",
  "updatedAt": "2021-12-17T19:27:36.280Z",
  "devdoc": {
    "methods": {}
  },
  "userdoc": {
    "methods": {}
  }
}