{
  "contractName": "TotoSlotStructLib",
  "abi": [
    {
      "constant": true,
      "inputs": [
        {
          "name": "stringArgument",
          "type": "string"
        }
      ],
      "name": "isANonEmptyString",
      "outputs": [
        {
          "name": "",
          "type": "bool"
        }
      ],
      "payable": false,
      "stateMutability": "pure",
      "type": "function"
    },
    {
      "constant": true,
      "inputs": [
        {
          "name": "stringArgument",
          "type": "string"
        }
      ],
      "name": "isAnEmptyString",
      "outputs": [
        {
          "name": "",
          "type": "bool"
        }
      ],
      "payable": false,
      "stateMutability": "pure",
      "type": "function"
    },
    {
      "constant": true,
      "inputs": [
        {
          "name": "byteArgument",
          "type": "bytes"
        }
      ],
      "name": "isANonEmptyByteValue",
      "outputs": [
        {
          "name": "",
          "type": "bool"
        }
      ],
      "payable": false,
      "stateMutability": "pure",
      "type": "function"
    },
    {
      "constant": true,
      "inputs": [
        {
          "name": "addressArgument",
          "type": "address"
        }
      ],
      "name": "isAValidAddress",
      "outputs": [
        {
          "name": "",
          "type": "bool"
        }
      ],
      "payable": false,
      "stateMutability": "pure",
      "type": "function"
    },
    {
      "constant": true,
      "inputs": [
        {
          "name": "integerValue",
          "type": "uint256"
        }
      ],
      "name": "isAValidInteger",
      "outputs": [
        {
          "name": "",
          "type": "bool"
        }
      ],
      "payable": false,
      "stateMutability": "pure",
      "type": "function"
    },
    {
      "constant": true,
      "inputs": [
        {
          "name": "a",
          "type": "string"
        },
        {
          "name": "b",
          "type": "string"
        }
      ],
      "name": "hashCompareWithLengthCheck",
      "outputs": [
        {
          "name": "",
          "type": "bool"
        }
      ],
      "payable": false,
      "stateMutability": "pure",
      "type": "function"
    },
    {
      "constant": true,
      "inputs": [
        {
          "name": "a",
          "type": "string"
        }
      ],
      "name": "isATrueValue",
      "outputs": [
        {
          "name": "",
          "type": "bool"
        }
      ],
      "payable": false,
      "stateMutability": "pure",
      "type": "function"
    }
  ],
  "bytecode": "0x6105e5610030600b82828239805160001a6073146000811461002057610022565bfe5b5030600052607381538281f3fe7300000000000000000000000000000000000000003014608060405260043610610093577c01000000000000000000000000000000000000000000000000000000006000350463038e363e8114610098578063143e4c6e146100c957806322ae087d146100fc57806345717f28146101a2578063585e5e51146102cf5780638301e9ca146102cf578063ffc4928114610375575b600080fd5b6100b5600480360360208110156100ae57600080fd5b503561041b565b604080519115158252519081900360200190f35b6100b5600480360360208110156100df57600080fd5b503573ffffffffffffffffffffffffffffffffffffffff16610421565b6100b56004803603602081101561011257600080fd5b81019060208101813564010000000081111561012d57600080fd5b82018360208201111561013f57600080fd5b8035906020019184600183028401116401000000008311171561016157600080fd5b91908080601f01602080910402602001604051908101604052809392919081815260200183838082843760009201919091525092955061043c945050505050565b6100b5600480360360408110156101b857600080fd5b8101906020810181356401000000008111156101d357600080fd5b8201836020820111156101e557600080fd5b8035906020019184600183028401116401000000008311171561020757600080fd5b91908080601f016020809104026020016040519081016040528093929190818152602001838380828437600092019190915250929594936020810193503591505064010000000081111561025a57600080fd5b82018360208201111561026c57600080fd5b8035906020019184600183028401116401000000008311171561028e57600080fd5b91908080601f016020809104026020016040519081016040528093929190818152602001838380828437600092019190915250929550610441945050505050565b6100b5600480360360208110156102e557600080fd5b81019060208101813564010000000081111561030057600080fd5b82018360208201111561031257600080fd5b8035906020019184600183028401116401000000008311171561033457600080fd5b91908080601f016020809104026020016040519081016040528093929190818152602001838380828437600092019190915250929550610571945050505050565b6100b56004803603602081101561038b57600080fd5b8101906020810181356401000000008111156103a657600080fd5b8201836020820111156103b857600080fd5b803590602001918460018302840111640100000000831117156103da57600080fd5b91908080601f016020809104026020016040519081016040528093929190818152602001838380828437600092019190915250929550610578945050505050565b60001090565b73ffffffffffffffffffffffffffffffffffffffff16151590565b511590565b80518251600091146104555750600061056b565b816040516020018080602001828103825283818151815260200191508051906020019080838360005b8381101561049657818101518382015260200161047e565b50505050905090810190601f1680156104c35780820380516001836020036101000a031916815260200191505b509250505060405160208183030381529060405280519060200120836040516020018080602001828103825283818151815260200191508051906020019080838360005b8381101561051f578181015183820152602001610507565b50505050905090810190601f16801561054c5780820380516001836020036101000a031916815260200191505b5092505050604051602081830303815290604052805190602001201490505b92915050565b5160001090565b600061056b826040805190810160405280600481526020017f747275650000000000000000000000000000000000000000000000000000000081525061044156fea165627a7a72305820c7a6c2a0f65bd2c8db796ca6f264b0110857e49b9d92904bfa398c213b5731d30029",
  "source": "// SPDX-License-Identifier: MIT\npragma solidity >0.5.0;\n\nlibrary TotoSlotStructLib {\n    \n    // Defining our TotoSlotData struct\n    struct TotoSlotsData {        \n        // Declaring different structure elements\n        address issuerAddress;\n        string issuerUID;\n        string issuerName;\n        string issuerEmail;        \n        uint[6][] slotsData;        \n        string createdTime;   \n        uint256 createdBlockTime;        \n    }\n\n    function isANonEmptyString(string memory stringArgument) public pure returns(bool){\n        return bytes(stringArgument).length > 0;\n    }\n\n    function isAnEmptyString(string memory stringArgument) public pure returns(bool){\n        return bytes(stringArgument).length == 0;\n    }\n\n    function isANonEmptyByteValue(bytes memory byteArgument) public pure returns(bool){\n        return byteArgument.length > 0;\n    }\n\n    function isAValidAddress(address addressArgument) public pure returns(bool){\n        return addressArgument != address(0x0);\n    }\n\n    function isAValidInteger(uint integerValue) public pure returns(bool){\n        return integerValue > 0;\n    }     \n\n    function hashCompareWithLengthCheck(string memory a, string memory b) public pure returns (bool) {\n        if(bytes(a).length != bytes(b).length) {\n            return false;\n        } else {\n            return keccak256(abi.encode(a)) == keccak256(abi.encode(b));\n        }\n    }\n\n    function isATrueValue(string memory a) public pure returns (bool) {\n        return hashCompareWithLengthCheck(a, \"true\");\n    }\n\n}\n",
  "sourcePath": "/home/syoo/Documents/BlockChain/Eth_Toto_Board/contracts/interfaces/TotoSlotStructLib.sol",
  "compiler": {
    "name": "solc",
    "version": "0.5.1+commit.c8a2cb62.Emscripten.clang"
  },
  "schemaVersion": "3.4.3",
  "updatedAt": "2021-12-20T07:40:58.300Z",
  "devdoc": {
    "methods": {}
  },
  "userdoc": {
    "methods": {}
  }
}