{
  "contractName": "TotoSlots",
  "abi": [
    {
      "constant": true,
      "inputs": [],
      "name": "owner",
      "outputs": [
        {
          "name": "",
          "type": "address"
        }
      ],
      "payable": false,
      "stateMutability": "view",
      "type": "function"
    },
    {
      "constant": true,
      "inputs": [
        {
          "name": "",
          "type": "uint256"
        }
      ],
      "name": "slotAccounts",
      "outputs": [
        {
          "name": "",
          "type": "address"
        }
      ],
      "payable": false,
      "stateMutability": "view",
      "type": "function"
    },
    {
      "constant": false,
      "inputs": [
        {
          "name": "_address",
          "type": "address"
        },
        {
          "name": "_issuerEmail",
          "type": "string"
        },
        {
          "name": "_slotsData",
          "type": "uint256[6][]"
        }
      ],
      "name": "setTotoSlotsData",
      "outputs": [],
      "payable": false,
      "stateMutability": "nonpayable",
      "type": "function"
    },
    {
      "constant": true,
      "inputs": [],
      "name": "getslotAccountsAddress",
      "outputs": [
        {
          "name": "",
          "type": "address"
        }
      ],
      "payable": false,
      "stateMutability": "view",
      "type": "function"
    },
    {
      "constant": true,
      "inputs": [
        {
          "name": "_address",
          "type": "address"
        }
      ],
      "name": "getTotoSlotsData",
      "outputs": [
        {
          "name": "",
          "type": "address"
        },
        {
          "name": "",
          "type": "string"
        },
        {
          "name": "",
          "type": "uint256[6][]"
        }
      ],
      "payable": false,
      "stateMutability": "view",
      "type": "function"
    },
    {
      "constant": false,
      "inputs": [
        {
          "name": "num",
          "type": "uint256"
        }
      ],
      "name": "addData",
      "outputs": [],
      "payable": false,
      "stateMutability": "nonpayable",
      "type": "function"
    },
    {
      "constant": true,
      "inputs": [
        {
          "name": "num",
          "type": "uint256"
        }
      ],
      "name": "search",
      "outputs": [
        {
          "name": "",
          "type": "bool"
        }
      ],
      "payable": false,
      "stateMutability": "view",
      "type": "function"
    },
    {
      "constant": false,
      "inputs": [
        {
          "name": "slotListNumbers",
          "type": "uint256[6][]"
        }
      ],
      "name": "array_pushData",
      "outputs": [],
      "payable": false,
      "stateMutability": "nonpayable",
      "type": "function"
    },
    {
      "constant": true,
      "inputs": [],
      "name": "array_popAllData",
      "outputs": [
        {
          "name": "",
          "type": "uint256[6][]"
        }
      ],
      "payable": false,
      "stateMutability": "view",
      "type": "function"
    },
    {
      "constant": true,
      "inputs": [],
      "name": "array_getLength",
      "outputs": [
        {
          "name": "",
          "type": "uint256"
        }
      ],
      "payable": false,
      "stateMutability": "view",
      "type": "function"
    },
    {
      "constant": true,
      "inputs": [
        {
          "name": "index",
          "type": "uint256"
        }
      ],
      "name": "array_getArray",
      "outputs": [
        {
          "name": "",
          "type": "uint256[6]"
        }
      ],
      "payable": false,
      "stateMutability": "view",
      "type": "function"
    },
    {
      "constant": true,
      "inputs": [],
      "name": "time_Call",
      "outputs": [
        {
          "name": "",
          "type": "uint256"
        }
      ],
      "payable": false,
      "stateMutability": "view",
      "type": "function"
    },
    {
      "constant": true,
      "inputs": [],
      "name": "block_Call",
      "outputs": [
        {
          "name": "",
          "type": "uint256"
        }
      ],
      "payable": false,
      "stateMutability": "view",
      "type": "function"
    }
  ],
  "bytecode": "0x608060405234801561001057600080fd5b50610e91806100206000396000f3fe6080604052600436106100be577c01000000000000000000000000000000000000000000000000000000006000350463260ac3b981146100c357806331e6b3de146100ee578063356f4cd01461011057806347824e131461013d5780635bbdab1e1461015d5780638da5cb5b1461017f578063c44c913e146101a1578063d1a9d639146101b6578063e5d824a7146101e5578063f813ec1d14610205578063f86b8fdc14610225578063fc156fe01461023a578063fe38267414610267575b600080fd5b3480156100cf57600080fd5b506100d861027c565b6040516100e59190610d1c565b60405180910390f35b3480156100fa57600080fd5b5061010e610109366004610ac3565b6102fb565b005b34801561011c57600080fd5b5061013061012b366004610b75565b6104b5565b6040516100e59190610d2d565b34801561014957600080fd5b5061010e610158366004610b40565b61050f565b34801561016957600080fd5b506101726105bc565b6040516100e59190610d49565b34801561018b57600080fd5b506101946105c2565b6040516100e59190610ccb565b3480156101ad57600080fd5b506101726105d1565b3480156101c257600080fd5b506101d66101d1366004610a9d565b6105d5565b6040516100e593929190610cdf565b3480156101f157600080fd5b5061010e610200366004610b75565b61072d565b34801561021157600080fd5b50610194610220366004610b75565b610762565b34801561023157600080fd5b5061017261078a565b34801561024657600080fd5b5061025a610255366004610b75565b61078e565b6040516100e59190610d3b565b34801561027357600080fd5b506101946107e8565b60606001805480602002602001604051908101604052809291908181526020016000905b828210156102f1576000848152602090206040805160c08101918290529160068581029091019182845b8154815260200190600101908083116102ca575050505050815260200190600101906102a0565b5050505090505b90565b610303610824565b600160a060020a03848116600090815260036020908152604091829020825160608101845281549094168452600180820180548551600261010094831615949094026000190190911692909204601f81018590048502830185019095528482529193858401939192918301828280156103bd5780601f10610392576101008083540402835291602001916103bd565b820191906000526020600020905b8154815290600101906020018083116103a057829003601f168201915b5050505050815260200160028201805480602002602001604051908101604052809291908181526020016000905b8282101561043c576000848152602090206040805160c08101918290529160068581029091019182845b815481526020019060010190808311610415575050505050815260200190600101906103eb565b50505091525050600160a060020a03909416808552602085019390935250604090920191909152600480546001810182556000919091527f8a35acfbc15ff81a39ae7d344fd709f28e8600b4aa8c65c6b64bfe7fe36bd19b01805473ffffffffffffffffffffffffffffffffffffffff19169091179055565b6104bd61084f565b60018054839081106104cb57fe5b600091825260209091206040805160c0810191829052926006908102909201919082845b8154815260200190600101908083116104ef57505050505090505b919050565b805160408051828152602080840282010190915281801561054a57816020015b61053761084f565b81526020019060019003908161052f5790505b50805161055f9160019160209091019061086e565b5060005b818110156105b757828181518110151561057957fe5b9060200190602002015160018281548110151561059257fe5b90600052602060002090600602019060066105ae9291906108c4565b50600101610563565b505050565b60015490565b600054600160a060020a031681565b4390565b600160a060020a0381811660009081526003602090815260408083208054600191820180548451600261010095831615959095026000190190911693909304601f81018690048602840186019094528383529495606095869592909116938593928301828280156106875780601f1061065c57610100808354040283529160200191610687565b820191906000526020600020905b81548152906001019060200180831161066a57829003601f168201915b505050600160a060020a038916600090815260036020908152604080832060020180548251818502810185019093528083529697506060969195509350919084015b8282101561071a576000848152602090206040805160c08101918290529160068581029091019182845b8154815260200190600101908083116106f3575050505050815260200190600101906106c9565b50959a9499509197509295505050505050565b600280546001810182556000919091527f405787fa12a823e0f2b7631cc41b3ba8828b3321ca811111fa75cd3aa3bb5ace0155565b600480548290811061077057fe5b600091825260209091200154600160a060020a0316905081565b4290565b6000805b6002548110156107cf57826002828154811015156107ac57fe5b906000526020600020015414156107c757600191505061050a565b600101610792565b60025481106107e257600091505061050a565b50919050565b600080600454811161082057600480548290811061080257fe5b600091825260209091200154600160a060020a031691506102f89050565b5090565b6060604051908101604052806000600160a060020a0316815260200160608152602001606081525090565b60c0604051908101604052806006906020820280388339509192915050565b8280548282559060005260206000209060060281019282156108b8579160200282015b828111156108b85782516108a890839060066108c4565b5091602001919060060190610891565b506108209291506108fe565b82600681019282156108f2579160200282015b828111156108f25782518255916020019190600101906108d7565b50610820929150610921565b6102f891905b80821115610820576000610918828261093b565b50600601610904565b6102f891905b808211156108205760008155600101610927565b5061094a906006810190610921565b50565b60006109598235610df5565b9392505050565b6000601f8201831361097157600080fd5b813561098461097f82610d7e565b610d57565b915081818352602084019350602081019050838560c08402820111156109a957600080fd5b60005b838110156109d757816109bf88826109e1565b84525060209092019160c091909101906001016109ac565b5050505092915050565b6000601f820183136109f257600080fd5b6006610a0061097f82610d9f565b91508183856020840282011115610a1657600080fd5b60005b838110156109d75781610a2c8882610a91565b8452506020928301929190910190600101610a19565b6000601f82018313610a5357600080fd5b8135610a6161097f82610dbd565b91508082526020830160208301858383011115610a7d57600080fd5b610a88838284610e11565b50505092915050565b600061095982356102f8565b600060208284031215610aaf57600080fd5b6000610abb848461094d565b949350505050565b600080600060608486031215610ad857600080fd5b6000610ae4868661094d565b935050602084013567ffffffffffffffff811115610b0157600080fd5b610b0d86828701610a42565b925050604084013567ffffffffffffffff811115610b2a57600080fd5b610b3686828701610960565b9150509250925092565b600060208284031215610b5257600080fd5b813567ffffffffffffffff811115610b6957600080fd5b610abb84828501610960565b600060208284031215610b8757600080fd5b6000610abb8484610a91565b610b9c81610df5565b82525050565b6000610bad82610deb565b808452602084019350610bbf83610de5565b60005b82811015610bef57610bd5868351610c42565b610bde82610de5565b60c096909601959150600101610bc2565b5093949350505050565b610c0281610def565b610c0b826102f8565b60005b82811015610c3b57610c21858351610cc2565b610c2a82610de5565b602095909501949150600101610c0e565b5050505050565b610c4b81610def565b610c54826102f8565b60005b82811015610c3b57610c6a858351610cc2565b610c7382610de5565b602095909501949150600101610c57565b610b9c81610e00565b6000610c9882610deb565b808452610cac816020860160208601610e1d565b610cb581610e4d565b9093016020019392505050565b610b9c816102f8565b60208101610cd98284610b93565b92915050565b60608101610ced8286610b93565b8181036020830152610cff8185610c8d565b90508181036040830152610d138184610ba2565b95945050505050565b602080825281016109598184610ba2565b60c08101610cd98284610bf9565b60208101610cd98284610c84565b60208101610cd98284610cc2565b60405181810167ffffffffffffffff81118282101715610d7657600080fd5b604052919050565b600067ffffffffffffffff821115610d9557600080fd5b5060209081020190565b600067ffffffffffffffff821115610db657600080fd5b5060200290565b600067ffffffffffffffff821115610dd457600080fd5b506020601f91909101601f19160190565b60200190565b5190565b50600690565b6000610cd982610e05565b151590565b600160a060020a031690565b82818337506000910152565b60005b83811015610e38578181015183820152602001610e20565b83811115610e47576000848401525b50505050565b601f01601f19169056fea265627a7a7230582036b7ce603f8c146b02f7241707b8cd8623c2d820f3a9f47f7e261bf5ef914f876c6578706572696d656e74616cf50037",
  "source": "// https://github.com/kanthgithub/ticketbooking/tree/main/contracts\n// https://jeancvllr.medium.com/solidity-tutorial-all-about-structs-b3e7ca398b1e\n// SPDX-License-Identifier: MIT\npragma solidity >0.5.0;\npragma experimental ABIEncoderV2;\nimport \"./interfaces/TotoSlotStructLib.sol\";\n  \n// Creating a contract \ncontract TotoSlots {    \n\n    // Declaring state variables of a type of fixed-size array \n    address public owner;  \n    uint[6][] private arr_data;        \n    uint256[] private arr_test;    \n    \n    // // Storage variables for Issuers(issuerAddress -> Issuer)\n    // mapping(address => TotoSlotStructLib.Issuer) public issuerMap;\n\n    // // Storage variables for TotoSlotsData\n    // // ticketId -> TotoSlotsData\n    // mapping(string => TotoSlotStructLib.TotoSlotsData) public TotoSlotsDataMap;\n\n    // // ticketId -> issuerAddress \n    // mapping(string => address) public TotoSlotsDataIssuerMap;\n\n    // modifier onlyOwner {\n    //     require(msg.sender == owner, \"only Owner can invoke the function\");\n    //     _;\n    // }\n\n    // function getOwner() public view returns(address){\n    //     return owner;\n    // }\n\n    // modifier isIssuerAuthorised(address issuerAddress){\n    //     require(issuerMap[msg.sender].issuerAddress == issuerAddress , \"not Authorized to Invoke the function\");\n    //     _;\n    // }\n       \n    // Creating mapping    \n    mapping (address => TotoSlotStructLib.TotoSlotsData) totoSlots;\n    address[] public slotAccounts;\n    // TotoSlotStructLib.TotoSlotsData[] public slotAccounts;\n    \n    // Function adding values to the mapping\n    function setTotoSlotsData(address _address, string memory _issuerEmail, uint[6][] memory _slotsData) public {        \n        // TotoSlotStructLib.TotoSlotsData memory newSlotData = TotoSlotStructLib.TotoSlotsData({\n        //     issuerAddress: _address,\n        //     issuerEmail: _issuerEmail,\n        //     slotsData: _slotsData           \n        // });\n \n        // // Create a request instance\n        // slotAccounts.push(newSlotData);    \n\n        TotoSlotStructLib.TotoSlotsData memory newSlotData = totoSlots[_address];\n        newSlotData.issuerAddress = _address;\n        newSlotData.issuerEmail = _issuerEmail;\n        newSlotData.slotsData = _slotsData;\n\n        // Create a request instance\n        slotAccounts.push(_address);        \n    }\n\n    function getslotAccountsAddress() view public returns(address) {         \n        for(uint i=0; i<=slotAccounts.length; i++){            \n            return slotAccounts[i];\n        }\n    }\n\n    // Function to get all data of dynamic array \n    function getTotoSlotsData(address _address) view public returns(address, string memory, uint[6][] memory) { \n        address _issuerAddress = totoSlots[_address].issuerAddress;\n        string memory _issuerEmail = totoSlots[_address].issuerEmail;\n        uint[6][] memory _slotsData = totoSlots[_address].slotsData;\n             \n        return (_issuerAddress, _issuerEmail, _slotsData);\n    }\n\n      \n    // Function to add data in dynamic array test\n    function addData(uint256 num) public {        \n        arr_test.push(num);\n    }\n\n    // Function to search an element in dynamic array\n    function search(uint256 num) view public returns(bool) {\n        uint i;        \n        for(i=0; i<arr_test.length; i++) {\n            if(arr_test[i] == num) {\n                return true;\n            }\n        }        \n        if(i >= arr_test.length)\n        return false;\n    } \n\n    // Function to store all data in dynamic array \n    function array_pushData(uint[6][] memory slotListNumbers) public { \n        // Dynamic array outright with its elements are arrays of fixed size\n        uint count = slotListNumbers.length;\n        arr_data = new uint[6][](count);        \n        for(uint idx=0; idx<count; idx++) { \n            arr_data[idx] = slotListNumbers[idx];           \n        }                                            \n    }          \n\n    // Function to get all data of dynamic array \n    function array_popAllData() view public returns(uint[6][] memory) {    \n        return arr_data;\n    }\n\n    // Defining a function to find the length of the array\n    function array_getLength() view public returns(uint256) {  \n        uint x = arr_data.length;\n        return x; \n    }  \n\n    // Return an array stored in the dynamic dimension will throw if index > flags.length-1 (index starts at 0)\n    function array_getArray(uint256 index) view public returns(uint[6] memory) {\n        return(arr_data[index]);\n    }   \n     \n    // Current block timestamp is returned by now (http://www.unixtimestamp.com/)\n    function time_Call() view public returns(uint256) {        \n        return block.timestamp;\n    }\n\n    // Block Number is returned using block.number\n    function block_Call() view public returns(uint256) {\n        return block.number; \n    }\n    \n}\n",
  "sourcePath": "/home/syoo/Documents/BlockChain/Eth_Toto_Board/contracts/TotoSlots.sol",
  "compiler": {
    "name": "solc",
    "version": "0.5.1+commit.c8a2cb62.Emscripten.clang"
  },
  "schemaVersion": "3.4.3",
  "updatedAt": "2021-12-16T04:28:29.918Z",
  "networkType": "ethereum",
  "devdoc": {
    "methods": {}
  },
  "userdoc": {
    "methods": {}
  }
}