{
  "contractName": "TotoSlots",
  "abi": [
    {
      "constant": true,
      "inputs": [
        {
          "name": "",
          "type": "uint256"
        }
      ],
      "name": "slotAccounts",
      "outputs": [
        {
          "name": "",
          "type": "address"
        }
      ],
      "payable": false,
      "stateMutability": "view",
      "type": "function"
    },
    {
      "constant": true,
      "inputs": [],
      "name": "getOwner",
      "outputs": [
        {
          "name": "",
          "type": "address"
        }
      ],
      "payable": false,
      "stateMutability": "view",
      "type": "function"
    },
    {
      "constant": false,
      "inputs": [
        {
          "name": "_address",
          "type": "address"
        },
        {
          "name": "_issuerUID",
          "type": "string"
        },
        {
          "name": "_issuerName",
          "type": "string"
        },
        {
          "name": "_issuerEmail",
          "type": "string"
        },
        {
          "name": "_slotsData",
          "type": "uint256[6][]"
        },
        {
          "name": "_issuerTime",
          "type": "string"
        }
      ],
      "name": "setTotoSlotsData",
      "outputs": [],
      "payable": false,
      "stateMutability": "nonpayable",
      "type": "function"
    },
    {
      "constant": true,
      "inputs": [
        {
          "name": "_inputAddress",
          "type": "address"
        }
      ],
      "name": "getTotoSlotsData",
      "outputs": [
        {
          "name": "",
          "type": "address"
        },
        {
          "name": "",
          "type": "string"
        },
        {
          "name": "",
          "type": "string"
        },
        {
          "name": "",
          "type": "string"
        },
        {
          "name": "",
          "type": "uint256[6][]"
        },
        {
          "name": "",
          "type": "string"
        }
      ],
      "payable": false,
      "stateMutability": "view",
      "type": "function"
    },
    {
      "constant": true,
      "inputs": [],
      "name": "countSlotAccounts",
      "outputs": [
        {
          "name": "",
          "type": "uint256"
        }
      ],
      "payable": false,
      "stateMutability": "view",
      "type": "function"
    },
    {
      "constant": true,
      "inputs": [],
      "name": "getSlotAccounts",
      "outputs": [
        {
          "name": "",
          "type": "address[]"
        }
      ],
      "payable": false,
      "stateMutability": "view",
      "type": "function"
    },
    {
      "constant": false,
      "inputs": [
        {
          "name": "num",
          "type": "uint256"
        }
      ],
      "name": "addData",
      "outputs": [],
      "payable": false,
      "stateMutability": "nonpayable",
      "type": "function"
    },
    {
      "constant": true,
      "inputs": [
        {
          "name": "num",
          "type": "uint256"
        }
      ],
      "name": "search",
      "outputs": [
        {
          "name": "",
          "type": "bool"
        }
      ],
      "payable": false,
      "stateMutability": "view",
      "type": "function"
    },
    {
      "constant": false,
      "inputs": [
        {
          "name": "slotListNumbers",
          "type": "uint256[6][]"
        }
      ],
      "name": "array_pushData",
      "outputs": [],
      "payable": false,
      "stateMutability": "nonpayable",
      "type": "function"
    },
    {
      "constant": true,
      "inputs": [],
      "name": "array_popAllData",
      "outputs": [
        {
          "name": "",
          "type": "uint256[6][]"
        }
      ],
      "payable": false,
      "stateMutability": "view",
      "type": "function"
    },
    {
      "constant": true,
      "inputs": [],
      "name": "array_getLength",
      "outputs": [
        {
          "name": "",
          "type": "uint256"
        }
      ],
      "payable": false,
      "stateMutability": "view",
      "type": "function"
    },
    {
      "constant": true,
      "inputs": [
        {
          "name": "index",
          "type": "uint256"
        }
      ],
      "name": "array_getArray",
      "outputs": [
        {
          "name": "",
          "type": "uint256[6]"
        }
      ],
      "payable": false,
      "stateMutability": "view",
      "type": "function"
    },
    {
      "constant": true,
      "inputs": [],
      "name": "time_Call",
      "outputs": [
        {
          "name": "",
          "type": "uint256"
        }
      ],
      "payable": false,
      "stateMutability": "view",
      "type": "function"
    },
    {
      "constant": true,
      "inputs": [],
      "name": "block_Call",
      "outputs": [
        {
          "name": "",
          "type": "uint256"
        }
      ],
      "payable": false,
      "stateMutability": "view",
      "type": "function"
    }
  ],
  "bytecode": "0x608060405234801561001057600080fd5b50611317806100206000396000f3fe6080604052600436106100c9577c01000000000000000000000000000000000000000000000000000000006000350463150a9d7081146100ce5780631c3bbddc146100f5578063260ac3b914610408578063356f4cd01461048e57806347824e13146104f05780635bbdab1e146105d55780637fc5ddc1146105ea578063893d20e81461064f578063c44c913e14610680578063d1a9d63914610695578063e5d824a7146108ed578063f813ec1d14610917578063f86b8fdc14610941578063fc156fe014610956575b600080fd5b3480156100da57600080fd5b506100e3610994565b60408051918252519081900360200190f35b34801561010157600080fd5b50610406600480360360c081101561011857600080fd5b600160a060020a03823516919081019060408101602082013564010000000081111561014357600080fd5b82018360208201111561015557600080fd5b8035906020019184600183028401116401000000008311171561017757600080fd5b91908080601f01602080910402602001604051908101604052809392919081815260200183838082843760009201919091525092959493602081019350359150506401000000008111156101ca57600080fd5b8201836020820111156101dc57600080fd5b803590602001918460018302840111640100000000831117156101fe57600080fd5b91908080601f016020809104026020016040519081016040528093929190818152602001838380828437600092019190915250929594936020810193503591505064010000000081111561025157600080fd5b82018360208201111561026357600080fd5b8035906020019184600183028401116401000000008311171561028557600080fd5b91908080601f01602080910402602001604051908101604052809392919081815260200183838082843760009201919091525092959493602081019350359150506401000000008111156102d857600080fd5b8201836020820111156102ea57600080fd5b803590602001918460c083028401116401000000008311171561030c57600080fd5b9190808060200260200160405190810160405280939291908181526020016000905b8282101561036f576040805160c08181019092529080840287019060069083908390808284376000920191909152505050815260019091019060200161032e565b5093969594602081019450359250505064010000000081111561039157600080fd5b8201836020820111156103a357600080fd5b803590602001918460018302840111640100000000831117156103c557600080fd5b91908080601f01602080910402602001604051908101604052809392919081815260200183838082843760009201919091525092955061099b945050505050565b005b34801561041457600080fd5b5061041d610b07565b60405180806020018281038252838181518152602001915080516000925b8184101561047d5760208085028401015160c080838360005b8381101561046c578181015183820152602001610454565b50505050905001926001019261043b565b925050509250505060405180910390f35b34801561049a57600080fd5b506104b8600480360360208110156104b157600080fd5b5035610b85565b604051808260c080838360005b838110156104dd5781810151838201526020016104c5565b5050505090500191505060405180910390f35b3480156104fc57600080fd5b506104066004803603602081101561051357600080fd5b81019060208101813564010000000081111561052e57600080fd5b82018360208201111561054057600080fd5b803590602001918460c083028401116401000000008311171561056257600080fd5b9190808060200260200160405190810160405280939291908181526020016000905b828210156105c5576040805160c081810190925290808402870190600690839083908082843760009201919091525050508152600190910190602001610584565b50939650610bdf95505050505050565b3480156105e157600080fd5b506100e3610c8c565b3480156105f657600080fd5b506105ff610c92565b60408051602080825283518183015283519192839290830191858101910280838360005b8381101561063b578181015183820152602001610623565b505050509050019250505060405180910390f35b34801561065b57600080fd5b50610664610cf4565b60408051600160a060020a039092168252519081900360200190f35b34801561068c57600080fd5b506100e3610d03565b3480156106a157600080fd5b506106c8600480360360208110156106b857600080fd5b5035600160a060020a0316610d07565b6040518087600160a060020a0316600160a060020a03168152602001806020018060200180602001806020018060200186810386528b818151815260200191508051906020019080838360005b8381101561072d578181015183820152602001610715565b50505050905090810190601f16801561075a5780820380516001836020036101000a031916815260200191505b5086810385528a5181528a516020918201918c019080838360005b8381101561078d578181015183820152602001610775565b50505050905090810190601f1680156107ba5780820380516001836020036101000a031916815260200191505b5086810384528951815289516020918201918b019080838360005b838110156107ed5781810151838201526020016107d5565b50505050905090810190601f16801561081a5780820380516001836020036101000a031916815260200191505b5086810383528851815288516000918a91906020015b818410156108725760208085028401015160c080838360005b83811015610861578181015183820152602001610849565b505050509050019260010192610830565b89810385528a5181528a5160209182019450908b019250905080838360005b838110156108a9578181015183820152602001610891565b50505050905090810190601f1680156108d65780820380516001836020036101000a031916815260200191505b509b50505050505050505050505060405180910390f35b3480156108f957600080fd5b506104066004803603602081101561091057600080fd5b5035611077565b34801561092357600080fd5b506106646004803603602081101561093a57600080fd5b50356110ac565b34801561094d57600080fd5b506100e36110d4565b34801561096257600080fd5b506109806004803603602081101561097957600080fd5b50356110d8565b604080519115158252519081900360200190f35b6004545b90565b6040805160e081018252600160a060020a0388811680835260208084018a81528486018a9052606085018990526080850188905260a085018790524260c0860152600092835260038252949091208351815473ffffffffffffffffffffffffffffffffffffffff191693169290921782559251805192939192610a249260018501920190611132565b5060408201518051610a40916002840191602090910190611132565b5060608201518051610a5c916003840191602090910190611132565b5060808201518051610a789160048401916020909101906111b0565b5060a08201518051610a94916005840191602090910190611132565b5060c091909101516006909101555050600480546001810182556000919091527f8a35acfbc15ff81a39ae7d344fd709f28e8600b4aa8c65c6b64bfe7fe36bd19b01805473ffffffffffffffffffffffffffffffffffffffff1916600160a060020a039590951694909417909355505050565b60606001805480602002602001604051908101604052809291908181526020016000905b82821015610b7c576000848152602090206040805160c08101918290529160068581029091019182845b815481526020019060010190808311610b5557505050505081526020019060010190610b2b565b50505050905090565b610b8d611206565b6001805483908110610b9b57fe5b600091825260209091206040805160c0810191829052926006908102909201919082845b815481526020019060010190808311610bbf57505050505090505b919050565b8051604080518281526020808402820101909152818015610c1a57816020015b610c07611206565b815260200190600190039081610bff5790505b508051610c2f91600191602090910190611225565b5060005b81811015610c87578281815181101515610c4957fe5b90602001906020020151600182815481101515610c6257fe5b9060005260206000209060060201906006610c7e92919061126f565b50600101610c33565b505050565b60015490565b60606004805480602002602001604051908101604052809291908181526020018280548015610cea57602002820191906000526020600020905b8154600160a060020a03168152600190910190602001808311610ccc575b5050505050905090565b600054600160a060020a031690565b4390565b600160a060020a0381811660009081526003602090815260408083208054600191820180548451600261010095831615959095026000190190911693909304601f8101869004860284018601909452838352949560609586958695869586959094169385939092909190830182828015610dc25780601f10610d9757610100808354040283529160200191610dc2565b820191906000526020600020905b815481529060010190602001808311610da557829003601f168201915b505050600160a060020a038c16600090815260036020908152604091829020600290810180548451601f60001961010060018516150201909216939093049081018490048402830184019094528382529596506060959094509250830182828015610e6e5780601f10610e4357610100808354040283529160200191610e6e565b820191906000526020600020905b815481529060010190602001808311610e5157829003601f168201915b50505050600160a060020a038c166000908152600360208181526040928390209091018054835160026001831615610100026000190190921691909104601f810184900484028201840190945283815294955060609493509190830182828015610f195780601f10610eee57610100808354040283529160200191610f19565b820191906000526020600020905b815481529060010190602001808311610efc57829003601f168201915b505050600160a060020a038e16600090815260036020908152604080832060040180548251818502810185019093528083529697506060969195509350919084015b82821015610fac576000848152602090206040805160c08101918290529160068581029091019182845b815481526020019060010190808311610f8557505050505081526020019060010190610f5b565b50505050600160a060020a038d166000908152600360209081526040918290206005018054835160026001831615610100026000190190921691909104601f81018490048402820184019094528381529394506060939290918301828280156110565780601f1061102b57610100808354040283529160200191611056565b820191906000526020600020905b81548152906001019060200180831161103957829003601f168201915b50999f50979d50959b50939950919750909550505050505091939550919395565b600280546001810182556000919091527f405787fa12a823e0f2b7631cc41b3ba8828b3321ca811111fa75cd3aa3bb5ace0155565b60048054829081106110ba57fe5b600091825260209091200154600160a060020a0316905081565b4290565b6000805b60025481101561111957826002828154811015156110f657fe5b90600052602060002001541415611111576001915050610bda565b6001016110dc565b600254811061112c576000915050610bda565b50919050565b828054600181600116156101000203166002900490600052602060002090601f016020900481019282601f1061117357805160ff19168380011785556111a0565b828001600101855582156111a0579182015b828111156111a0578251825591602001919060010190611185565b506111ac92915061129c565b5090565b8280548282559060005260206000209060060281019282156111fa579160200282015b828111156111fa5782516111ea908390600661126f565b50916020019190600601906111d3565b506111ac9291506112b6565b60c0604051908101604052806006906020820280388339509192915050565b8280548282559060005260206000209060060281019282156111fa579160200282015b828111156111fa57825161125f908390600661126f565b5091602001919060060190611248565b82600681019282156111a057916020028201828111156111a0578251825591602001919060010190611185565b61099891905b808211156111ac57600081556001016112a2565b61099891905b808211156111ac5760006112d082826112d9565b506006016112bc565b506112e890600681019061129c565b5056fea165627a7a723058201de1a1d14c2d5303fb82ba479473a9537c5e9aa0947dd6ddbbf7f2880dcf26240029",
  "source": "// https://github.com/kanthgithub/ticketbooking/tree/main/contracts\n// https://jeancvllr.medium.com/solidity-tutorial-all-about-structs-b3e7ca398b1e\n// SPDX-License-Identifier: MIT\npragma solidity >0.5.0;\nimport \"./interfaces/TotoSlotStructLib.sol\";\n  \n// Creating a contract \ncontract TotoSlots {    \n\n    // Declaring state variables of a type of fixed-size array \n    address private owner;  \n    uint[6][] private arr_data;        \n    uint256[] private arr_test;    \n    \n    // Creating mapping a storage variables for TotoSlots(issuerAddress -> TotoSlotsData)\n    mapping(address => TotoSlotStructLib.TotoSlotsData) totoSlots;       \n\n    // Save all the Slot‘s addresses who registered on a contract in an array.\n    address[] public slotAccounts;    \n    \n    modifier onlyOwner {\n        require(msg.sender == owner, \"only Owner can invoke the function\");\n        _;\n    }\n\n    function getOwner() public view returns(address){\n        return owner;\n    }\n\n    modifier isIssuerAuthorised(address issuerAddress){        \n        require(totoSlots[msg.sender].issuerAddress == issuerAddress , \"not Authorized to Invoke the function\");\n        _;\n    }\n    \n    // Function adding values to the mapping\n    function setTotoSlotsData(address _address, string memory _issuerUID, string memory _issuerName, string memory _issuerEmail, uint[6][] memory _slotsData, string memory _issuerTime) public {    \n     \n        totoSlots[_address] = TotoSlotStructLib.TotoSlotsData(\n            {\n                issuerAddress: _address,\n                issuerUID: _issuerUID,\n                issuerName: _issuerName,\n                issuerEmail: _issuerEmail,\n                slotsData: _slotsData,\n                createdTime: _issuerTime,\n                createdBlockTime : block.timestamp\n            }\n        );\n        \n        // Create a request instance        \n        slotAccounts.push(_address);       \n    }\n\n    // Function to get all data of dynamic array \n    function getTotoSlotsData(address _inputAddress) view public returns (address, string memory, string memory, string memory, uint[6][] memory, string memory) { \n     \n        address _address = totoSlots[_inputAddress].issuerAddress;\n        string memory _uid = totoSlots[_inputAddress].issuerUID;\n        string memory _name = totoSlots[_inputAddress].issuerName;\n        string memory _email = totoSlots[_inputAddress].issuerEmail;\n        uint[6][] memory _slotsData = totoSlots[_inputAddress].slotsData;\n        string memory _createdTime = totoSlots[_inputAddress].createdTime;        \n\n        return (_address, _uid, _name, _email, _slotsData, _createdTime);\n    }    \n\n    // Counting dynamic array from a Mapping\n    function countSlotAccounts() view public returns (uint) {\n        return slotAccounts.length;\n    }\n\n    // Function to get all stored addresses of dynamic array \n    function getSlotAccounts() view public returns (address[] memory) {\n        return slotAccounts;\n    }    \n\n    // Function to add data in dynamic array test\n    function addData(uint256 num) public {        \n        arr_test.push(num);\n    }\n\n    // Function to search an element in dynamic array\n    function search(uint256 num) view public returns (bool) {\n        uint i;        \n        for(i=0; i<arr_test.length; i++) {\n            if(arr_test[i] == num) {\n                return true;\n            }\n        }        \n        if(i >= arr_test.length)\n        return false;\n    } \n\n    // Function to store all data in dynamic array \n    function array_pushData(uint[6][] memory slotListNumbers) public { \n        // Dynamic array outright with its elements are arrays of fixed size\n        uint count = slotListNumbers.length;\n        arr_data = new uint[6][](count);        \n        for(uint idx=0; idx<count; idx++) { \n            arr_data[idx] = slotListNumbers[idx];           \n        }                                            \n    }          \n\n    // Function to get all data of dynamic array \n    function array_popAllData() view public returns (uint[6][] memory) {    \n        return arr_data;\n    }\n\n    // Defining a function to find the length of the array\n    function array_getLength() view public returns (uint256) {  \n        uint x = arr_data.length;\n        return x; \n    }  \n\n    // Return an array stored in the dynamic dimension will throw if index > flags.length-1 (index starts at 0)\n    function array_getArray(uint256 index) view public returns (uint[6] memory) {\n        return(arr_data[index]);\n    }   \n     \n    // Current block timestamp is returned by now ( http://www.unixtimestamp.com/ ex, $ date -d @block.timestamp )\n    function time_Call() view public returns (uint256) {        \n        return block.timestamp;\n    }\n\n    // Block Number is returned using block.number\n    function block_Call() view public returns (uint256) {\n        return block.number; \n    }\n    \n}\n",
  "sourcePath": "/home/syoo/Documents/BlockChain/Eth_Toto_Board/contracts/TotoSlots.sol",
  "compiler": {
    "name": "solc",
    "version": "0.5.1+commit.c8a2cb62.Emscripten.clang"
  },
  "schemaVersion": "3.4.3",
  "updatedAt": "2021-12-19T19:59:22.054Z",
  "networkType": "ethereum",
  "devdoc": {
    "methods": {}
  },
  "userdoc": {
    "methods": {}
  }
}