{
  "contractName": "TotoSlots",
  "abi": [
    {
      "constant": true,
      "inputs": [
        {
          "name": "",
          "type": "uint256"
        }
      ],
      "name": "slotAccounts",
      "outputs": [
        {
          "name": "",
          "type": "address"
        }
      ],
      "payable": false,
      "stateMutability": "view",
      "type": "function"
    },
    {
      "constant": true,
      "inputs": [],
      "name": "getOwner",
      "outputs": [
        {
          "name": "",
          "type": "address"
        }
      ],
      "payable": false,
      "stateMutability": "view",
      "type": "function"
    },
    {
      "constant": false,
      "inputs": [
        {
          "name": "_address",
          "type": "address"
        },
        {
          "name": "_issuerUID",
          "type": "string"
        },
        {
          "name": "_issuerName",
          "type": "string"
        },
        {
          "name": "_issuerEmail",
          "type": "string"
        },
        {
          "name": "_slotsData",
          "type": "uint256[6][]"
        },
        {
          "name": "_issuerTime",
          "type": "string"
        }
      ],
      "name": "setTotoSlotsData",
      "outputs": [],
      "payable": false,
      "stateMutability": "nonpayable",
      "type": "function"
    },
    {
      "constant": true,
      "inputs": [
        {
          "name": "_inputAddress",
          "type": "address"
        }
      ],
      "name": "getTotoSlotsData",
      "outputs": [
        {
          "name": "",
          "type": "address"
        },
        {
          "name": "",
          "type": "string"
        },
        {
          "name": "",
          "type": "string"
        },
        {
          "name": "",
          "type": "string"
        },
        {
          "name": "",
          "type": "uint256[6][]"
        },
        {
          "name": "",
          "type": "string"
        },
        {
          "name": "",
          "type": "uint256"
        }
      ],
      "payable": false,
      "stateMutability": "view",
      "type": "function"
    },
    {
      "constant": true,
      "inputs": [
        {
          "name": "_inputAddress",
          "type": "address"
        }
      ],
      "name": "getAllTotoSlotsData",
      "outputs": [
        {
          "components": [
            {
              "name": "issuerAddress",
              "type": "address"
            },
            {
              "name": "issuerUID",
              "type": "string"
            },
            {
              "name": "issuerName",
              "type": "string"
            },
            {
              "name": "issuerEmail",
              "type": "string"
            },
            {
              "name": "slotsData",
              "type": "uint256[6][]"
            },
            {
              "name": "createdTime",
              "type": "string"
            },
            {
              "name": "createdBlockTime",
              "type": "uint256"
            }
          ],
          "name": "",
          "type": "tuple[]"
        }
      ],
      "payable": false,
      "stateMutability": "view",
      "type": "function"
    },
    {
      "constant": true,
      "inputs": [],
      "name": "countAllSlotAccounts",
      "outputs": [
        {
          "name": "",
          "type": "uint256"
        }
      ],
      "payable": false,
      "stateMutability": "view",
      "type": "function"
    },
    {
      "constant": true,
      "inputs": [
        {
          "name": "_address",
          "type": "address"
        }
      ],
      "name": "countSlotAccount",
      "outputs": [
        {
          "name": "",
          "type": "uint256"
        }
      ],
      "payable": false,
      "stateMutability": "view",
      "type": "function"
    },
    {
      "constant": true,
      "inputs": [],
      "name": "getAllSlotAccounts",
      "outputs": [
        {
          "name": "",
          "type": "address[]"
        }
      ],
      "payable": false,
      "stateMutability": "view",
      "type": "function"
    },
    {
      "constant": false,
      "inputs": [
        {
          "name": "num",
          "type": "uint256"
        }
      ],
      "name": "addData",
      "outputs": [],
      "payable": false,
      "stateMutability": "nonpayable",
      "type": "function"
    },
    {
      "constant": true,
      "inputs": [
        {
          "name": "num",
          "type": "uint256"
        }
      ],
      "name": "search",
      "outputs": [
        {
          "name": "",
          "type": "bool"
        }
      ],
      "payable": false,
      "stateMutability": "view",
      "type": "function"
    },
    {
      "constant": false,
      "inputs": [
        {
          "name": "slotListNumbers",
          "type": "uint256[6][]"
        }
      ],
      "name": "array_pushData",
      "outputs": [],
      "payable": false,
      "stateMutability": "nonpayable",
      "type": "function"
    },
    {
      "constant": true,
      "inputs": [],
      "name": "array_popAllData",
      "outputs": [
        {
          "name": "",
          "type": "uint256[6][]"
        }
      ],
      "payable": false,
      "stateMutability": "view",
      "type": "function"
    },
    {
      "constant": true,
      "inputs": [],
      "name": "array_getLength",
      "outputs": [
        {
          "name": "",
          "type": "uint256"
        }
      ],
      "payable": false,
      "stateMutability": "view",
      "type": "function"
    },
    {
      "constant": true,
      "inputs": [
        {
          "name": "index",
          "type": "uint256"
        }
      ],
      "name": "array_getArray",
      "outputs": [
        {
          "name": "",
          "type": "uint256[6]"
        }
      ],
      "payable": false,
      "stateMutability": "view",
      "type": "function"
    },
    {
      "constant": true,
      "inputs": [],
      "name": "time_Call",
      "outputs": [
        {
          "name": "",
          "type": "uint256"
        }
      ],
      "payable": false,
      "stateMutability": "view",
      "type": "function"
    },
    {
      "constant": true,
      "inputs": [],
      "name": "block_Call",
      "outputs": [
        {
          "name": "",
          "type": "uint256"
        }
      ],
      "payable": false,
      "stateMutability": "view",
      "type": "function"
    }
  ],
  "bytecode": "0x608060405234801561001057600080fd5b506118df806100206000396000f3fe6080604052600436106100df577c010000000000000000000000000000000000000000000000000000000060003504631c3bbddc81146100e4578063260ac3b914610106578063356f4cd01461013157806347824e131461015e57806353e8a9be1461017e5780635bbdab1e146101ab5780635fa6d686146101cd578063893d20e8146101e25780639e0f9f4e14610204578063b75e623914610224578063c44c913e14610246578063d1a9d6391461025b578063e5d824a71461028e578063f813ec1d146102ae578063f86b8fdc146102ce578063fc156fe0146102e3575b600080fd5b3480156100f057600080fd5b506101046100ff36600461126d565b610310565b005b34801561011257600080fd5b5061011b61047c565b6040516101289190611759565b60405180910390f35b34801561013d57600080fd5b5061015161014c3660046113a1565b6104fb565b604051610128919061177b565b34801561016a57600080fd5b5061010461017936600461136c565b610555565b34801561018a57600080fd5b5061019e610199366004611247565b610602565b604051610128919061176a565b3480156101b757600080fd5b506101c0610a13565b6040516101289190611797565b3480156101d957600080fd5b506101c0610a19565b3480156101ee57600080fd5b506101f7610a1f565b60405161012891906116a9565b34801561021057600080fd5b506101c061021f366004611247565b610a2e565b34801561023057600080fd5b50610239610a87565b6040516101289190611748565b34801561025257600080fd5b506101c0610ae9565b34801561026757600080fd5b5061027b610276366004611247565b610aed565b60405161012897969594939291906116bd565b34801561029a57600080fd5b506101046102a93660046113a1565b610e3f565b3480156102ba57600080fd5b506101f76102c93660046113a1565b610e74565b3480156102da57600080fd5b506101c0610e9c565b3480156102ef57600080fd5b506103036102fe3660046113a1565b610ea0565b6040516101289190611789565b6040805160e081018252600160a060020a0388811680835260208084018a81528486018a9052606085018990526080850188905260a085018790524260c0860152600092835260038252949091208351815473ffffffffffffffffffffffffffffffffffffffff1916931692909217825592518051929391926103999260018501920190610ef7565b50604082015180516103b5916002840191602090910190610ef7565b50606082015180516103d1916003840191602090910190610ef7565b50608082015180516103ed916004840191602090910190610f75565b5060a08201518051610409916005840191602090910190610ef7565b5060c091909101516006909101555050600480546001810182556000919091527f8a35acfbc15ff81a39ae7d344fd709f28e8600b4aa8c65c6b64bfe7fe36bd19b01805473ffffffffffffffffffffffffffffffffffffffff1916600160a060020a039590951694909417909355505050565b60606001805480602002602001604051908101604052809291908181526020016000905b828210156104f1576000848152602090206040805160c08101918290529160068581029091019182845b8154815260200190600101908083116104ca575050505050815260200190600101906104a0565b5050505090505b90565b610503610fcb565b600180548390811061051157fe5b600091825260209091206040805160c0810191829052926006908102909201919082845b81548152602001906001019080831161053557505050505090505b919050565b805160408051828152602080840282010190915281801561059057816020015b61057d610fcb565b8152602001906001900390816105755790505b5080516105a591600191602090910190610fea565b5060005b818110156105fd5782818151811015156105bf57fe5b906020019060200201516001828154811015156105d857fe5b90600052602060002090600602019060066105f4929190611034565b506001016105a9565b505050565b60606000805b6004548110156106555783600160a060020a031660048281548110151561062b57fe5b600091825260209091200154600160a060020a0316141561064d576001909101905b600101610608565b5060608160405190808252806020026020018201604052801561069257816020015b61067f611061565b8152602001906001900390816106775790505b50905061069d611061565b600160a060020a03858116600090815260036020908152604091829020825160e08101845281549094168452600180820180548551600261010094831615949094026000190190911692909204601f81018590048502830185019095528482529193858401939192918301828280156107575780601f1061072c57610100808354040283529160200191610757565b820191906000526020600020905b81548152906001019060200180831161073a57829003601f168201915b5050509183525050600282810180546040805160206001841615610100026000190190931694909404601f810183900483028501830190915280845293810193908301828280156107e95780601f106107be576101008083540402835291602001916107e9565b820191906000526020600020905b8154815290600101906020018083116107cc57829003601f168201915b505050918352505060038201805460408051602060026001851615610100026000190190941693909304601f810184900484028201840190925281815293820193929183018282801561087d5780601f106108525761010080835404028352916020019161087d565b820191906000526020600020905b81548152906001019060200180831161086057829003601f168201915b5050505050815260200160048201805480602002602001604051908101604052809291908181526020016000905b828210156108fc576000848152602090206040805160c08101918290529160068581029091019182845b8154815260200190600101908083116108d5575050505050815260200190600101906108ab565b5050509082525060058201805460408051602060026001851615610100026000190190941693909304601f810184900484028201840190925281815293820193929183018282801561098f5780601f106109645761010080835404028352916020019161098f565b820191906000526020600020905b81548152906001019060200180831161097257829003601f168201915b505050918352505060069190910154602090910152905060005b600454811015610a095785600160a060020a03166004828154811015156109cc57fe5b600091825260209091200154600160a060020a03161415610a01578183828151811015156109f657fe5b602090810290910101525b6001016109a9565b5090949350505050565b60015490565b60045490565b600054600160a060020a031690565b600080805b600454811015610a805783600160a060020a0316600482815481101515610a5657fe5b600091825260209091200154600160a060020a03161415610a78576001909101905b600101610a33565b5092915050565b60606004805480602002602001604051908101604052809291908181526020018280548015610adf57602002820191906000526020600020905b8154600160a060020a03168152600190910190602001808311610ac1575b5050505050905090565b4390565b600060608060608060606000610b01611061565b600160a060020a03898116600090815260036020908152604091829020825160e08101845281549094168452600180820180548551600261010094831615949094026000190190911692909204601f8101859004850283018501909552848252919385840193919291830182828015610bbb5780601f10610b9057610100808354040283529160200191610bbb565b820191906000526020600020905b815481529060010190602001808311610b9e57829003601f168201915b5050509183525050600282810180546040805160206001841615610100026000190190931694909404601f81018390048302850183019091528084529381019390830182828015610c4d5780601f10610c2257610100808354040283529160200191610c4d565b820191906000526020600020905b815481529060010190602001808311610c3057829003601f168201915b505050918352505060038201805460408051602060026001851615610100026000190190941693909304601f8101849004840282018401909252818152938201939291830182828015610ce15780601f10610cb657610100808354040283529160200191610ce1565b820191906000526020600020905b815481529060010190602001808311610cc457829003601f168201915b5050505050815260200160048201805480602002602001604051908101604052809291908181526020016000905b82821015610d60576000848152602090206040805160c08101918290529160068581029091019182845b815481526020019060010190808311610d3957505050505081526020019060010190610d0f565b5050509082525060058201805460408051602060026001851615610100026000190190941693909304601f8101849004840282018401909252818152938201939291830182828015610df35780601f10610dc857610100808354040283529160200191610df3565b820191906000526020600020905b815481529060010190602001808311610dd657829003601f168201915b50505091835250506006919091015460209182015281519082015160408301516060840151608085015160a086015160c090960151949f939e50919c509a509850919650945092505050565b600280546001810182556000919091527f405787fa12a823e0f2b7631cc41b3ba8828b3321ca811111fa75cd3aa3bb5ace0155565b6004805482908110610e8257fe5b600091825260209091200154600160a060020a0316905081565b4290565b600080805b600254811015610ee45783600282815481101515610ebf57fe5b90600052602060002001541415610edc5750600191506105509050565b600101610ea5565b6002548110610a80575060009392505050565b828054600181600116156101000203166002900490600052602060002090601f016020900481019282601f10610f3857805160ff1916838001178555610f65565b82800160010185558215610f65579182015b82811115610f65578251825591602001919060010190610f4a565b50610f719291506110a8565b5090565b828054828255906000526020600020906006028101928215610fbf579160200282015b82811115610fbf578251610faf9083906006611034565b5091602001919060060190610f98565b50610f719291506110c2565b60c0604051908101604052806006906020820280388339509192915050565b828054828255906000526020600020906006028101928215610fbf579160200282015b82811115610fbf5782516110249083906006611034565b509160200191906006019061100d565b8260068101928215610f655791602002820182811115610f65578251825591602001919060010190610f4a565b60e0604051908101604052806000600160a060020a031681526020016060815260200160608152602001606081526020016060815260200160608152602001600081525090565b6104f891905b80821115610f7157600081556001016110ae565b6104f891905b80821115610f715760006110dc82826110e5565b506006016110c8565b506110f49060068101906110a8565b50565b60006111038235611843565b9392505050565b6000601f8201831361111b57600080fd5b813561112e611129826117cc565b6117a5565b915081818352602084019350602081019050838560c084028201111561115357600080fd5b60005b838110156111815781611169888261118b565b84525060209092019160c09190910190600101611156565b5050505092915050565b6000601f8201831361119c57600080fd5b60066111aa611129826117ed565b915081838560208402820111156111c057600080fd5b60005b8381101561118157816111d6888261123b565b84525060209283019291909101906001016111c3565b6000601f820183136111fd57600080fd5b813561120b6111298261180b565b9150808252602083016020830185838301111561122757600080fd5b61123283828461185f565b50505092915050565b600061110382356104f8565b60006020828403121561125957600080fd5b600061126584846110f7565b949350505050565b60008060008060008060c0878903121561128657600080fd5b600061129289896110f7565b965050602087013567ffffffffffffffff8111156112af57600080fd5b6112bb89828a016111ec565b955050604087013567ffffffffffffffff8111156112d857600080fd5b6112e489828a016111ec565b945050606087013567ffffffffffffffff81111561130157600080fd5b61130d89828a016111ec565b935050608087013567ffffffffffffffff81111561132a57600080fd5b61133689828a0161110a565b92505060a087013567ffffffffffffffff81111561135357600080fd5b61135f89828a016111ec565b9150509295509295509295565b60006020828403121561137e57600080fd5b813567ffffffffffffffff81111561139557600080fd5b6112658482850161110a565b6000602082840312156113b357600080fd5b6000611265848461123b565b6113c881611843565b82525050565b60006113d982611839565b8084526020840193506113eb83611833565b60005b8281101561141b576114018683516113bf565b61140a82611833565b6020969096019591506001016113ee565b5093949350505050565b600061143082611839565b80845260208401935061144283611833565b60005b8281101561141b5761145886835161156f565b61146182611833565b60c096909601959150600101611445565b600061147d82611839565b80845260208401935061148f83611833565b60005b8281101561141b576114a586835161156f565b6114ae82611833565b60c096909601959150600101611492565b60006114ca82611839565b808452602084019350836020820285016114e385611833565b60005b8481101561151a5783830388526114fe8383516115ef565b925061150982611833565b6020989098019791506001016114e6565b50909695505050505050565b61152f8161183d565b611538826104f8565b60005b828110156115685761154e8583516116a0565b61155782611833565b60209590950194915060010161153b565b5050505050565b6115788161183d565b611581826104f8565b60005b82811015611568576115978583516116a0565b6115a082611833565b602095909501949150600101611584565b6113c88161184e565b60006115c582611839565b8084526115d981602086016020860161186b565b6115e28161189b565b9093016020019392505050565b805160009060e084019061160385826113bf565b506020830151848203602086015261161b82826115ba565b9150506040830151848203604086015261163582826115ba565b9150506060830151848203606086015261164f82826115ba565b915050608083015184820360808601526116698282611472565b91505060a083015184820360a086015261168382826115ba565b91505060c083015161169860c08601826116a0565b509392505050565b6113c8816104f8565b602081016116b782846113bf565b92915050565b60e081016116cb828a6113bf565b81810360208301526116dd81896115ba565b905081810360408301526116f181886115ba565b9050818103606083015261170581876115ba565b905081810360808301526117198186611425565b905081810360a083015261172d81856115ba565b905061173c60c08301846116a0565b98975050505050505050565b6020808252810161110381846113ce565b602080825281016111038184611425565b6020808252810161110381846114bf565b60c081016116b78284611526565b602081016116b782846115b1565b602081016116b782846116a0565b60405181810167ffffffffffffffff811182821017156117c457600080fd5b604052919050565b600067ffffffffffffffff8211156117e357600080fd5b5060209081020190565b600067ffffffffffffffff82111561180457600080fd5b5060200290565b600067ffffffffffffffff82111561182257600080fd5b506020601f91909101601f19160190565b60200190565b5190565b50600690565b60006116b782611853565b151590565b600160a060020a031690565b82818337506000910152565b60005b8381101561188657818101518382015260200161186e565b83811115611895576000848401525b50505050565b601f01601f19169056fea265627a7a723058203cc59f51064273ab89459c29ab372616b0dcddd1c823748ea89f8b5b97dc377b6c6578706572696d656e74616cf50037",
  "source": "// https://github.com/kanthgithub/ticketbooking/tree/main/contracts\n// https://jeancvllr.medium.com/solidity-tutorial-all-about-structs-b3e7ca398b1e\n// SPDX-License-Identifier: MIT\npragma solidity >0.5.0;\npragma experimental ABIEncoderV2;\nimport \"./interfaces/TotoSlotStructLib.sol\";\n  \n// Creating a contract \ncontract TotoSlots {    \n\n    // Declaring state variables of a type of fixed-size array \n    address private owner;  \n    uint[6][] private arr_data;        \n    uint256[] private arr_test;    \n    \n    // Creating mapping a storage variables for TotoSlots(issuerAddress -> TotoSlotsData)\n    mapping(address => TotoSlotStructLib.TotoSlotsData) totoSlots;       \n\n    // Save all the Slots addresses who registered on a contract in an array.\n    address[] public slotAccounts;            \n    \n    modifier onlyOwner {\n        require(msg.sender == owner, \"only Owner can invoke the function\");\n        _;\n    }\n\n    function getOwner() public view returns(address){\n        return owner;\n    }\n\n    modifier isIssuerAuthorised(address issuerAddress){        \n        require(totoSlots[msg.sender].issuerAddress == issuerAddress , \"not Authorized to Invoke the function\");\n        _;\n    }\n    \n    // Function adding values to the mapping\n    function setTotoSlotsData(address _address, string memory _issuerUID, string memory _issuerName, string memory _issuerEmail, uint[6][] memory _slotsData, string memory _issuerTime) public {    \n     \n        totoSlots[_address] = TotoSlotStructLib.TotoSlotsData(\n            {\n                issuerAddress: _address,\n                issuerUID: _issuerUID,\n                issuerName: _issuerName,\n                issuerEmail: _issuerEmail,\n                slotsData: _slotsData,\n                createdTime: _issuerTime,\n                createdBlockTime : block.timestamp\n            }\n        );\n        \n        // Create a request instance        \n        slotAccounts.push(_address);                       \n    }    \n\n    // Function to return array of structure TotoSlotsData\n    function getTotoSlotsData(address _inputAddress) public view returns (address, string memory, string memory, string memory, uint[6][] memory, string memory, uint256) { \n        \n        // Copy the data into memory\n        TotoSlotStructLib.TotoSlotsData memory slotsData = totoSlots[_inputAddress];\n               \n        // Break the struct's members out into a tuple in the same order that they appear in the struct\n        return (slotsData.issuerAddress, slotsData.issuerUID, slotsData.issuerName, slotsData.issuerEmail, slotsData.slotsData, slotsData.createdTime, slotsData.createdBlockTime); \n    }\n\n    function getAllTotoSlotsData(address _inputAddress) public view returns (TotoSlotStructLib.TotoSlotsData[] memory) { \n\n        uint count=0;      \n        for(uint i=0; i<slotAccounts.length; i++) {\n            if(slotAccounts[i] == _inputAddress) {\n                count++;\n            }\n        }      \n        \n        TotoSlotStructLib.TotoSlotsData[] memory totoSlotsData = new TotoSlotStructLib.TotoSlotsData[](count); \n\n        // Copy the data into memory\n        TotoSlotStructLib.TotoSlotsData memory slotsData = totoSlots[_inputAddress];\n\n        for(uint i=0; i<slotAccounts.length; i++) {\n            if(slotAccounts[i] == _inputAddress) {\n                totoSlotsData[i] = slotsData;                        \n            }\n        }       \n        // Return Array of structure\n        return totoSlotsData;\n        // https://stackoverflow.com/questions/48877910/how-can-i-return-an-array-of-struct-in-solidity\n        // https://ethereum.stackexchange.com/questions/3589/how-can-i-return-an-array-of-struct-from-a-function/97517\n    }\n\n    // Counting all dynamic array from a Mapping\n    function countAllSlotAccounts() view public returns (uint) {\n        return slotAccounts.length;\n    }\n\n    // Counting specific dynamic array from a Mapping\n    function countSlotAccount(address _address) view public returns (uint) {        \n        uint count=0;      \n        for(uint i=0; i<slotAccounts.length; i++) {\n            if(slotAccounts[i] == _address) {\n                count++;\n            }\n        }           \n        return count;\n    }\n\n    // Function to get all stored addresses of dynamic array \n    function getAllSlotAccounts() view public returns (address[] memory) {\n        return slotAccounts;\n    }    \n    \n    // Function to add data in dynamic array test\n    function addData(uint256 num) public {        \n        arr_test.push(num);\n    }\n\n    // Function to search an element in dynamic array\n    function search(uint256 num) view public returns (bool) {\n        bool searchStatus;\n        uint i;        \n        for(i=0; i<arr_test.length; i++) {\n            if(arr_test[i] == num) {\n                searchStatus = true;\n                return searchStatus;\n            }\n        }        \n        if(i >= arr_test.length)\n        searchStatus = false;\n        return searchStatus;\n    } \n\n    // Function to store all data in dynamic array \n    function array_pushData(uint[6][] memory slotListNumbers) public { \n        // Dynamic array outright with its elements are arrays of fixed size\n        uint count = slotListNumbers.length;\n        arr_data = new uint[6][](count);        \n        for(uint idx=0; idx<count; idx++) { \n            arr_data[idx] = slotListNumbers[idx];           \n        }                                            \n    }          \n\n    // Function to get all data of dynamic array \n    function array_popAllData() view public returns (uint[6][] memory) {    \n        return arr_data;\n    }\n\n    // Defining a function to find the length of the array\n    function array_getLength() view public returns (uint256) {  \n        uint x = arr_data.length;\n        return x; \n    }  \n\n    // Return an array stored in the dynamic dimension will throw if index > flags.length-1 (index starts at 0)\n    function array_getArray(uint256 index) view public returns (uint[6] memory) {\n        return(arr_data[index]);\n    }   \n     \n    // Current block timestamp is returned by now ( http://www.unixtimestamp.com/ ex, $ date -d @block.timestamp )\n    function time_Call() view public returns (uint256) {        \n        return block.timestamp;\n    }\n\n    // Block Number is returned using block.number\n    function block_Call() view public returns (uint256) {\n        return block.number; \n    }\n    \n}\n",
  "sourcePath": "/home/syoo/Documents/BlockChain/Eth_Toto_Board/contracts/TotoSlots.sol",
  "compiler": {
    "name": "solc",
    "version": "0.5.1+commit.c8a2cb62.Emscripten.clang"
  },
  "schemaVersion": "3.4.3",
  "updatedAt": "2021-12-21T04:14:25.175Z",
  "networkType": "ethereum",
  "devdoc": {
    "methods": {}
  },
  "userdoc": {
    "methods": {}
  }
}