{
  "contractName": "TotoSlots",
  "abi": [
    {
      "constant": false,
      "inputs": [
        {
          "name": "count",
          "type": "uint256"
        },
        {
          "name": "arr0",
          "type": "uint256"
        },
        {
          "name": "arr1",
          "type": "uint256"
        },
        {
          "name": "arr2",
          "type": "uint256"
        },
        {
          "name": "arr3",
          "type": "uint256"
        },
        {
          "name": "arr4",
          "type": "uint256"
        },
        {
          "name": "arr5",
          "type": "uint256"
        }
      ],
      "name": "array_pushData",
      "outputs": [],
      "payable": false,
      "stateMutability": "nonpayable",
      "type": "function"
    },
    {
      "constant": true,
      "inputs": [],
      "name": "array_popAllData",
      "outputs": [
        {
          "name": "",
          "type": "uint256[6][]"
        }
      ],
      "payable": false,
      "stateMutability": "view",
      "type": "function"
    },
    {
      "constant": true,
      "inputs": [],
      "name": "array_getLength",
      "outputs": [
        {
          "name": "",
          "type": "uint256"
        }
      ],
      "payable": false,
      "stateMutability": "view",
      "type": "function"
    },
    {
      "constant": true,
      "inputs": [
        {
          "name": "index",
          "type": "uint256"
        }
      ],
      "name": "array_getArray",
      "outputs": [
        {
          "name": "",
          "type": "uint256[6]"
        }
      ],
      "payable": false,
      "stateMutability": "view",
      "type": "function"
    },
    {
      "constant": true,
      "inputs": [],
      "name": "time_Call",
      "outputs": [
        {
          "name": "",
          "type": "uint256"
        }
      ],
      "payable": false,
      "stateMutability": "view",
      "type": "function"
    },
    {
      "constant": true,
      "inputs": [],
      "name": "block_Call",
      "outputs": [
        {
          "name": "",
          "type": "uint256"
        }
      ],
      "payable": false,
      "stateMutability": "view",
      "type": "function"
    }
  ],
  "bytecode": "0x608060405234801561001057600080fd5b506104da806100206000396000f3fe608060405260043610610071577c01000000000000000000000000000000000000000000000000000000006000350463260ac3b9811461007657806333b36521146100fc578063356f4cd01461014c5780635bbdab1e146101ae578063c44c913e146101d5578063f86b8fdc146101ea575b600080fd5b34801561008257600080fd5b5061008b6101ff565b60405180806020018281038252838181518152602001915080516000925b818410156100eb5760208085028401015160c080838360005b838110156100da5781810151838201526020016100c2565b5050505090500192600101926100a9565b925050509250505060405180910390f35b34801561010857600080fd5b5061014a600480360360e081101561011f57600080fd5b5080359060208101359060408101359060608101359060808101359060a08101359060c0013561027e565b005b34801561015857600080fd5b506101766004803603602081101561016f57600080fd5b5035610345565b604051808260c080838360005b8381101561019b578181015183820152602001610183565b5050505090500191505060405180910390f35b3480156101ba57600080fd5b506101c361039e565b60408051918252519081900360200190f35b3480156101e157600080fd5b506101c36103a4565b3480156101f657600080fd5b506101c36103a8565b60606000805480602002602001604051908101604052809291908181526020016000905b82821015610274576000848152602090206040805160c08101918290529160068581029091019182845b81548152602001906001019080831161024d57505050505081526020019060010190610223565b5050505090505b90565b866040519080825280602002602001820160405280156102b857816020015b6102a56103ac565b81526020019060019003908161029d5790505b5080516102cd916000916020909101906103cb565b5060005b8781101561033b5760c0604051908101604052808881526020018781526020018681526020018581526020018481526020018381525060008281548110151561031657fe5b9060005260206000209060060201906006610332929190610425565b506001016102d1565b5050505050505050565b61034d6103ac565b600080548390811061035b57fe5b600091825260209091206040805160c0810191829052926006908102909201919082845b81548152602001906001019080831161037f5750505050509050919050565b60005490565b4390565b4290565b60c0604051908101604052806006906020820280388339509192915050565b828054828255906000526020600020906006028101928215610415579160200282015b828111156104155782516104059083906006610425565b50916020019190600601906103ee565b5061042192915061045f565b5090565b8260068101928215610453579160200282015b82811115610453578251825591602001919060010190610438565b50610421929150610482565b61027b91905b80821115610421576000610479828261049c565b50600601610465565b61027b91905b808211156104215760008155600101610488565b506104ab906006810190610482565b5056fea165627a7a7230582074f0e98fa15c7ab9b708c644840062f2bcb466669f17c9e5451e2b76dee3f8d00029",
  "source": "// SPDX-License-Identifier: MIT\n// Solidity program to create a fixed-size array \npragma solidity >0.5.0;\n  \n// Creating a contract \ncontract TotoSlots {  \n  \n    // Declaring state variables of type array            \n    uint[6][] private arr_data;    \n      \n    // Function to add data in dynamic array \n    function array_pushData(uint count, uint arr0, uint arr1, uint arr2, uint arr3, uint arr4, uint arr5) public { \n        // Single Array to store all sub-arrays\n        // arr_data = new uint[6][];\n        // arr_data.push([arr0, arr1, arr2, arr3, arr4, arr5]);                \n        arr_data = new uint[6][](count);\n        for(uint idx=0; idx<count; idx++) {                    \n            arr_data[idx] = [arr0, arr1, arr2, arr3, arr4, arr5];                    \n        }        \n    }      \n\n    // Function to get all data of dynamic array \n    function array_popAllData() view public returns(uint[6][] memory) {    \n        return arr_data;\n    }\n\n    // Defining a function to find the length of the array\n    function array_getLength() view public returns(uint) {  \n        uint x = arr_data.length;\n        return x; \n    }  \n\n    // Return an array stored in the dynamic dimension will throw if index > flags.length-1 (index starts at 0)\n    function array_getArray(uint index) view public returns(uint[6] memory) {\n        return(arr_data[index]);\n    }   \n     \n    // Current block timestamp is returned by now (http://www.unixtimestamp.com/)\n    function time_Call() view public returns(uint256) {        \n        return block.timestamp;\n    }\n\n    // Block Number is returned using block.number\n    function block_Call() view public returns(uint256) {\n        return block.number; \n    }\n    \n}\n",
  "sourcePath": "/home/syoo/Documents/BlockChain/Eth_Toto_Board/contracts/TotoSlots.sol",
  "compiler": {
    "name": "solc",
    "version": "0.5.1+commit.c8a2cb62.Emscripten.clang"
  },
  "schemaVersion": "3.4.3",
  "updatedAt": "2021-10-06T12:15:42.254Z",
  "networkType": "ethereum",
  "devdoc": {
    "methods": {}
  },
  "userdoc": {
    "methods": {}
  }
}