{
  "contractName": "TotoSlots",
  "abi": [
    {
      "constant": false,
      "inputs": [
        {
          "name": "slotListNumbers",
          "type": "uint256[6][]"
        }
      ],
      "name": "array_pushData",
      "outputs": [],
      "payable": false,
      "stateMutability": "nonpayable",
      "type": "function"
    },
    {
      "constant": true,
      "inputs": [],
      "name": "array_popAllData",
      "outputs": [
        {
          "name": "",
          "type": "uint256[6][]"
        }
      ],
      "payable": false,
      "stateMutability": "view",
      "type": "function"
    },
    {
      "constant": true,
      "inputs": [],
      "name": "array_getLength",
      "outputs": [
        {
          "name": "",
          "type": "uint256"
        }
      ],
      "payable": false,
      "stateMutability": "view",
      "type": "function"
    },
    {
      "constant": true,
      "inputs": [
        {
          "name": "index",
          "type": "uint256"
        }
      ],
      "name": "array_getArray",
      "outputs": [
        {
          "name": "",
          "type": "uint256[6]"
        }
      ],
      "payable": false,
      "stateMutability": "view",
      "type": "function"
    },
    {
      "constant": true,
      "inputs": [
        {
          "name": "slotNums",
          "type": "uint256[6]"
        }
      ],
      "name": "search_jackPot",
      "outputs": [
        {
          "name": "matchedNum",
          "type": "uint256"
        }
      ],
      "payable": false,
      "stateMutability": "view",
      "type": "function"
    },
    {
      "constant": true,
      "inputs": [],
      "name": "time_Call",
      "outputs": [
        {
          "name": "",
          "type": "uint256"
        }
      ],
      "payable": false,
      "stateMutability": "view",
      "type": "function"
    },
    {
      "constant": true,
      "inputs": [],
      "name": "block_Call",
      "outputs": [
        {
          "name": "",
          "type": "uint256"
        }
      ],
      "payable": false,
      "stateMutability": "view",
      "type": "function"
    }
  ],
  "bytecode": "0x608060405234801561001057600080fd5b50610638806100206000396000f3fe60806040526004361061007c577c01000000000000000000000000000000000000000000000000000000006000350463260ac3b98114610081578063356f4cd01461010757806347824e13146101695780635bbdab1e1461025057806374a0b5ca14610277578063c44c913e146102d6578063f86b8fdc146102eb575b600080fd5b34801561008d57600080fd5b50610096610300565b60405180806020018281038252838181518152602001915080516000925b818410156100f65760208085028401015160c080838360005b838110156100e55781810151838201526020016100cd565b5050505090500192600101926100b4565b925050509250505060405180910390f35b34801561011357600080fd5b506101316004803603602081101561012a57600080fd5b503561037f565b604051808260c080838360005b8381101561015657818101518382015260200161013e565b5050505090500191505060405180910390f35b34801561017557600080fd5b5061024e6004803603602081101561018c57600080fd5b8101906020810181356401000000008111156101a757600080fd5b8201836020820111156101b957600080fd5b803590602001918460c08302840111640100000000831117156101db57600080fd5b9190808060200260200160405190810160405280939291908181526020016000905b8282101561023e576040805160c0818101909252908084028701906006908390839080828437600092019190915250505081526001909101906020016101fd565b509396506103d995505050505050565b005b34801561025c57600080fd5b50610265610486565b60408051918252519081900360200190f35b34801561028357600080fd5b50610265600480360360c081101561029a57600080fd5b810190808060c00190600680602002604051908101604052809291908260066020028082843760009201919091525091945061048c9350505050565b3480156102e257600080fd5b50610265610502565b3480156102f757600080fd5b50610265610506565b60606000805480602002602001604051908101604052809291908181526020016000905b82821015610375576000848152602090206040805160c08101918290529160068581029091019182845b81548152602001906001019080831161034e57505050505081526020019060010190610324565b5050505090505b90565b61038761050a565b600080548390811061039557fe5b600091825260209091206040805160c0810191829052926006908102909201919082845b8154815260200190600101908083116103b957505050505090505b919050565b805160408051828152602080840282010190915281801561041457816020015b61040161050a565b8152602001906001900390816103f95790505b50805161042991600091602090910190610529565b5060005b8181101561048157828181518110151561044357fe5b9060200190602002015160008281548110151561045c57fe5b9060005260206000209060060201906006610478929190610583565b5060010161042d565b505050565b60005490565b6000805b6000548110156104ee578281600681106104a657fe5b60200201516000805460069081106104ba57fe5b9060005260206000209060060201826006811015156104d557fe5b015414156104e657506001016103d4565b600101610490565b60005481106104fc57600091505b50919050565b4390565b4290565b60c0604051908101604052806006906020820280388339509192915050565b828054828255906000526020600020906006028101928215610573579160200282015b828111156105735782516105639083906006610583565b509160200191906006019061054c565b5061057f9291506105bd565b5090565b82600681019282156105b1579160200282015b828111156105b1578251825591602001919060010190610596565b5061057f9291506105e0565b61037c91905b8082111561057f5760006105d782826105fa565b506006016105c3565b61037c91905b8082111561057f57600081556001016105e6565b506106099060068101906105e0565b5056fea165627a7a723058201a7b0f2f5b975f6ba463a122f2755fc10d54ab7506a4ded99b4b464fa4a7cb560029",
  "source": "// SPDX-License-Identifier: MIT\n// Solidity program to create a fixed-size array \npragma solidity >0.5.0;\n  \n// Creating a contract \ncontract TotoSlots {    \n    // Declaring state variables of type array    \n    uint[6][] private arr_data;        \n    \n    // Function to store all data in dynamic array \n    function array_pushData(uint[6][] memory slotListNumbers) public { \n        // Dynamic array outright with its elements are arrays of fixed size\n        uint count = slotListNumbers.length;\n        arr_data = new uint[6][](count);        \n        for(uint idx=0; idx<count; idx++) { \n            arr_data[idx] = slotListNumbers[idx];           \n        }                                            \n    }          \n\n    // Function to get all data of dynamic array \n    function array_popAllData() view public returns(uint[6][] memory) {    \n        return arr_data;\n    }\n\n    // Defining a function to find the length of the array\n    function array_getLength() view public returns(uint) {  \n        uint x = arr_data.length;\n        return x; \n    }  \n\n    // Return an array stored in the dynamic dimension will throw if index > flags.length-1 (index starts at 0)\n    function array_getArray(uint index) view public returns(uint[6] memory) {\n        return(arr_data[index]);\n    }   \n\n    // Function to search elements in dynamic array     \n    function search_jackPot(uint[6] memory slotNums) view public returns(uint matchedNum) {\n        uint idx;        \n        for(idx=0; idx<arr_data.length; idx++) {\n            if(arr_data[6][idx] == slotNums[idx]) {\n            // if(any(slotNums.count(element) > 1 for element in slotNums)) {\n                matchedNum++;\n                return matchedNum;\n            }            \n        }        \n        if(idx >= arr_data.length)\n        matchedNum = 0;\n        return matchedNum;\n\n        // Matching elements count using list comprehension and enumerate() + len()\n        // res = len([key for key, val in enumerate(arr_data) if val in set(slotNums)]);\n        // res = len([test_list1.index(i) for i in test_list2]);\n    } \n     \n    // Current block timestamp is returned by now (http://www.unixtimestamp.com/)\n    function time_Call() view public returns(uint256) {        \n        return block.timestamp;\n    }\n\n    // Block Number is returned using block.number\n    function block_Call() view public returns(uint256) {\n        return block.number; \n    }\n    \n}\n",
  "sourcePath": "/home/syoo/Documents/BlockChain/Eth_Toto_Board/contracts/TotoSlots.sol",
  "compiler": {
    "name": "solc",
    "version": "0.5.1+commit.c8a2cb62.Emscripten.clang"
  },
  "schemaVersion": "3.4.3",
  "updatedAt": "2021-10-14T12:10:42.073Z",
  "networkType": "ethereum",
  "devdoc": {
    "methods": {}
  },
  "userdoc": {
    "methods": {}
  }
}