{
  "contractName": "TotoSlots",
  "abi": [
    {
      "constant": false,
      "inputs": [
        {
          "name": "arr1",
          "type": "uint256"
        },
        {
          "name": "arr2",
          "type": "uint256"
        },
        {
          "name": "arr3",
          "type": "uint256"
        },
        {
          "name": "arr4",
          "type": "uint256"
        },
        {
          "name": "arr5",
          "type": "uint256"
        },
        {
          "name": "arr6",
          "type": "uint256"
        }
      ],
      "name": "array_pushData",
      "outputs": [],
      "payable": false,
      "stateMutability": "nonpayable",
      "type": "function"
    },
    {
      "constant": true,
      "inputs": [],
      "name": "array_popAllData",
      "outputs": [
        {
          "name": "",
          "type": "uint256[6][]"
        }
      ],
      "payable": false,
      "stateMutability": "view",
      "type": "function"
    },
    {
      "constant": true,
      "inputs": [],
      "name": "array_getLength",
      "outputs": [
        {
          "name": "",
          "type": "uint256"
        }
      ],
      "payable": false,
      "stateMutability": "view",
      "type": "function"
    },
    {
      "constant": true,
      "inputs": [
        {
          "name": "index",
          "type": "uint256"
        }
      ],
      "name": "array_getArray",
      "outputs": [
        {
          "name": "",
          "type": "uint256[6]"
        }
      ],
      "payable": false,
      "stateMutability": "view",
      "type": "function"
    },
    {
      "constant": false,
      "inputs": [],
      "name": "array_getElement",
      "outputs": [
        {
          "name": "",
          "type": "uint256"
        }
      ],
      "payable": true,
      "stateMutability": "payable",
      "type": "function"
    },
    {
      "constant": false,
      "inputs": [],
      "name": "array_addPush",
      "outputs": [
        {
          "name": "",
          "type": "uint256[]"
        }
      ],
      "payable": false,
      "stateMutability": "nonpayable",
      "type": "function"
    },
    {
      "constant": false,
      "inputs": [],
      "name": "array_pop",
      "outputs": [
        {
          "name": "",
          "type": "uint256[]"
        }
      ],
      "payable": false,
      "stateMutability": "nonpayable",
      "type": "function"
    }
  ],
  "bytecode": "0x610140604052600a6080908152601460a052601e60c052602860e052603261010052603c61012052610035906001906006610048565b5034801561004257600080fd5b506100b5565b828054828255906000526020600020908101928215610088579160200282015b82811115610088578251829060ff16905591602001919060010190610068565b50610094929150610098565b5090565b6100b291905b80821115610094576000815560010161009e565b90565b61058c806100c46000396000f3fe60806040526004361061007c577c01000000000000000000000000000000000000000000000000000000006000350463260ac3b98114610081578063356f4cd014610107578063398552a8146101695780634730b60a146101ce5780635ad49ab3146101e35780635bbdab1e1461022d578063c340e91f14610254575b600080fd5b34801561008d57600080fd5b5061009661025c565b60405180806020018281038252838181518152602001915080516000925b818410156100f65760208085028401015160c080838360005b838110156100e55781810151838201526020016100cd565b5050505090500192600101926100b4565b925050509250505060405180910390f35b34801561011357600080fd5b506101316004803603602081101561012a57600080fd5b50356102db565b604051808260c080838360005b8381101561015657818101518382015260200161013e565b5050505090500191505060405180910390f35b34801561017557600080fd5b5061017e610334565b60408051602080825283518183015283519192839290830191858101910280838360005b838110156101ba5781810151838201526020016101a2565b505050509050019250505060405180910390f35b3480156101da57600080fd5b5061017e6103ca565b3480156101ef57600080fd5b5061022b600480360360c081101561020657600080fd5b5080359060208101359060408101359060608101359060808101359060a00135610443565b005b34801561023957600080fd5b506102426104be565b60408051918252519081900360200190f35b6102426104c4565b60606000805480602002602001604051908101604052809291908181526020016000905b828210156102d1576000848152602090206040805160c08101918290529160068581029091019182845b8154815260200190600101908083116102aa57505050505081526020019060010190610280565b5050505090505b90565b6102e36104e9565b60008054839081106102f157fe5b600091825260209091206040805160c0810191829052926006908102909201919082845b8154815260200190600101908083116103155750505050509050919050565b600180548082018255600082905260467fb10e2d527612073b26eecdfd717e6a320cf44b4afac2b0732d9fcbe2b7fa0cf691820155815480830183556050910155805460408051602083810282018101909252828152606093909290918301828280156103c057602002820191906000526020600020905b8154815260200190600101908083116103ac575b5050505050905090565b6060600180548015156103d957fe5b6001900381819060005260206000200160009055905560018054806020026020016040519081016040528092919081815260200182805480156103c057602002820191906000526020600020908154815260200190600101908083116103ac575050505050905090565b6040805160c08101825287815260208101879052908101859052606081018490526080810183905260a08101829052600080546001810180835591805290916104b49160069081027f290decd9548b62a8d60345a988386fc84ba6bc95484008f6362f93160ef3e563019190610508565b5050505050505050565b60005490565b600080600160028154811015156104d757fe5b60009182526020909120015491505090565b60c0604051908101604052806006906020820280388339509192915050565b8260068101928215610536579160200282015b8281111561053657825182559160200191906001019061051b565b50610542929150610546565b5090565b6102d891905b80821115610542576000815560010161054c56fea165627a7a723058207cc32579391bcfbff4139e819913cd1646d6474589fb38f84c77e58d268caed50029",
  "source": "// SPDX-License-Identifier: MIT\n// Solidity program to create a fixed-size array \npragma solidity >0.5.0;\n  \n// Creating a contract \ncontract TotoSlots {  \n  \n    // Declaring state variables of type array        \n    // uint[6] private arr_data; \n    uint[6][] private arr_data;\n    // Defining the array\n    uint[] data = [10, 20, 30, 40, 50, 60];     \n      \n    // // Defining function to add values to an array \n    // function array_setData() public returns (uint[6] memory){              \n    //     arr_data = [uint(10), 20, 30, 40, 50, 60];            \n    //     return arr_data;  \n    // }  \n\n    // Function to add data in dynamic array \n    function array_pushData(uint arr1, uint arr2, uint arr3, uint arr4, uint arr5, uint arr6) public {                        \n        arr_data.push([arr1, arr2, arr3, arr4, arr5, arr6]); \n    }      \n\n    // Function to get all data of dynamic array \n    function array_popAllData() view public returns(uint[6][] memory) {    \n        return arr_data;\n    }\n\n    // Defining a function to find the length of the array\n    function array_getLength() view public returns(uint) {  \n        uint x = arr_data.length;\n        return x; \n    }  \n\n    // Return an array stored in the dynamic dimension will throw if index > flags.length-1 (index starts at 0)\n    function array_getArray(uint index) view public returns(uint[6] memory) {\n        return(arr_data[index]);\n    }\n  \n    // Defining function to access values from the array from a specific index  \n    function array_getElement() public payable returns (uint){          \n        uint x = data[2];\n        return x;  \n    }  \n        \n    // Defining the function to push values to the array\n    function array_addPush() public returns(uint[] memory) {            \n        data.push(70);  \n        data.push(80);    \n        return data;  \n    }  \n    \n    // Defining a function to pop values from the array\n    function array_pop() public returns(uint[] memory) {  \n        data.pop(); \n        return data;  \n    }  \n    \n}\n",
  "sourcePath": "/home/syoo/Documents/BlockChain/Eth_Toto_Board/contracts/TotoSlots.sol",
  "compiler": {
    "name": "solc",
    "version": "0.5.1+commit.c8a2cb62.Emscripten.clang"
  },
  "schemaVersion": "3.4.3",
  "updatedAt": "2021-10-03T12:23:49.514Z",
  "networkType": "ethereum",
  "devdoc": {
    "methods": {}
  },
  "userdoc": {
    "methods": {}
  }
}