{
  "contractName": "TotoSlots",
  "abi": [
    {
      "constant": true,
      "inputs": [
        {
          "name": "",
          "type": "uint256"
        }
      ],
      "name": "slotAccounts",
      "outputs": [
        {
          "name": "",
          "type": "address"
        }
      ],
      "payable": false,
      "stateMutability": "view",
      "type": "function"
    },
    {
      "constant": true,
      "inputs": [],
      "name": "getOwner",
      "outputs": [
        {
          "name": "",
          "type": "address"
        }
      ],
      "payable": false,
      "stateMutability": "view",
      "type": "function"
    },
    {
      "constant": false,
      "inputs": [
        {
          "name": "_address",
          "type": "address"
        },
        {
          "name": "_issuerUID",
          "type": "string"
        },
        {
          "name": "_issuerName",
          "type": "string"
        },
        {
          "name": "_issuerEmail",
          "type": "string"
        },
        {
          "name": "_slotsData",
          "type": "uint256[6][]"
        },
        {
          "name": "_issuerTime",
          "type": "string"
        }
      ],
      "name": "setTotoSlotsData",
      "outputs": [],
      "payable": false,
      "stateMutability": "nonpayable",
      "type": "function"
    },
    {
      "constant": true,
      "inputs": [
        {
          "name": "_inputAddress",
          "type": "address"
        }
      ],
      "name": "getTotoSlotsData",
      "outputs": [
        {
          "name": "",
          "type": "address"
        },
        {
          "name": "",
          "type": "string"
        },
        {
          "name": "",
          "type": "string"
        },
        {
          "name": "",
          "type": "string"
        },
        {
          "name": "",
          "type": "uint256[6][]"
        },
        {
          "name": "",
          "type": "string"
        },
        {
          "name": "",
          "type": "uint256"
        }
      ],
      "payable": false,
      "stateMutability": "view",
      "type": "function"
    },
    {
      "constant": true,
      "inputs": [
        {
          "name": "_inputAddress",
          "type": "address"
        }
      ],
      "name": "getAllTotoSlotsData",
      "outputs": [
        {
          "components": [
            {
              "name": "issuerAddress",
              "type": "address"
            },
            {
              "name": "issuerUID",
              "type": "string"
            },
            {
              "name": "issuerName",
              "type": "string"
            },
            {
              "name": "issuerEmail",
              "type": "string"
            },
            {
              "name": "slotsData",
              "type": "uint256[6][]"
            },
            {
              "name": "createdTime",
              "type": "string"
            },
            {
              "name": "createdBlockTime",
              "type": "uint256"
            }
          ],
          "name": "",
          "type": "tuple[]"
        }
      ],
      "payable": false,
      "stateMutability": "view",
      "type": "function"
    },
    {
      "constant": true,
      "inputs": [],
      "name": "countAllSlotAccounts",
      "outputs": [
        {
          "name": "",
          "type": "uint256"
        }
      ],
      "payable": false,
      "stateMutability": "view",
      "type": "function"
    },
    {
      "constant": true,
      "inputs": [
        {
          "name": "_address",
          "type": "address"
        }
      ],
      "name": "countSlotAccount",
      "outputs": [
        {
          "name": "",
          "type": "uint256"
        }
      ],
      "payable": false,
      "stateMutability": "view",
      "type": "function"
    },
    {
      "constant": true,
      "inputs": [],
      "name": "getAllSlotAccounts",
      "outputs": [
        {
          "name": "",
          "type": "address[]"
        }
      ],
      "payable": false,
      "stateMutability": "view",
      "type": "function"
    },
    {
      "constant": false,
      "inputs": [
        {
          "name": "num",
          "type": "uint256"
        }
      ],
      "name": "addData",
      "outputs": [],
      "payable": false,
      "stateMutability": "nonpayable",
      "type": "function"
    },
    {
      "constant": true,
      "inputs": [
        {
          "name": "num",
          "type": "uint256"
        }
      ],
      "name": "search",
      "outputs": [
        {
          "name": "",
          "type": "bool"
        }
      ],
      "payable": false,
      "stateMutability": "view",
      "type": "function"
    },
    {
      "constant": false,
      "inputs": [
        {
          "name": "slotListNumbers",
          "type": "uint256[6][]"
        }
      ],
      "name": "array_pushData",
      "outputs": [],
      "payable": false,
      "stateMutability": "nonpayable",
      "type": "function"
    },
    {
      "constant": true,
      "inputs": [],
      "name": "array_popAllData",
      "outputs": [
        {
          "name": "",
          "type": "uint256[6][]"
        }
      ],
      "payable": false,
      "stateMutability": "view",
      "type": "function"
    },
    {
      "constant": true,
      "inputs": [],
      "name": "array_getLength",
      "outputs": [
        {
          "name": "",
          "type": "uint256"
        }
      ],
      "payable": false,
      "stateMutability": "view",
      "type": "function"
    },
    {
      "constant": true,
      "inputs": [
        {
          "name": "index",
          "type": "uint256"
        }
      ],
      "name": "array_getArray",
      "outputs": [
        {
          "name": "",
          "type": "uint256[6]"
        }
      ],
      "payable": false,
      "stateMutability": "view",
      "type": "function"
    },
    {
      "constant": true,
      "inputs": [],
      "name": "time_Call",
      "outputs": [
        {
          "name": "",
          "type": "uint256"
        }
      ],
      "payable": false,
      "stateMutability": "view",
      "type": "function"
    },
    {
      "constant": true,
      "inputs": [],
      "name": "block_Call",
      "outputs": [
        {
          "name": "",
          "type": "uint256"
        }
      ],
      "payable": false,
      "stateMutability": "view",
      "type": "function"
    }
  ],
  "bytecode": "0x608060405234801561001057600080fd5b506118e2806100206000396000f3fe6080604052600436106100df577c010000000000000000000000000000000000000000000000000000000060003504631c3bbddc81146100e4578063260ac3b914610106578063356f4cd01461013157806347824e131461015e57806353e8a9be1461017e5780635bbdab1e146101ab5780635fa6d686146101cd578063893d20e8146101e25780639e0f9f4e14610204578063b75e623914610224578063c44c913e14610246578063d1a9d6391461025b578063e5d824a71461028e578063f813ec1d146102ae578063f86b8fdc146102ce578063fc156fe0146102e3575b600080fd5b3480156100f057600080fd5b506101046100ff366004611270565b610310565b005b34801561011257600080fd5b5061011b61047c565b604051610128919061175c565b60405180910390f35b34801561013d57600080fd5b5061015161014c3660046113a4565b6104fb565b604051610128919061177e565b34801561016a57600080fd5b5061010461017936600461136f565b610555565b34801561018a57600080fd5b5061019e61019936600461124a565b610602565b604051610128919061176d565b3480156101b757600080fd5b506101c0610a13565b604051610128919061179a565b3480156101d957600080fd5b506101c0610a19565b3480156101ee57600080fd5b506101f7610a1f565b60405161012891906116ac565b34801561021057600080fd5b506101c061021f36600461124a565b610a2e565b34801561023057600080fd5b50610239610a87565b604051610128919061174b565b34801561025257600080fd5b506101c0610ae9565b34801561026757600080fd5b5061027b61027636600461124a565b610aed565b60405161012897969594939291906116c0565b34801561029a57600080fd5b506101046102a93660046113a4565b610e3f565b3480156102ba57600080fd5b506101f76102c93660046113a4565b610e74565b3480156102da57600080fd5b506101c0610e9c565b3480156102ef57600080fd5b506103036102fe3660046113a4565b610ea0565b604051610128919061178c565b6040805160e081018252600160a060020a0388811680835260208084018a81528486018a9052606085018990526080850188905260a085018790524260c0860152600092835260038252949091208351815473ffffffffffffffffffffffffffffffffffffffff1916931692909217825592518051929391926103999260018501920190610efa565b50604082015180516103b5916002840191602090910190610efa565b50606082015180516103d1916003840191602090910190610efa565b50608082015180516103ed916004840191602090910190610f78565b5060a08201518051610409916005840191602090910190610efa565b5060c091909101516006909101555050600480546001810182556000919091527f8a35acfbc15ff81a39ae7d344fd709f28e8600b4aa8c65c6b64bfe7fe36bd19b01805473ffffffffffffffffffffffffffffffffffffffff1916600160a060020a039590951694909417909355505050565b60606001805480602002602001604051908101604052809291908181526020016000905b828210156104f1576000848152602090206040805160c08101918290529160068581029091019182845b8154815260200190600101908083116104ca575050505050815260200190600101906104a0565b5050505090505b90565b610503610fce565b600180548390811061051157fe5b600091825260209091206040805160c0810191829052926006908102909201919082845b81548152602001906001019080831161053557505050505090505b919050565b805160408051828152602080840282010190915281801561059057816020015b61057d610fce565b8152602001906001900390816105755790505b5080516105a591600191602090910190610fed565b5060005b818110156105fd5782818151811015156105bf57fe5b906020019060200201516001828154811015156105d857fe5b90600052602060002090600602019060066105f4929190611037565b506001016105a9565b505050565b60606000805b6004548110156106555783600160a060020a031660048281548110151561062b57fe5b600091825260209091200154600160a060020a0316141561064d576001909101905b600101610608565b5060608160405190808252806020026020018201604052801561069257816020015b61067f611064565b8152602001906001900390816106775790505b50905061069d611064565b600160a060020a03858116600090815260036020908152604091829020825160e08101845281549094168452600180820180548551600261010094831615949094026000190190911692909204601f81018590048502830185019095528482529193858401939192918301828280156107575780601f1061072c57610100808354040283529160200191610757565b820191906000526020600020905b81548152906001019060200180831161073a57829003601f168201915b5050509183525050600282810180546040805160206001841615610100026000190190931694909404601f810183900483028501830190915280845293810193908301828280156107e95780601f106107be576101008083540402835291602001916107e9565b820191906000526020600020905b8154815290600101906020018083116107cc57829003601f168201915b505050918352505060038201805460408051602060026001851615610100026000190190941693909304601f810184900484028201840190925281815293820193929183018282801561087d5780601f106108525761010080835404028352916020019161087d565b820191906000526020600020905b81548152906001019060200180831161086057829003601f168201915b5050505050815260200160048201805480602002602001604051908101604052809291908181526020016000905b828210156108fc576000848152602090206040805160c08101918290529160068581029091019182845b8154815260200190600101908083116108d5575050505050815260200190600101906108ab565b5050509082525060058201805460408051602060026001851615610100026000190190941693909304601f810184900484028201840190925281815293820193929183018282801561098f5780601f106109645761010080835404028352916020019161098f565b820191906000526020600020905b81548152906001019060200180831161097257829003601f168201915b505050918352505060069190910154602090910152905060005b600454811015610a095785600160a060020a03166004828154811015156109cc57fe5b600091825260209091200154600160a060020a03161415610a01578183828151811015156109f657fe5b602090810290910101525b6001016109a9565b5090949350505050565b60015490565b60045490565b600054600160a060020a031690565b600080805b600454811015610a805783600160a060020a0316600482815481101515610a5657fe5b600091825260209091200154600160a060020a03161415610a78576001909101905b600101610a33565b5092915050565b60606004805480602002602001604051908101604052809291908181526020018280548015610adf57602002820191906000526020600020905b8154600160a060020a03168152600190910190602001808311610ac1575b5050505050905090565b4390565b600060608060608060606000610b01611064565b600160a060020a03898116600090815260036020908152604091829020825160e08101845281549094168452600180820180548551600261010094831615949094026000190190911692909204601f8101859004850283018501909552848252919385840193919291830182828015610bbb5780601f10610b9057610100808354040283529160200191610bbb565b820191906000526020600020905b815481529060010190602001808311610b9e57829003601f168201915b5050509183525050600282810180546040805160206001841615610100026000190190931694909404601f81018390048302850183019091528084529381019390830182828015610c4d5780601f10610c2257610100808354040283529160200191610c4d565b820191906000526020600020905b815481529060010190602001808311610c3057829003601f168201915b505050918352505060038201805460408051602060026001851615610100026000190190941693909304601f8101849004840282018401909252818152938201939291830182828015610ce15780601f10610cb657610100808354040283529160200191610ce1565b820191906000526020600020905b815481529060010190602001808311610cc457829003601f168201915b5050505050815260200160048201805480602002602001604051908101604052809291908181526020016000905b82821015610d60576000848152602090206040805160c08101918290529160068581029091019182845b815481526020019060010190808311610d3957505050505081526020019060010190610d0f565b5050509082525060058201805460408051602060026001851615610100026000190190941693909304601f8101849004840282018401909252818152938201939291830182828015610df35780601f10610dc857610100808354040283529160200191610df3565b820191906000526020600020905b815481529060010190602001808311610dd657829003601f168201915b50505091835250506006919091015460209182015281519082015160408301516060840151608085015160a086015160c090960151949f939e50919c509a509850919650945092505050565b600280546001810182556000919091527f405787fa12a823e0f2b7631cc41b3ba8828b3321ca811111fa75cd3aa3bb5ace0155565b6004805482908110610e8257fe5b600091825260209091200154600160a060020a0316905081565b4290565b6000805b600254811015610ee15782600282815481101515610ebe57fe5b90600052602060002001541415610ed9576001915050610550565b600101610ea4565b6002548110610ef4576000915050610550565b50919050565b828054600181600116156101000203166002900490600052602060002090601f016020900481019282601f10610f3b57805160ff1916838001178555610f68565b82800160010185558215610f68579182015b82811115610f68578251825591602001919060010190610f4d565b50610f749291506110ab565b5090565b828054828255906000526020600020906006028101928215610fc2579160200282015b82811115610fc2578251610fb29083906006611037565b5091602001919060060190610f9b565b50610f749291506110c5565b60c0604051908101604052806006906020820280388339509192915050565b828054828255906000526020600020906006028101928215610fc2579160200282015b82811115610fc25782516110279083906006611037565b5091602001919060060190611010565b8260068101928215610f685791602002820182811115610f68578251825591602001919060010190610f4d565b60e0604051908101604052806000600160a060020a031681526020016060815260200160608152602001606081526020016060815260200160608152602001600081525090565b6104f891905b80821115610f7457600081556001016110b1565b6104f891905b80821115610f745760006110df82826110e8565b506006016110cb565b506110f79060068101906110ab565b50565b60006111068235611846565b9392505050565b6000601f8201831361111e57600080fd5b813561113161112c826117cf565b6117a8565b915081818352602084019350602081019050838560c084028201111561115657600080fd5b60005b83811015611184578161116c888261118e565b84525060209092019160c09190910190600101611159565b5050505092915050565b6000601f8201831361119f57600080fd5b60066111ad61112c826117f0565b915081838560208402820111156111c357600080fd5b60005b8381101561118457816111d9888261123e565b84525060209283019291909101906001016111c6565b6000601f8201831361120057600080fd5b813561120e61112c8261180e565b9150808252602083016020830185838301111561122a57600080fd5b611235838284611862565b50505092915050565b600061110682356104f8565b60006020828403121561125c57600080fd5b600061126884846110fa565b949350505050565b60008060008060008060c0878903121561128957600080fd5b600061129589896110fa565b965050602087013567ffffffffffffffff8111156112b257600080fd5b6112be89828a016111ef565b955050604087013567ffffffffffffffff8111156112db57600080fd5b6112e789828a016111ef565b945050606087013567ffffffffffffffff81111561130457600080fd5b61131089828a016111ef565b935050608087013567ffffffffffffffff81111561132d57600080fd5b61133989828a0161110d565b92505060a087013567ffffffffffffffff81111561135657600080fd5b61136289828a016111ef565b9150509295509295509295565b60006020828403121561138157600080fd5b813567ffffffffffffffff81111561139857600080fd5b6112688482850161110d565b6000602082840312156113b657600080fd5b6000611268848461123e565b6113cb81611846565b82525050565b60006113dc8261183c565b8084526020840193506113ee83611836565b60005b8281101561141e576114048683516113c2565b61140d82611836565b6020969096019591506001016113f1565b5093949350505050565b60006114338261183c565b80845260208401935061144583611836565b60005b8281101561141e5761145b868351611572565b61146482611836565b60c096909601959150600101611448565b60006114808261183c565b80845260208401935061149283611836565b60005b8281101561141e576114a8868351611572565b6114b182611836565b60c096909601959150600101611495565b60006114cd8261183c565b808452602084019350836020820285016114e685611836565b60005b8481101561151d5783830388526115018383516115f2565b925061150c82611836565b6020989098019791506001016114e9565b50909695505050505050565b61153281611840565b61153b826104f8565b60005b8281101561156b576115518583516116a3565b61155a82611836565b60209590950194915060010161153e565b5050505050565b61157b81611840565b611584826104f8565b60005b8281101561156b5761159a8583516116a3565b6115a382611836565b602095909501949150600101611587565b6113cb81611851565b60006115c88261183c565b8084526115dc81602086016020860161186e565b6115e58161189e565b9093016020019392505050565b805160009060e084019061160685826113c2565b506020830151848203602086015261161e82826115bd565b9150506040830151848203604086015261163882826115bd565b9150506060830151848203606086015261165282826115bd565b9150506080830151848203608086015261166c8282611475565b91505060a083015184820360a086015261168682826115bd565b91505060c083015161169b60c08601826116a3565b509392505050565b6113cb816104f8565b602081016116ba82846113c2565b92915050565b60e081016116ce828a6113c2565b81810360208301526116e081896115bd565b905081810360408301526116f481886115bd565b9050818103606083015261170881876115bd565b9050818103608083015261171c8186611428565b905081810360a083015261173081856115bd565b905061173f60c08301846116a3565b98975050505050505050565b6020808252810161110681846113d1565b602080825281016111068184611428565b6020808252810161110681846114c2565b60c081016116ba8284611529565b602081016116ba82846115b4565b602081016116ba82846116a3565b60405181810167ffffffffffffffff811182821017156117c757600080fd5b604052919050565b600067ffffffffffffffff8211156117e657600080fd5b5060209081020190565b600067ffffffffffffffff82111561180757600080fd5b5060200290565b600067ffffffffffffffff82111561182557600080fd5b506020601f91909101601f19160190565b60200190565b5190565b50600690565b60006116ba82611856565b151590565b600160a060020a031690565b82818337506000910152565b60005b83811015611889578181015183820152602001611871565b83811115611898576000848401525b50505050565b601f01601f19169056fea265627a7a723058205d3f3bbe1630c80a4ec666f9fc41863ab37754f17e90214ab863a75bd71c3c326c6578706572696d656e74616cf50037",
  "source": "// https://github.com/kanthgithub/ticketbooking/tree/main/contracts\n// https://jeancvllr.medium.com/solidity-tutorial-all-about-structs-b3e7ca398b1e\n// SPDX-License-Identifier: MIT\npragma solidity >0.5.0;\npragma experimental ABIEncoderV2;\nimport \"./interfaces/TotoSlotStructLib.sol\";\n  \n// Creating a contract \ncontract TotoSlots {    \n\n    // Declaring state variables of a type of fixed-size array \n    address private owner;  \n    uint[6][] private arr_data;        \n    uint256[] private arr_test;    \n    \n    // Creating mapping a storage variables for TotoSlots(issuerAddress -> TotoSlotsData)\n    mapping(address => TotoSlotStructLib.TotoSlotsData) totoSlots;       \n\n    // Save all the Slots addresses who registered on a contract in an array.\n    address[] public slotAccounts;            \n    \n    modifier onlyOwner {\n        require(msg.sender == owner, \"only Owner can invoke the function\");\n        _;\n    }\n\n    function getOwner() public view returns(address){\n        return owner;\n    }\n\n    modifier isIssuerAuthorised(address issuerAddress){        \n        require(totoSlots[msg.sender].issuerAddress == issuerAddress , \"not Authorized to Invoke the function\");\n        _;\n    }\n    \n    // Function adding values to the mapping\n    function setTotoSlotsData(address _address, string memory _issuerUID, string memory _issuerName, string memory _issuerEmail, uint[6][] memory _slotsData, string memory _issuerTime) public {    \n     \n        totoSlots[_address] = TotoSlotStructLib.TotoSlotsData(\n            {\n                issuerAddress: _address,\n                issuerUID: _issuerUID,\n                issuerName: _issuerName,\n                issuerEmail: _issuerEmail,\n                slotsData: _slotsData,\n                createdTime: _issuerTime,\n                createdBlockTime : block.timestamp\n            }\n        );\n        \n        // Create a request instance        \n        slotAccounts.push(_address);                       \n    }    \n\n    // Function to return array of structure TotoSlotsData\n    function getTotoSlotsData(address _inputAddress) public view returns (address, string memory, string memory, string memory, uint[6][] memory, string memory, uint256) { \n        \n        // Copy the data into memory\n        TotoSlotStructLib.TotoSlotsData memory slotsData = totoSlots[_inputAddress];\n               \n        // Break the struct's members out into a tuple in the same order that they appear in the struct\n        return (slotsData.issuerAddress, slotsData.issuerUID, slotsData.issuerName, slotsData.issuerEmail, slotsData.slotsData, slotsData.createdTime, slotsData.createdBlockTime); \n    }\n\n    function getAllTotoSlotsData(address _inputAddress) public view returns (TotoSlotStructLib.TotoSlotsData[] memory) { \n\n        uint count=0;      \n        for(uint i=0; i<slotAccounts.length; i++) {\n            if(slotAccounts[i] == _inputAddress) {\n                count++;\n            }\n        }      \n        \n        TotoSlotStructLib.TotoSlotsData[] memory totoSlotsData = new TotoSlotStructLib.TotoSlotsData[](count); \n\n        // Copy the data into memory\n        TotoSlotStructLib.TotoSlotsData memory slotsData = totoSlots[_inputAddress];\n\n        for(uint i=0; i<slotAccounts.length; i++) {\n            if(slotAccounts[i] == _inputAddress) {\n                totoSlotsData[i] = slotsData;                        \n            }\n        }       \n        // Return Array of structure\n        return totoSlotsData;\n    }\n\n    // Counting all dynamic array from a Mapping\n    function countAllSlotAccounts() view public returns (uint) {\n        return slotAccounts.length;\n    }\n\n    // Counting specific dynamic array from a Mapping\n    function countSlotAccount(address _address) view public returns (uint) {        \n        uint count=0;      \n        for(uint i=0; i<slotAccounts.length; i++) {\n            if(slotAccounts[i] == _address) {\n                count++;\n            }\n        }           \n        return count;\n    }\n\n    // Function to get all stored addresses of dynamic array \n    function getAllSlotAccounts() view public returns (address[] memory) {\n        return slotAccounts;\n    }    \n    \n    // Function to add data in dynamic array test\n    function addData(uint256 num) public {        \n        arr_test.push(num);\n    }\n\n    // Function to search an element in dynamic array\n    function search(uint256 num) view public returns (bool) {\n        uint i;        \n        for(i=0; i<arr_test.length; i++) {\n            if(arr_test[i] == num) {\n                return true;\n            }\n        }        \n        if(i >= arr_test.length)\n        return false;\n    } \n\n    // Function to store all data in dynamic array \n    function array_pushData(uint[6][] memory slotListNumbers) public { \n        // Dynamic array outright with its elements are arrays of fixed size\n        uint count = slotListNumbers.length;\n        arr_data = new uint[6][](count);        \n        for(uint idx=0; idx<count; idx++) { \n            arr_data[idx] = slotListNumbers[idx];           \n        }                                            \n    }          \n\n    // Function to get all data of dynamic array \n    function array_popAllData() view public returns (uint[6][] memory) {    \n        return arr_data;\n    }\n\n    // Defining a function to find the length of the array\n    function array_getLength() view public returns (uint256) {  \n        uint x = arr_data.length;\n        return x; \n    }  \n\n    // Return an array stored in the dynamic dimension will throw if index > flags.length-1 (index starts at 0)\n    function array_getArray(uint256 index) view public returns (uint[6] memory) {\n        return(arr_data[index]);\n    }   \n     \n    // Current block timestamp is returned by now ( http://www.unixtimestamp.com/ ex, $ date -d @block.timestamp )\n    function time_Call() view public returns (uint256) {        \n        return block.timestamp;\n    }\n\n    // Block Number is returned using block.number\n    function block_Call() view public returns (uint256) {\n        return block.number; \n    }\n    \n}\n",
  "sourcePath": "/home/syoo/Documents/BlockChain/Eth_Toto_Board/contracts/TotoSlots.sol",
  "compiler": {
    "name": "solc",
    "version": "0.5.1+commit.c8a2cb62.Emscripten.clang"
  },
  "schemaVersion": "3.4.3",
  "updatedAt": "2021-12-20T07:47:34.925Z",
  "networkType": "ethereum",
  "devdoc": {
    "methods": {}
  },
  "userdoc": {
    "methods": {}
  }
}